{
  "contractName": "Etherfund",
  "abi": [
    {
      "inputs": [
        {
          "internalType": "uint256",
          "name": "",
          "type": "uint256"
        }
      ],
      "name": "campaigns",
      "outputs": [
        {
          "internalType": "uint256",
          "name": "id",
          "type": "uint256"
        },
        {
          "internalType": "uint256",
          "name": "createdAt",
          "type": "uint256"
        },
        {
          "internalType": "address payable",
          "name": "fundRaiser",
          "type": "address"
        },
        {
          "internalType": "string",
          "name": "title",
          "type": "string"
        },
        {
          "internalType": "string",
          "name": "desc",
          "type": "string"
        },
        {
          "internalType": "string",
          "name": "category",
          "type": "string"
        },
        {
          "internalType": "uint256",
          "name": "amountRequired",
          "type": "uint256"
        },
        {
          "internalType": "uint256",
          "name": "collectedAmount",
          "type": "uint256"
        },
        {
          "internalType": "uint256",
          "name": "deadline",
          "type": "uint256"
        },
        {
          "internalType": "uint256",
          "name": "noOfVoters",
          "type": "uint256"
        },
        {
          "internalType": "bool",
          "name": "isRequestedToVote",
          "type": "bool"
        },
        {
          "internalType": "bool",
          "name": "isCompleted",
          "type": "bool"
        }
      ],
      "stateMutability": "view",
      "type": "function",
      "constant": true
    },
    {
      "inputs": [
        {
          "internalType": "string",
          "name": "_title",
          "type": "string"
        },
        {
          "internalType": "string",
          "name": "_desc",
          "type": "string"
        },
        {
          "internalType": "string",
          "name": "_category",
          "type": "string"
        },
        {
          "internalType": "uint256",
          "name": "_deadline",
          "type": "uint256"
        },
        {
          "internalType": "uint256",
          "name": "_amountRequired",
          "type": "uint256"
        }
      ],
      "name": "createCampaign",
      "outputs": [],
      "stateMutability": "nonpayable",
      "type": "function"
    },
    {
      "inputs": [],
      "name": "getAllCampaigns",
      "outputs": [
        {
          "components": [
            {
              "internalType": "uint256",
              "name": "id",
              "type": "uint256"
            },
            {
              "internalType": "uint256",
              "name": "createdAt",
              "type": "uint256"
            },
            {
              "internalType": "address payable",
              "name": "fundRaiser",
              "type": "address"
            },
            {
              "internalType": "string",
              "name": "title",
              "type": "string"
            },
            {
              "internalType": "string",
              "name": "desc",
              "type": "string"
            },
            {
              "internalType": "string",
              "name": "category",
              "type": "string"
            },
            {
              "internalType": "uint256",
              "name": "amountRequired",
              "type": "uint256"
            },
            {
              "internalType": "uint256",
              "name": "collectedAmount",
              "type": "uint256"
            },
            {
              "internalType": "uint256",
              "name": "deadline",
              "type": "uint256"
            },
            {
              "internalType": "uint256",
              "name": "noOfVoters",
              "type": "uint256"
            },
            {
              "internalType": "bool",
              "name": "isRequestedToVote",
              "type": "bool"
            },
            {
              "internalType": "bool",
              "name": "isCompleted",
              "type": "bool"
            }
          ],
          "internalType": "struct Etherfund.Campaign[]",
          "name": "",
          "type": "tuple[]"
        }
      ],
      "stateMutability": "view",
      "type": "function",
      "constant": true
    },
    {
      "inputs": [
        {
          "internalType": "uint256",
          "name": "_a",
          "type": "uint256"
        }
      ],
      "name": "setter",
      "outputs": [],
      "stateMutability": "nonpayable",
      "type": "function"
    },
    {
      "inputs": [],
      "name": "getter",
      "outputs": [
        {
          "internalType": "uint256",
          "name": "",
          "type": "uint256"
        }
      ],
      "stateMutability": "view",
      "type": "function",
      "constant": true
    }
  ],
  "bytecode": "0x6080604052600a6000556103e8600155600060025534801561002057600080fd5b50611263806100306000396000f3fe608060405234801561001057600080fd5b50600436106100575760003560e01c8063141961bc1461005c57806386cdf60414610097578063980f2e66146100b5578063993a04b7146100d1578063d423740b146100ef575b600080fd5b61007660048036038101906100719190610855565b61010b565b60405161008e9c9b9a9998979695949392919061097d565b60405180910390f35b61009f61034d565b6040516100ac9190610c97565b60405180910390f35b6100cf60048036038101906100ca9190610dee565b61062b565b005b6100d96107f8565b6040516100e69190610ebd565b60405180910390f35b61010960048036038101906101049190610855565b610801565b005b6003818154811061011b57600080fd5b90600052602060002090600b02016000915090508060000154908060010154908060020160009054906101000a900473ffffffffffffffffffffffffffffffffffffffff169080600301805461017090610f07565b80601f016020809104026020016040519081016040528092919081815260200182805461019c90610f07565b80156101e95780601f106101be576101008083540402835291602001916101e9565b820191906000526020600020905b8154815290600101906020018083116101cc57829003601f168201915b5050505050908060040180546101fe90610f07565b80601f016020809104026020016040519081016040528092919081815260200182805461022a90610f07565b80156102775780601f1061024c57610100808354040283529160200191610277565b820191906000526020600020905b81548152906001019060200180831161025a57829003601f168201915b50505050509080600501805461028c90610f07565b80601f01602080910402602001604051908101604052809291908181526020018280546102b890610f07565b80156103055780601f106102da57610100808354040283529160200191610305565b820191906000526020600020905b8154815290600101906020018083116102e857829003601f168201915b50505050509080600601549080600701549080600801549080600901549080600a0160009054906101000a900460ff169080600a0160019054906101000a900460ff1690508c565b60606003805480602002602001604051908101604052809291908181526020016000905b8282101561062257838290600052602060002090600b02016040518061018001604052908160008201548152602001600182015481526020016002820160009054906101000a900473ffffffffffffffffffffffffffffffffffffffff1673ffffffffffffffffffffffffffffffffffffffff1673ffffffffffffffffffffffffffffffffffffffff16815260200160038201805461040f90610f07565b80601f016020809104026020016040519081016040528092919081815260200182805461043b90610f07565b80156104885780601f1061045d57610100808354040283529160200191610488565b820191906000526020600020905b81548152906001019060200180831161046b57829003601f168201915b505050505081526020016004820180546104a190610f07565b80601f01602080910402602001604051908101604052809291908181526020018280546104cd90610f07565b801561051a5780601f106104ef5761010080835404028352916020019161051a565b820191906000526020600020905b8154815290600101906020018083116104fd57829003601f168201915b5050505050815260200160058201805461053390610f07565b80601f016020809104026020016040519081016040528092919081815260200182805461055f90610f07565b80156105ac5780601f10610581576101008083540402835291602001916105ac565b820191906000526020600020905b81548152906001019060200180831161058f57829003601f168201915b5050505050815260200160068201548152602001600782015481526020016008820154815260200160098201548152602001600a820160009054906101000a900460ff16151515158152602001600a820160019054906101000a900460ff16151515158152505081526020019060010190610371565b50505050905090565b600060405180610180016040528060025481526020014281526020013373ffffffffffffffffffffffffffffffffffffffff168152602001878152602001868152602001858152602001838152602001600081526020018481526020016000815260200160001515815260200160001515815250905060038190806001815401808255809150506001900390600052602060002090600b0201600090919091909150600082015181600001556020820151816001015560408201518160020160006101000a81548173ffffffffffffffffffffffffffffffffffffffff021916908373ffffffffffffffffffffffffffffffffffffffff160217905550606082015181600301908161073d91906110e4565b50608082015181600401908161075391906110e4565b5060a082015181600501908161076991906110e4565b5060c0820151816006015560e082015181600701556101008201518160080155610120820151816009015561014082015181600a0160006101000a81548160ff02191690831515021790555061016082015181600a0160016101000a81548160ff0219169083151502179055505050600260008154809291906107eb906111e5565b9190505550505050505050565b60008054905090565b8060008190555050565b6000604051905090565b600080fd5b600080fd5b6000819050919050565b6108328161081f565b811461083d57600080fd5b50565b60008135905061084f81610829565b92915050565b60006020828403121561086b5761086a610815565b5b600061087984828501610840565b91505092915050565b61088b8161081f565b82525050565b600073ffffffffffffffffffffffffffffffffffffffff82169050919050565b60006108bc82610891565b9050919050565b6108cc816108b1565b82525050565b600081519050919050565b600082825260208201905092915050565b60005b8381101561090c5780820151818401526020810190506108f1565b60008484015250505050565b6000601f19601f8301169050919050565b6000610934826108d2565b61093e81856108dd565b935061094e8185602086016108ee565b61095781610918565b840191505092915050565b60008115159050919050565b61097781610962565b82525050565b600061018082019050610993600083018f610882565b6109a0602083018e610882565b6109ad604083018d6108c3565b81810360608301526109bf818c610929565b905081810360808301526109d3818b610929565b905081810360a08301526109e7818a610929565b90506109f660c0830189610882565b610a0360e0830188610882565b610a11610100830187610882565b610a1f610120830186610882565b610a2d61014083018561096e565b610a3b61016083018461096e565b9d9c50505050505050505050505050565b600081519050919050565b600082825260208201905092915050565b6000819050602082019050919050565b610a818161081f565b82525050565b610a90816108b1565b82525050565b600082825260208201905092915050565b6000610ab2826108d2565b610abc8185610a96565b9350610acc8185602086016108ee565b610ad581610918565b840191505092915050565b610ae981610962565b82525050565b600061018083016000830151610b086000860182610a78565b506020830151610b1b6020860182610a78565b506040830151610b2e6040860182610a87565b5060608301518482036060860152610b468282610aa7565b91505060808301518482036080860152610b608282610aa7565b91505060a083015184820360a0860152610b7a8282610aa7565b91505060c0830151610b8f60c0860182610a78565b5060e0830151610ba260e0860182610a78565b50610100830151610bb7610100860182610a78565b50610120830151610bcc610120860182610a78565b50610140830151610be1610140860182610ae0565b50610160830151610bf6610160860182610ae0565b508091505092915050565b6000610c0d8383610aef565b905092915050565b6000602082019050919050565b6000610c2d82610a4c565b610c378185610a57565b935083602082028501610c4985610a68565b8060005b85811015610c855784840389528151610c668582610c01565b9450610c7183610c15565b925060208a01995050600181019050610c4d565b50829750879550505050505092915050565b60006020820190508181036000830152610cb18184610c22565b905092915050565b600080fd5b600080fd5b7f4e487b7100000000000000000000000000000000000000000000000000000000600052604160045260246000fd5b610cfb82610918565b810181811067ffffffffffffffff82111715610d1a57610d19610cc3565b5b80604052505050565b6000610d2d61080b565b9050610d398282610cf2565b919050565b600067ffffffffffffffff821115610d5957610d58610cc3565b5b610d6282610918565b9050602081019050919050565b82818337600083830152505050565b6000610d91610d8c84610d3e565b610d23565b905082815260208101848484011115610dad57610dac610cbe565b5b610db8848285610d6f565b509392505050565b600082601f830112610dd557610dd4610cb9565b5b8135610de5848260208601610d7e565b91505092915050565b600080600080600060a08688031215610e0a57610e09610815565b5b600086013567ffffffffffffffff811115610e2857610e2761081a565b5b610e3488828901610dc0565b955050602086013567ffffffffffffffff811115610e5557610e5461081a565b5b610e6188828901610dc0565b945050604086013567ffffffffffffffff811115610e8257610e8161081a565b5b610e8e88828901610dc0565b9350506060610e9f88828901610840565b9250506080610eb088828901610840565b9150509295509295909350565b6000602082019050610ed26000830184610882565b92915050565b7f4e487b7100000000000000000000000000000000000000000000000000000000600052602260045260246000fd5b60006002820490506001821680610f1f57607f821691505b602082108103610f3257610f31610ed8565b5b50919050565b60008190508160005260206000209050919050565b60006020601f8301049050919050565b600082821b905092915050565b600060088302610f9a7fffffffffffffffffffffffffffffffffffffffffffffffffffffffffffffffff82610f5d565b610fa48683610f5d565b95508019841693508086168417925050509392505050565b6000819050919050565b6000610fe1610fdc610fd78461081f565b610fbc565b61081f565b9050919050565b6000819050919050565b610ffb83610fc6565b61100f61100782610fe8565b848454610f6a565b825550505050565b600090565b611024611017565b61102f818484610ff2565b505050565b5b818110156110535761104860008261101c565b600181019050611035565b5050565b601f8211156110985761106981610f38565b61107284610f4d565b81016020851015611081578190505b61109561108d85610f4d565b830182611034565b50505b505050565b600082821c905092915050565b60006110bb6000198460080261109d565b1980831691505092915050565b60006110d483836110aa565b9150826002028217905092915050565b6110ed826108d2565b67ffffffffffffffff81111561110657611105610cc3565b5b6111108254610f07565b61111b828285611057565b600060209050601f83116001811461114e576000841561113c578287015190505b61114685826110c8565b8655506111ae565b601f19841661115c86610f38565b60005b828110156111845784890151825560018201915060208501945060208101905061115f565b868310156111a1578489015161119d601f8916826110aa565b8355505b6001600288020188555050505b505050505050565b7f4e487b7100000000000000000000000000000000000000000000000000000000600052601160045260246000fd5b60006111f08261081f565b91507fffffffffffffffffffffffffffffffffffffffffffffffffffffffffffffffff8203611222576112216111b6565b5b60018201905091905056fea2646970667358221220215d903785d085ee8cffcad14f43ac4d2fd0707c740c4f3fba573bb5faaaea5b64736f6c63430008120033",
  "immutableReferences": {},
  "source": "// SPDX-License-Identifier: MIT\r\n\r\npragma solidity >= 0.7.0 < 0.9.0;\r\n\r\ncontract Etherfund {\r\n    uint a = 10;\r\n    uint minimuContribution = 1000;\r\n    uint totalCampaigns = 0;\r\n\r\n    struct Campaign {\r\n        uint id;\r\n        uint createdAt;\r\n        address payable fundRaiser;\r\n        string title;\r\n        string desc;\r\n        string category;\r\n        uint amountRequired;\r\n        uint collectedAmount;\r\n        uint deadline;\r\n        uint noOfVoters;\r\n        bool isRequestedToVote;\r\n        bool isCompleted;\r\n    }\r\n\r\n    Campaign[] public campaigns;\r\n\r\n    function createCampaign(\r\n        string memory _title,\r\n        string memory _desc,\r\n        string memory _category,\r\n        uint _deadline,\r\n        uint _amountRequired\r\n    ) public {\r\n        Campaign memory newCampaign = Campaign(\r\n            totalCampaigns,\r\n            block.timestamp,\r\n            payable(msg.sender),\r\n            _title,\r\n            _desc,\r\n            _category,\r\n         _amountRequired,\r\n         0,\r\n         _deadline,\r\n         0,\r\n         false,\r\n         false\r\n        );\r\n\r\n        campaigns.push(newCampaign);\r\n        totalCampaigns++;\r\n    }\r\n\r\n    function getAllCampaigns() public view returns(Campaign[] memory) {\r\n        return campaigns;\r\n    }\r\n\r\n    // sample\r\n    function setter(uint _a) public {\r\n        a=_a;\r\n    }\r\n\r\n    // sample\r\n    function getter() public view returns(uint) {\r\n        return a;\r\n    }\r\n}",
  "sourcePath": "C:\\Users\\sandh\\Desktop\\cf\\client\\contracts\\Etherfund.sol",
  "compiler": {
    "name": "solc",
    "version": "0.8.18+commit.87f61d96.Emscripten.clang"
  },
  "schemaVersion": "3.4.12",
  "updatedAt": "2023-03-05T06:48:41.143Z",
  "networkType": "ethereum",
  "devdoc": {
    "kind": "dev",
    "methods": {},
    "version": 1
  },
  "userdoc": {
    "kind": "user",
    "methods": {},
    "version": 1
  }
}