{
  "contractName": "Etherfund",
  "abi": [
    {
      "anonymous": false,
      "inputs": [
        {
          "indexed": false,
          "internalType": "uint256",
          "name": "campaignId",
          "type": "uint256"
        }
      ],
      "name": "CampaignRequested",
      "type": "event"
    },
    {
      "inputs": [
        {
          "internalType": "uint256",
          "name": "",
          "type": "uint256"
        }
      ],
      "name": "campaignMoreDetails",
      "outputs": [
        {
          "internalType": "uint256",
          "name": "campaignId",
          "type": "uint256"
        },
        {
          "internalType": "bool",
          "name": "isRequestedToVote",
          "type": "bool"
        },
        {
          "internalType": "bool",
          "name": "isGoalAchieved",
          "type": "bool"
        }
      ],
      "stateMutability": "view",
      "type": "function",
      "constant": true
    },
    {
      "inputs": [
        {
          "internalType": "uint256",
          "name": "",
          "type": "uint256"
        }
      ],
      "name": "campaigns",
      "outputs": [
        {
          "internalType": "uint256",
          "name": "id",
          "type": "uint256"
        },
        {
          "internalType": "uint256",
          "name": "createdAt",
          "type": "uint256"
        },
        {
          "internalType": "address payable",
          "name": "fundRaiser",
          "type": "address"
        },
        {
          "internalType": "string",
          "name": "title",
          "type": "string"
        },
        {
          "internalType": "string",
          "name": "desc",
          "type": "string"
        },
        {
          "internalType": "string",
          "name": "imageURL",
          "type": "string"
        },
        {
          "internalType": "string",
          "name": "category",
          "type": "string"
        },
        {
          "internalType": "uint256",
          "name": "amountRequired",
          "type": "uint256"
        },
        {
          "internalType": "uint256",
          "name": "collectedAmount",
          "type": "uint256"
        },
        {
          "internalType": "uint256",
          "name": "deadline",
          "type": "uint256"
        },
        {
          "internalType": "uint256",
          "name": "noOfVoters",
          "type": "uint256"
        },
        {
          "internalType": "bool",
          "name": "isCompleted",
          "type": "bool"
        }
      ],
      "stateMutability": "view",
      "type": "function",
      "constant": true
    },
    {
      "inputs": [
        {
          "internalType": "uint256",
          "name": "",
          "type": "uint256"
        },
        {
          "internalType": "uint256",
          "name": "",
          "type": "uint256"
        }
      ],
      "name": "contributors",
      "outputs": [
        {
          "internalType": "address",
          "name": "contributor",
          "type": "address"
        },
        {
          "internalType": "uint256",
          "name": "amountContributed",
          "type": "uint256"
        }
      ],
      "stateMutability": "view",
      "type": "function",
      "constant": true
    },
    {
      "inputs": [
        {
          "internalType": "address",
          "name": "",
          "type": "address"
        },
        {
          "internalType": "uint256",
          "name": "",
          "type": "uint256"
        }
      ],
      "name": "requests",
      "outputs": [
        {
          "internalType": "uint256",
          "name": "campaignId",
          "type": "uint256"
        },
        {
          "internalType": "address",
          "name": "fundRaiser",
          "type": "address"
        },
        {
          "internalType": "uint256",
          "name": "amount",
          "type": "uint256"
        },
        {
          "internalType": "uint256",
          "name": "deadline",
          "type": "uint256"
        },
        {
          "internalType": "bool",
          "name": "isVoted",
          "type": "bool"
        }
      ],
      "stateMutability": "view",
      "type": "function",
      "constant": true
    },
    {
      "inputs": [
        {
          "internalType": "string",
          "name": "_title",
          "type": "string"
        },
        {
          "internalType": "string",
          "name": "_desc",
          "type": "string"
        },
        {
          "internalType": "string",
          "name": "_category",
          "type": "string"
        },
        {
          "internalType": "string",
          "name": "_imageURL",
          "type": "string"
        },
        {
          "internalType": "uint256",
          "name": "_deadline",
          "type": "uint256"
        },
        {
          "internalType": "uint256",
          "name": "_amountRequired",
          "type": "uint256"
        }
      ],
      "name": "createCampaign",
      "outputs": [],
      "stateMutability": "nonpayable",
      "type": "function"
    },
    {
      "inputs": [
        {
          "internalType": "uint256",
          "name": "campaignId",
          "type": "uint256"
        }
      ],
      "name": "contribute",
      "outputs": [],
      "stateMutability": "payable",
      "type": "function",
      "payable": true
    },
    {
      "inputs": [
        {
          "internalType": "uint256",
          "name": "_campaignId",
          "type": "uint256"
        }
      ],
      "name": "requestVote",
      "outputs": [],
      "stateMutability": "nonpayable",
      "type": "function"
    },
    {
      "inputs": [
        {
          "internalType": "uint256",
          "name": "campaignId",
          "type": "uint256"
        }
      ],
      "name": "voteForCampaign",
      "outputs": [],
      "stateMutability": "nonpayable",
      "type": "function"
    },
    {
      "inputs": [
        {
          "internalType": "uint256",
          "name": "campaignId",
          "type": "uint256"
        }
      ],
      "name": "withdrawEther",
      "outputs": [],
      "stateMutability": "nonpayable",
      "type": "function"
    },
    {
      "inputs": [],
      "name": "getIncompleteCampaigns",
      "outputs": [
        {
          "components": [
            {
              "internalType": "uint256",
              "name": "id",
              "type": "uint256"
            },
            {
              "internalType": "uint256",
              "name": "createdAt",
              "type": "uint256"
            },
            {
              "internalType": "address payable",
              "name": "fundRaiser",
              "type": "address"
            },
            {
              "internalType": "string",
              "name": "title",
              "type": "string"
            },
            {
              "internalType": "string",
              "name": "desc",
              "type": "string"
            },
            {
              "internalType": "string",
              "name": "imageURL",
              "type": "string"
            },
            {
              "internalType": "string",
              "name": "category",
              "type": "string"
            },
            {
              "internalType": "uint256",
              "name": "amountRequired",
              "type": "uint256"
            },
            {
              "internalType": "uint256",
              "name": "collectedAmount",
              "type": "uint256"
            },
            {
              "internalType": "uint256",
              "name": "deadline",
              "type": "uint256"
            },
            {
              "internalType": "uint256",
              "name": "noOfVoters",
              "type": "uint256"
            },
            {
              "internalType": "bool",
              "name": "isCompleted",
              "type": "bool"
            }
          ],
          "internalType": "struct Etherfund.Campaign[]",
          "name": "",
          "type": "tuple[]"
        }
      ],
      "stateMutability": "view",
      "type": "function",
      "constant": true
    },
    {
      "inputs": [],
      "name": "getMyCampaigns",
      "outputs": [
        {
          "components": [
            {
              "internalType": "uint256",
              "name": "id",
              "type": "uint256"
            },
            {
              "internalType": "uint256",
              "name": "createdAt",
              "type": "uint256"
            },
            {
              "internalType": "address payable",
              "name": "fundRaiser",
              "type": "address"
            },
            {
              "internalType": "string",
              "name": "title",
              "type": "string"
            },
            {
              "internalType": "string",
              "name": "desc",
              "type": "string"
            },
            {
              "internalType": "string",
              "name": "imageURL",
              "type": "string"
            },
            {
              "internalType": "string",
              "name": "category",
              "type": "string"
            },
            {
              "internalType": "uint256",
              "name": "amountRequired",
              "type": "uint256"
            },
            {
              "internalType": "uint256",
              "name": "collectedAmount",
              "type": "uint256"
            },
            {
              "internalType": "uint256",
              "name": "deadline",
              "type": "uint256"
            },
            {
              "internalType": "uint256",
              "name": "noOfVoters",
              "type": "uint256"
            },
            {
              "internalType": "bool",
              "name": "isCompleted",
              "type": "bool"
            }
          ],
          "internalType": "struct Etherfund.Campaign[]",
          "name": "",
          "type": "tuple[]"
        }
      ],
      "stateMutability": "view",
      "type": "function",
      "constant": true
    },
    {
      "inputs": [],
      "name": "getMyRequests",
      "outputs": [
        {
          "components": [
            {
              "internalType": "uint256",
              "name": "campaignId",
              "type": "uint256"
            },
            {
              "internalType": "address",
              "name": "fundRaiser",
              "type": "address"
            },
            {
              "internalType": "uint256",
              "name": "amount",
              "type": "uint256"
            },
            {
              "internalType": "uint256",
              "name": "deadline",
              "type": "uint256"
            },
            {
              "internalType": "bool",
              "name": "isVoted",
              "type": "bool"
            }
          ],
          "internalType": "struct Etherfund.Request[]",
          "name": "",
          "type": "tuple[]"
        }
      ],
      "stateMutability": "view",
      "type": "function",
      "constant": true
    },
    {
      "inputs": [
        {
          "internalType": "uint256",
          "name": "_campaignId",
          "type": "uint256"
        }
      ],
      "name": "getCampaignDetails",
      "outputs": [
        {
          "components": [
            {
              "internalType": "uint256",
              "name": "id",
              "type": "uint256"
            },
            {
              "internalType": "uint256",
              "name": "createdAt",
              "type": "uint256"
            },
            {
              "internalType": "address payable",
              "name": "fundRaiser",
              "type": "address"
            },
            {
              "internalType": "string",
              "name": "title",
              "type": "string"
            },
            {
              "internalType": "string",
              "name": "desc",
              "type": "string"
            },
            {
              "internalType": "string",
              "name": "imageURL",
              "type": "string"
            },
            {
              "internalType": "string",
              "name": "category",
              "type": "string"
            },
            {
              "internalType": "uint256",
              "name": "amountRequired",
              "type": "uint256"
            },
            {
              "internalType": "uint256",
              "name": "collectedAmount",
              "type": "uint256"
            },
            {
              "internalType": "uint256",
              "name": "deadline",
              "type": "uint256"
            },
            {
              "internalType": "uint256",
              "name": "noOfVoters",
              "type": "uint256"
            },
            {
              "internalType": "bool",
              "name": "isCompleted",
              "type": "bool"
            }
          ],
          "internalType": "struct Etherfund.Campaign",
          "name": "",
          "type": "tuple"
        }
      ],
      "stateMutability": "view",
      "type": "function",
      "constant": true
    },
    {
      "inputs": [
        {
          "internalType": "uint256",
          "name": "_campaignId",
          "type": "uint256"
        }
      ],
      "name": "getCampaignMoreDetails",
      "outputs": [
        {
          "components": [
            {
              "internalType": "uint256",
              "name": "campaignId",
              "type": "uint256"
            },
            {
              "internalType": "bool",
              "name": "isRequestedToVote",
              "type": "bool"
            },
            {
              "internalType": "bool",
              "name": "isGoalAchieved",
              "type": "bool"
            }
          ],
          "internalType": "struct Etherfund.CampaignMoreDetails",
          "name": "",
          "type": "tuple"
        }
      ],
      "stateMutability": "view",
      "type": "function",
      "constant": true
    },
    {
      "inputs": [
        {
          "internalType": "uint256",
          "name": "_campaignId",
          "type": "uint256"
        }
      ],
      "name": "getWithdrawStatus",
      "outputs": [
        {
          "internalType": "bool",
          "name": "",
          "type": "bool"
        }
      ],
      "stateMutability": "view",
      "type": "function",
      "constant": true
    }
  ],
  "bytecode": "0x60806040526706f05b59d3b20000600055600060015534801561002157600080fd5b50613803806100316000396000f3fe6080604052600436106100e85760003560e01c806391eace8b1161008a578063bf80627111610059578063bf8062711461032c578063c1cbbca714610369578063c956ad6314610385578063d993de62146103ae576100e8565b806391eace8b1461026e5780639ecebe2a14610299578063a8aee940146102da578063bcb94fb914610303576100e8565b806342b90fc8116100c657806342b90fc81461019d57806354346b66146101c85780637eb452a51461020657806382bea0ca14610243576100e8565b8063141961bc146100ed5780633276f36f146101355780633bed33ce14610174575b600080fd5b3480156100f957600080fd5b50610114600480360381019061010f9190612507565b6103eb565b60405161012c9c9b9a9998979695949392919061262f565b60405180910390f35b34801561014157600080fd5b5061015c60048036038101906101579190612507565b6106a8565b60405161016b93929190612705565b60405180910390f35b34801561018057600080fd5b5061019b60048036038101906101969190612507565b6106fc565b005b3480156101a957600080fd5b506101b261092a565b6040516101bf919061298e565b60405180910390f35b3480156101d457600080fd5b506101ef60048036038101906101ea91906129b0565b610da4565b6040516101fd929190612a11565b60405180910390f35b34801561021257600080fd5b5061022d60048036038101906102289190612507565b610e05565b60405161023a9190612a7c565b60405180910390f35b34801561024f57600080fd5b50610258610e81565b604051610265919061298e565b60405180910390f35b34801561027a57600080fd5b50610283611378565b6040516102909190612bbd565b60405180910390f35b3480156102a557600080fd5b506102c060048036038101906102bb9190612c0b565b6114a3565b6040516102d1959493929190612c4b565b60405180910390f35b3480156102e657600080fd5b5061030160048036038101906102fc9190612dd3565b611523565b005b34801561030f57600080fd5b5061032a60048036038101906103259190612507565b6117da565b005b34801561033857600080fd5b50610353600480360381019061034e9190612507565b61192a565b6040516103609190612ed0565b60405180910390f35b610383600480360381019061037e9190612507565b61197d565b005b34801561039157600080fd5b506103ac60048036038101906103a79190612507565b611cbc565b005b3480156103ba57600080fd5b506103d560048036038101906103d09190612507565b6120ed565b6040516103e29190613004565b60405180910390f35b600281815481106103fb57600080fd5b90600052602060002090600c02016000915090508060000154908060010154908060020160009054906101000a900473ffffffffffffffffffffffffffffffffffffffff169080600301805461045090613055565b80601f016020809104026020016040519081016040528092919081815260200182805461047c90613055565b80156104c95780601f1061049e576101008083540402835291602001916104c9565b820191906000526020600020905b8154815290600101906020018083116104ac57829003601f168201915b5050505050908060040180546104de90613055565b80601f016020809104026020016040519081016040528092919081815260200182805461050a90613055565b80156105575780601f1061052c57610100808354040283529160200191610557565b820191906000526020600020905b81548152906001019060200180831161053a57829003601f168201915b50505050509080600501805461056c90613055565b80601f016020809104026020016040519081016040528092919081815260200182805461059890613055565b80156105e55780601f106105ba576101008083540402835291602001916105e5565b820191906000526020600020905b8154815290600101906020018083116105c857829003601f168201915b5050505050908060060180546105fa90613055565b80601f016020809104026020016040519081016040528092919081815260200182805461062690613055565b80156106735780601f1061064857610100808354040283529160200191610673565b820191906000526020600020905b81548152906001019060200180831161065657829003601f168201915b50505050509080600701549080600801549080600901549080600a01549080600b0160009054906101000a900460ff1690508c565b600381815481106106b857600080fd5b90600052602060002090600202016000915090508060000154908060010160009054906101000a900460ff16908060010160019054906101000a900460ff16905083565b600281815481106107105761070f613086565b5b90600052602060002090600c020160020160009054906101000a900473ffffffffffffffffffffffffffffffffffffffff1673ffffffffffffffffffffffffffffffffffffffff163373ffffffffffffffffffffffffffffffffffffffff16146107af576040517f08c379a00000000000000000000000000000000000000000000000000000000081526004016107a690613101565b60405180910390fd5b600260046000838152602001908152602001600020805490506107d2919061317f565b600282815481106107e6576107e5613086565b5b90600052602060002090600c0201600a015411610838576040517f08c379a000000000000000000000000000000000000000000000000000000000815260040161082f906131fc565b60405180910390fd5b6002818154811061084c5761084b613086565b5b90600052602060002090600c020160020160009054906101000a900473ffffffffffffffffffffffffffffffffffffffff1673ffffffffffffffffffffffffffffffffffffffff166108fc600283815481106108ab576108aa613086565b5b90600052602060002090600c0201600701549081150290604051600060405180830381858888f193505050501580156108e8573d6000803e3d6000fd5b506001600282815481106108ff576108fe613086565b5b90600052602060002090600c0201600b0160006101000a81548160ff02191690831515021790555050565b60606000805b600280549050811015610996576002818154811061095157610950613086565b5b90600052602060002090600c0201600b0160009054906101000a900460ff1661098357818061097f9061321c565b9250505b808061098e9061321c565b915050610930565b5060008167ffffffffffffffff8111156109b3576109b2612ca8565b5b6040519080825280602002602001820160405280156109ec57816020015b6109d961241f565b8152602001906001900390816109d15790505b5090506000805b600280549050811015610d9a5760028181548110610a1457610a13613086565b5b90600052602060002090600c0201600b0160009054906101000a900460ff16610d875760028181548110610a4b57610a4a613086565b5b90600052602060002090600c02016040518061018001604052908160008201548152602001600182015481526020016002820160009054906101000a900473ffffffffffffffffffffffffffffffffffffffff1673ffffffffffffffffffffffffffffffffffffffff1673ffffffffffffffffffffffffffffffffffffffff168152602001600382018054610adf90613055565b80601f0160208091040260200160405190810160405280929190818152602001828054610b0b90613055565b8015610b585780601f10610b2d57610100808354040283529160200191610b58565b820191906000526020600020905b815481529060010190602001808311610b3b57829003601f168201915b50505050508152602001600482018054610b7190613055565b80601f0160208091040260200160405190810160405280929190818152602001828054610b9d90613055565b8015610bea5780601f10610bbf57610100808354040283529160200191610bea565b820191906000526020600020905b815481529060010190602001808311610bcd57829003601f168201915b50505050508152602001600582018054610c0390613055565b80601f0160208091040260200160405190810160405280929190818152602001828054610c2f90613055565b8015610c7c5780601f10610c5157610100808354040283529160200191610c7c565b820191906000526020600020905b815481529060010190602001808311610c5f57829003601f168201915b50505050508152602001600682018054610c9590613055565b80601f0160208091040260200160405190810160405280929190818152602001828054610cc190613055565b8015610d0e5780601f10610ce357610100808354040283529160200191610d0e565b820191906000526020600020905b815481529060010190602001808311610cf157829003601f168201915b50505050508152602001600782015481526020016008820154815260200160098201548152602001600a8201548152602001600b820160009054906101000a900460ff161515151581525050838381518110610d6d57610d6c613086565b5b60200260200101819052508180610d839061321c565b9250505b8080610d929061321c565b9150506109f3565b5081935050505090565b60046020528160005260406000208181548110610dc057600080fd5b9060005260206000209060020201600091509150508060000160009054906101000a900473ffffffffffffffffffffffffffffffffffffffff16908060010154905082565b610e0d612498565b60038281548110610e2157610e20613086565b5b9060005260206000209060020201604051806060016040529081600082015481526020016001820160009054906101000a900460ff161515151581526020016001820160019054906101000a900460ff1615151515815250509050919050565b60606000805b600280549050811015610f2e573373ffffffffffffffffffffffffffffffffffffffff1660028281548110610ebf57610ebe613086565b5b90600052602060002090600c020160020160009054906101000a900473ffffffffffffffffffffffffffffffffffffffff1673ffffffffffffffffffffffffffffffffffffffff1603610f1b578180610f179061321c565b9250505b8080610f269061321c565b915050610e87565b5060008167ffffffffffffffff811115610f4b57610f4a612ca8565b5b604051908082528060200260200182016040528015610f8457816020015b610f7161241f565b815260200190600190039081610f695790505b5090506000805b8381101561136e573373ffffffffffffffffffffffffffffffffffffffff1660028281548110610fbe57610fbd613086565b5b90600052602060002090600c020160020160009054906101000a900473ffffffffffffffffffffffffffffffffffffffff1673ffffffffffffffffffffffffffffffffffffffff160361135b576002818154811061101f5761101e613086565b5b90600052602060002090600c02016040518061018001604052908160008201548152602001600182015481526020016002820160009054906101000a900473ffffffffffffffffffffffffffffffffffffffff1673ffffffffffffffffffffffffffffffffffffffff1673ffffffffffffffffffffffffffffffffffffffff1681526020016003820180546110b390613055565b80601f01602080910402602001604051908101604052809291908181526020018280546110df90613055565b801561112c5780601f106111015761010080835404028352916020019161112c565b820191906000526020600020905b81548152906001019060200180831161110f57829003601f168201915b5050505050815260200160048201805461114590613055565b80601f016020809104026020016040519081016040528092919081815260200182805461117190613055565b80156111be5780601f10611193576101008083540402835291602001916111be565b820191906000526020600020905b8154815290600101906020018083116111a157829003601f168201915b505050505081526020016005820180546111d790613055565b80601f016020809104026020016040519081016040528092919081815260200182805461120390613055565b80156112505780601f1061122557610100808354040283529160200191611250565b820191906000526020600020905b81548152906001019060200180831161123357829003601f168201915b5050505050815260200160068201805461126990613055565b80601f016020809104026020016040519081016040528092919081815260200182805461129590613055565b80156112e25780601f106112b7576101008083540402835291602001916112e2565b820191906000526020600020905b8154815290600101906020018083116112c557829003601f168201915b50505050508152602001600782015481526020016008820154815260200160098201548152602001600a8201548152602001600b820160009054906101000a900460ff16151515158152505083838151811061134157611340613086565b5b602002602001018190525081806113579061321c565b9250505b80806113669061321c565b915050610f8b565b5081935050505090565b6060600560003373ffffffffffffffffffffffffffffffffffffffff1673ffffffffffffffffffffffffffffffffffffffff168152602001908152602001600020805480602002602001604051908101604052809291908181526020016000905b8282101561149a57838290600052602060002090600502016040518060a0016040529081600082015481526020016001820160009054906101000a900473ffffffffffffffffffffffffffffffffffffffff1673ffffffffffffffffffffffffffffffffffffffff1673ffffffffffffffffffffffffffffffffffffffff16815260200160028201548152602001600382015481526020016004820160009054906101000a900460ff161515151581525050815260200190600101906113d9565b50505050905090565b600560205281600052604060002081815481106114bf57600080fd5b9060005260206000209060050201600091509150508060000154908060010160009054906101000a900473ffffffffffffffffffffffffffffffffffffffff16908060020154908060030154908060040160009054906101000a900460ff16905085565b60006202a300905080426115379190613264565b8311611578576040517f08c379a000000000000000000000000000000000000000000000000000000000815260040161156f9061330a565b60405180910390fd5b600060405180610180016040528060015481526020014281526020013373ffffffffffffffffffffffffffffffffffffffff168152602001898152602001888152602001868152602001878152602001848152602001600081526020018581526020016000815260200160001515815250905060028190806001815401808255809150506001900390600052602060002090600c0201600090919091909150600082015181600001556020820151816001015560408201518160020160006101000a81548173ffffffffffffffffffffffffffffffffffffffff021916908373ffffffffffffffffffffffffffffffffffffffff160217905550606082015181600301908161168791906134d6565b50608082015181600401908161169d91906134d6565b5060a08201518160050190816116b391906134d6565b5060c08201518160060190816116c991906134d6565b5060e082015181600701556101008201518160080155610120820151816009015561014082015181600a015561016082015181600b0160006101000a81548160ff021916908315150217905550505060006040518060600160405280600154815260200160001515815260200160001515815250905060038190806001815401808255809150506001900390600052602060002090600202016000909190919091506000820151816000015560208201518160010160006101000a81548160ff02191690831515021790555060408201518160010160016101000a81548160ff0219169083151502179055505050600160008154809291906117ca9061321c565b9190505550505050505050505050565b6000600560003373ffffffffffffffffffffffffffffffffffffffff1673ffffffffffffffffffffffffffffffffffffffff168152602001908152602001600020905060005b818054905081101561192557828282815481106118405761183f613086565b5b90600052602060002090600502016000015414801561189457506000151582828154811061187157611870613086565b5b906000526020600020906005020160040160009054906101000a900460ff161515145b156119125760018282815481106118ae576118ad613086565b5b906000526020600020906005020160040160006101000a81548160ff021916908315150217905550600283815481106118ea576118e9613086565b5b90600052602060002090600c0201600a01600081548092919061190c9061321c565b91905055505b808061191d9061321c565b915050611820565b505050565b60006002600460008481526020019081526020016000208054905061194f919061317f565b6002838154811061196357611962613086565b5b90600052602060002090600c0201600a0154119050919050565b6000543410156119c2576040517f08c379a00000000000000000000000000000000000000000000000000000000081526004016119b99061361a565b60405180910390fd5b60001515600382815481106119da576119d9613086565b5b906000526020600020906002020160010160019054906101000a900460ff16151514611a3b576040517f08c379a0000000000000000000000000000000000000000000000000000000008152600401611a3290613686565b60405180910390fd5b3460028281548110611a5057611a4f613086565b5b90600052602060002090600c02016008016000828254611a7091906136a6565b92505081905550600060019050600060046000848152602001908152602001600020905060005b8180549050811015611b71573373ffffffffffffffffffffffffffffffffffffffff16828281548110611acd57611acc613086565b5b906000526020600020906002020160000160009054906101000a900473ffffffffffffffffffffffffffffffffffffffff1673ffffffffffffffffffffffffffffffffffffffff1603611b5e5734828281548110611b2e57611b2d613086565b5b90600052602060002090600202016001016000828254611b4e91906136a6565b9250508190555060009250611b71565b8080611b699061321c565b915050611a97565b508115611c2757600060405180604001604052803373ffffffffffffffffffffffffffffffffffffffff1681526020013481525090508181908060018154018082558091505060019003906000526020600020906002020160009091909190915060008201518160000160006101000a81548173ffffffffffffffffffffffffffffffffffffffff021916908373ffffffffffffffffffffffffffffffffffffffff160217905550602082015181600101555050505b60028381548110611c3b57611c3a613086565b5b90600052602060002090600c02016007015460028481548110611c6157611c60613086565b5b90600052602060002090600c02016008015410611cb757600160038481548110611c8e57611c8d613086565b5b906000526020600020906002020160010160016101000a81548160ff0219169083151502179055505b505050565b3373ffffffffffffffffffffffffffffffffffffffff1660028281548110611ce757611ce6613086565b5b90600052602060002090600c020160020160009054906101000a900473ffffffffffffffffffffffffffffffffffffffff1673ffffffffffffffffffffffffffffffffffffffff1614611d6f576040517f08c379a0000000000000000000000000000000000000000000000000000000008152600401611d6690613101565b60405180910390fd5b60028181548110611d8357611d82613086565b5b90600052602060002090600c02016007015460028281548110611da957611da8613086565b5b90600052602060002090600c0201600801541015611dfc576040517f08c379a0000000000000000000000000000000000000000000000000000000008152600401611df390613726565b60405180910390fd5b600160038281548110611e1257611e11613086565b5b906000526020600020906002020160010160006101000a81548160ff0219169083151502179055611e78576040517f08c379a0000000000000000000000000000000000000000000000000000000008152600401611e6f90613792565b60405180910390fd5b7f8784e79d84ec043ab013215071f26810c0ad293de17d16c22667cfc6e1ba31e281604051611ea791906137b2565b60405180910390a1600060046000838152602001908152602001600020905060005b81805490508110156120aa5760006040518060a001604052808581526020013373ffffffffffffffffffffffffffffffffffffffff168152602001848481548110611f1757611f16613086565b5b906000526020600020906002020160010154815260200160028681548110611f4257611f41613086565b5b90600052602060002090600c020160090154815260200160001515815250905060056000848481548110611f7957611f78613086565b5b906000526020600020906002020160000160009054906101000a900473ffffffffffffffffffffffffffffffffffffffff1673ffffffffffffffffffffffffffffffffffffffff1673ffffffffffffffffffffffffffffffffffffffff1681526020019081526020016000208190806001815401808255809150506001900390600052602060002090600502016000909190919091506000820151816000015560208201518160010160006101000a81548173ffffffffffffffffffffffffffffffffffffffff021916908373ffffffffffffffffffffffffffffffffffffffff160217905550604082015181600201556060820151816003015560808201518160040160006101000a81548160ff02191690831515021790555050505080806120a29061321c565b915050611ec9565b506001600383815481106120c1576120c0613086565b5b906000526020600020906002020160010160006101000a81548160ff0219169083151502179055505050565b6120f561241f565b6002828154811061210957612108613086565b5b90600052602060002090600c02016040518061018001604052908160008201548152602001600182015481526020016002820160009054906101000a900473ffffffffffffffffffffffffffffffffffffffff1673ffffffffffffffffffffffffffffffffffffffff1673ffffffffffffffffffffffffffffffffffffffff16815260200160038201805461219d90613055565b80601f01602080910402602001604051908101604052809291908181526020018280546121c990613055565b80156122165780601f106121eb57610100808354040283529160200191612216565b820191906000526020600020905b8154815290600101906020018083116121f957829003601f168201915b5050505050815260200160048201805461222f90613055565b80601f016020809104026020016040519081016040528092919081815260200182805461225b90613055565b80156122a85780601f1061227d576101008083540402835291602001916122a8565b820191906000526020600020905b81548152906001019060200180831161228b57829003601f168201915b505050505081526020016005820180546122c190613055565b80601f01602080910402602001604051908101604052809291908181526020018280546122ed90613055565b801561233a5780601f1061230f5761010080835404028352916020019161233a565b820191906000526020600020905b81548152906001019060200180831161231d57829003601f168201915b5050505050815260200160068201805461235390613055565b80601f016020809104026020016040519081016040528092919081815260200182805461237f90613055565b80156123cc5780601f106123a1576101008083540402835291602001916123cc565b820191906000526020600020905b8154815290600101906020018083116123af57829003601f168201915b50505050508152602001600782015481526020016008820154815260200160098201548152602001600a8201548152602001600b820160009054906101000a900460ff1615151515815250509050919050565b6040518061018001604052806000815260200160008152602001600073ffffffffffffffffffffffffffffffffffffffff16815260200160608152602001606081526020016060815260200160608152602001600081526020016000815260200160008152602001600081526020016000151581525090565b6040518060600160405280600081526020016000151581526020016000151581525090565b6000604051905090565b600080fd5b600080fd5b6000819050919050565b6124e4816124d1565b81146124ef57600080fd5b50565b600081359050612501816124db565b92915050565b60006020828403121561251d5761251c6124c7565b5b600061252b848285016124f2565b91505092915050565b61253d816124d1565b82525050565b600073ffffffffffffffffffffffffffffffffffffffff82169050919050565b600061256e82612543565b9050919050565b61257e81612563565b82525050565b600081519050919050565b600082825260208201905092915050565b60005b838110156125be5780820151818401526020810190506125a3565b60008484015250505050565b6000601f19601f8301169050919050565b60006125e682612584565b6125f0818561258f565b93506126008185602086016125a0565b612609816125ca565b840191505092915050565b60008115159050919050565b61262981612614565b82525050565b600061018082019050612645600083018f612534565b612652602083018e612534565b61265f604083018d612575565b8181036060830152612671818c6125db565b90508181036080830152612685818b6125db565b905081810360a0830152612699818a6125db565b905081810360c08301526126ad81896125db565b90506126bc60e0830188612534565b6126ca610100830187612534565b6126d8610120830186612534565b6126e6610140830185612534565b6126f4610160830184612620565b9d9c50505050505050505050505050565b600060608201905061271a6000830186612534565b6127276020830185612620565b6127346040830184612620565b949350505050565b600081519050919050565b600082825260208201905092915050565b6000819050602082019050919050565b612771816124d1565b82525050565b61278081612563565b82525050565b600082825260208201905092915050565b60006127a282612584565b6127ac8185612786565b93506127bc8185602086016125a0565b6127c5816125ca565b840191505092915050565b6127d981612614565b82525050565b6000610180830160008301516127f86000860182612768565b50602083015161280b6020860182612768565b50604083015161281e6040860182612777565b50606083015184820360608601526128368282612797565b915050608083015184820360808601526128508282612797565b91505060a083015184820360a086015261286a8282612797565b91505060c083015184820360c08601526128848282612797565b91505060e083015161289960e0860182612768565b506101008301516128ae610100860182612768565b506101208301516128c3610120860182612768565b506101408301516128d8610140860182612768565b506101608301516128ed6101608601826127d0565b508091505092915050565b600061290483836127df565b905092915050565b6000602082019050919050565b60006129248261273c565b61292e8185612747565b93508360208202850161294085612758565b8060005b8581101561297c578484038952815161295d85826128f8565b94506129688361290c565b925060208a01995050600181019050612944565b50829750879550505050505092915050565b600060208201905081810360008301526129a88184612919565b905092915050565b600080604083850312156129c7576129c66124c7565b5b60006129d5858286016124f2565b92505060206129e6858286016124f2565b9150509250929050565b60006129fb82612543565b9050919050565b612a0b816129f0565b82525050565b6000604082019050612a266000830185612a02565b612a336020830184612534565b9392505050565b606082016000820151612a506000850182612768565b506020820151612a6360208501826127d0565b506040820151612a7660408501826127d0565b50505050565b6000606082019050612a916000830184612a3a565b92915050565b600081519050919050565b600082825260208201905092915050565b6000819050602082019050919050565b612acc816129f0565b82525050565b60a082016000820151612ae86000850182612768565b506020820151612afb6020850182612ac3565b506040820151612b0e6040850182612768565b506060820151612b216060850182612768565b506080820151612b3460808501826127d0565b50505050565b6000612b468383612ad2565b60a08301905092915050565b6000602082019050919050565b6000612b6a82612a97565b612b748185612aa2565b9350612b7f83612ab3565b8060005b83811015612bb0578151612b978882612b3a565b9750612ba283612b52565b925050600181019050612b83565b5085935050505092915050565b60006020820190508181036000830152612bd78184612b5f565b905092915050565b612be8816129f0565b8114612bf357600080fd5b50565b600081359050612c0581612bdf565b92915050565b60008060408385031215612c2257612c216124c7565b5b6000612c3085828601612bf6565b9250506020612c41858286016124f2565b9150509250929050565b600060a082019050612c606000830188612534565b612c6d6020830187612a02565b612c7a6040830186612534565b612c876060830185612534565b612c946080830184612620565b9695505050505050565b600080fd5b600080fd5b7f4e487b7100000000000000000000000000000000000000000000000000000000600052604160045260246000fd5b612ce0826125ca565b810181811067ffffffffffffffff82111715612cff57612cfe612ca8565b5b80604052505050565b6000612d126124bd565b9050612d1e8282612cd7565b919050565b600067ffffffffffffffff821115612d3e57612d3d612ca8565b5b612d47826125ca565b9050602081019050919050565b82818337600083830152505050565b6000612d76612d7184612d23565b612d08565b905082815260208101848484011115612d9257612d91612ca3565b5b612d9d848285612d54565b509392505050565b600082601f830112612dba57612db9612c9e565b5b8135612dca848260208601612d63565b91505092915050565b60008060008060008060c08789031215612df057612def6124c7565b5b600087013567ffffffffffffffff811115612e0e57612e0d6124cc565b5b612e1a89828a01612da5565b965050602087013567ffffffffffffffff811115612e3b57612e3a6124cc565b5b612e4789828a01612da5565b955050604087013567ffffffffffffffff811115612e6857612e676124cc565b5b612e7489828a01612da5565b945050606087013567ffffffffffffffff811115612e9557612e946124cc565b5b612ea189828a01612da5565b9350506080612eb289828a016124f2565b92505060a0612ec389828a016124f2565b9150509295509295509295565b6000602082019050612ee56000830184612620565b92915050565b600061018083016000830151612f046000860182612768565b506020830151612f176020860182612768565b506040830151612f2a6040860182612777565b5060608301518482036060860152612f428282612797565b91505060808301518482036080860152612f5c8282612797565b91505060a083015184820360a0860152612f768282612797565b91505060c083015184820360c0860152612f908282612797565b91505060e0830151612fa560e0860182612768565b50610100830151612fba610100860182612768565b50610120830151612fcf610120860182612768565b50610140830151612fe4610140860182612768565b50610160830151612ff96101608601826127d0565b508091505092915050565b6000602082019050818103600083015261301e8184612eeb565b905092915050565b7f4e487b7100000000000000000000000000000000000000000000000000000000600052602260045260246000fd5b6000600282049050600182168061306d57607f821691505b6020821081036130805761307f613026565b5b50919050565b7f4e487b7100000000000000000000000000000000000000000000000000000000600052603260045260246000fd5b7f596f7520617265206e6f74207468652066756e64726169736572000000000000600082015250565b60006130eb601a8361258f565b91506130f6826130b5565b602082019050919050565b6000602082019050818103600083015261311a816130de565b9050919050565b7f4e487b7100000000000000000000000000000000000000000000000000000000600052601260045260246000fd5b7f4e487b7100000000000000000000000000000000000000000000000000000000600052601160045260246000fd5b600061318a826124d1565b9150613195836124d1565b9250826131a5576131a4613121565b5b828204905092915050565b7f4e6f7420656e6f75676820766f746520746f2077697468647261770000000000600082015250565b60006131e6601b8361258f565b91506131f1826131b0565b602082019050919050565b60006020820190508181036000830152613215816131d9565b9050919050565b6000613227826124d1565b91507fffffffffffffffffffffffffffffffffffffffffffffffffffffffffffffffff820361325957613258613150565b5b600182019050919050565b600061326f826124d1565b915061327a836124d1565b925082820390508181111561329257613291613150565b5b92915050565b7f50726f6a656374206d75737420626520706f73746564206265666f726520747760008201527f6f20646179730000000000000000000000000000000000000000000000000000602082015250565b60006132f460268361258f565b91506132ff82613298565b604082019050919050565b60006020820190508181036000830152613323816132e7565b9050919050565b60008190508160005260206000209050919050565b60006020601f8301049050919050565b600082821b905092915050565b60006008830261338c7fffffffffffffffffffffffffffffffffffffffffffffffffffffffffffffffff8261334f565b613396868361334f565b95508019841693508086168417925050509392505050565b6000819050919050565b60006133d36133ce6133c9846124d1565b6133ae565b6124d1565b9050919050565b6000819050919050565b6133ed836133b8565b6134016133f9826133da565b84845461335c565b825550505050565b600090565b613416613409565b6134218184846133e4565b505050565b5b818110156134455761343a60008261340e565b600181019050613427565b5050565b601f82111561348a5761345b8161332a565b6134648461333f565b81016020851015613473578190505b61348761347f8561333f565b830182613426565b50505b505050565b600082821c905092915050565b60006134ad6000198460080261348f565b1980831691505092915050565b60006134c6838361349c565b9150826002028217905092915050565b6134df82612584565b67ffffffffffffffff8111156134f8576134f7612ca8565b5b6135028254613055565b61350d828285613449565b600060209050601f831160018114613540576000841561352e578287015190505b61353885826134ba565b8655506135a0565b601f19841661354e8661332a565b60005b8281101561357657848901518255600182019150602085019450602081019050613551565b86831015613593578489015161358f601f89168261349c565b8355505b6001600288020188555050505b505050505050565b7f4d696e696d756e20636f6e747269627574696f6e20697320302e35206574686560008201527f7200000000000000000000000000000000000000000000000000000000000000602082015250565b600061360460218361258f565b915061360f826135a8565b604082019050919050565b60006020820190508181036000830152613633816135f7565b9050919050565b7f54686520676f616c20697320616368696576656420616c726561647900000000600082015250565b6000613670601c8361258f565b915061367b8261363a565b602082019050919050565b6000602082019050818103600083015261369f81613663565b9050919050565b60006136b1826124d1565b91506136bc836124d1565b92508282019050808211156136d4576136d3613150565b5b92915050565b7f54686520676f616c206973206e6f742061636869657665640000000000000000600082015250565b600061371060188361258f565b915061371b826136da565b602082019050919050565b6000602082019050818103600083015261373f81613703565b9050919050565b7f416c726561647920726571756573746564000000000000000000000000000000600082015250565b600061377c60118361258f565b915061378782613746565b602082019050919050565b600060208201905081810360008301526137ab8161376f565b9050919050565b60006020820190506137c76000830184612534565b9291505056fea2646970667358221220dac8c7bc3ff2255d2a922b735149d12ff61d2a74584594f90a44b53d4504f05f64736f6c63430008120033",
  "immutableReferences": {},
  "source": "// SPDX-License-Identifier: MIT\r\n\r\npragma solidity >=0.7.0 <0.9.0;\r\n\r\ncontract Etherfund {\r\n    uint256 minimuContribution = 0.5 ether; // minimum value for contribution \r\n    uint256 totalCampaigns = 0; // for creating id for campaigns (increments after inserting each campaign to array)\r\n\r\n     event CampaignRequested(uint256 campaignId); // event for request\r\n\r\n    // Campaign structure to save data of campaign\r\n    struct Campaign {\r\n        uint256 id;\r\n        uint256 createdAt; // in timestamp\r\n        address payable fundRaiser; // address of fundraiser\r\n        string title;\r\n        string desc;\r\n        string imageURL;\r\n        string category;\r\n        uint256 amountRequired;\r\n        uint256 collectedAmount;\r\n        uint256 deadline;\r\n        uint256 noOfVoters; // total voters\r\n        bool isCompleted;\r\n    }\r\n    Campaign[] public campaigns; // to save each campaign\r\n\r\n    struct CampaignMoreDetails {\r\n        uint256 campaignId;\r\n        bool isRequestedToVote;\r\n        bool isGoalAchieved;\r\n    }\r\n    CampaignMoreDetails[] public campaignMoreDetails;\r\n\r\n    struct Contributor {\r\n        address contributor;\r\n        uint256 amountContributed;\r\n    }\r\n    mapping(uint256 => Contributor[]) public contributors; // campaign id maps contributors\r\n\r\n    struct Request {\r\n        uint256 campaignId;\r\n        address fundRaiser;\r\n        uint256 amount;\r\n        uint256 deadline;\r\n        bool isVoted;\r\n    }\r\n    mapping(address => Request[]) public requests; // msg.sender maps requests\r\n\r\n    // create a new campaign\r\n    function createCampaign(\r\n        string memory _title,\r\n        string memory _desc,\r\n        string memory _category,\r\n        string memory _imageURL,\r\n        uint256 _deadline,\r\n        uint256 _amountRequired\r\n    ) public {\r\n        uint256 twoDaysInSeconds = 2 * 24 * 60 * 60; // 2 days in seconds\r\n        require(\r\n            _deadline > (block.timestamp - twoDaysInSeconds),\r\n            \"Project must be posted before two days\"\r\n        );\r\n\r\n        Campaign memory newCampaign = Campaign(\r\n            totalCampaigns,\r\n            block.timestamp, // timestamp when the new block is created\r\n            payable(msg.sender), // address of fundraiser is converting to payable for withdrawl in future\r\n            _title,\r\n            _desc,\r\n            _imageURL,\r\n            _category,\r\n            _amountRequired,\r\n            0, // collected amount initially 0\r\n            _deadline,\r\n            0, // no of voters initially 0,\r\n            false // campaign completed is initially false\r\n        );\r\n\r\n        campaigns.push(newCampaign); // push newly created campaign to array\r\n\r\n        CampaignMoreDetails memory newCampaignMoreDetails = CampaignMoreDetails(\r\n            totalCampaigns,\r\n            false, // is the campaign requested to vote\r\n            false // is the campaign achieved the goal\r\n        );\r\n\r\n        campaignMoreDetails.push(newCampaignMoreDetails);\r\n\r\n        totalCampaigns++; // increment no of campaigns\r\n    }\r\n\r\n    // contribute ether\r\n    function contribute(uint256 campaignId) public payable {\r\n        require(\r\n            msg.value >= minimuContribution,\r\n            \"Minimun contribution is 0.5 ether\"\r\n        );\r\n        require(\r\n            campaignMoreDetails[campaignId].isGoalAchieved == false,\r\n            \"The goal is achieved already\"\r\n        );\r\n\r\n        // incrementing collected amount of campaingn\r\n        campaigns[campaignId].collectedAmount += msg.value;\r\n        bool newContributer = true;\r\n        Contributor[] storage contributorsList = contributors[campaignId];\r\n\r\n        for (uint256 i = 0; i < contributorsList.length; i++) {\r\n            if (contributorsList[i].contributor == msg.sender) {\r\n                // increment contributed amount of a person for 2nd contribution\r\n                contributorsList[i].amountContributed += msg.value;\r\n                newContributer = false;\r\n                break;\r\n            }\r\n        }\r\n        if (newContributer) {\r\n            // creating new contributor\r\n            Contributor memory contributor = Contributor({\r\n                contributor: msg.sender,\r\n                amountContributed: msg.value\r\n            });\r\n            contributorsList.push(contributor);\r\n        }\r\n\r\n        if (\r\n            campaigns[campaignId].collectedAmount >=\r\n            campaigns[campaignId].amountRequired\r\n        ) {\r\n            campaignMoreDetails[campaignId].isGoalAchieved = true;\r\n        }\r\n    }\r\n\r\n    // Request to vote\r\n    function requestVote(uint256 _campaignId) public {\r\n        require(\r\n            campaigns[_campaignId].fundRaiser == msg.sender,\r\n            \"You are not the fundraiser\"\r\n        );\r\n        require(\r\n            campaigns[_campaignId].collectedAmount >=\r\n                campaigns[_campaignId].amountRequired,\r\n            \"The goal is not achieved\"\r\n        );\r\n        require(\r\n            campaignMoreDetails[_campaignId].isRequestedToVote = true,\r\n            \"Already requested\"\r\n        );\r\n\r\n        emit CampaignRequested(_campaignId);\r\n\r\n        Contributor[] storage contributorsList = contributors[_campaignId]; // get all contributors\r\n        for (uint256 i = 0; i < contributorsList.length; i++) {\r\n            Request memory newRequest = Request(\r\n                _campaignId,\r\n                msg.sender,\r\n                contributorsList[i].amountContributed,\r\n                campaigns[_campaignId].deadline,\r\n                false // initially voted is false\r\n            );\r\n            requests[contributorsList[i].contributor].push(newRequest);\r\n        }\r\n\r\n        campaignMoreDetails[_campaignId].isRequestedToVote = true;\r\n    }\r\n\r\n    // vote for a campaign\r\n    function voteForCampaign(uint256 campaignId) public {\r\n        Request[] storage requestList = requests[msg.sender];\r\n\r\n        for (uint256 i = 0; i < requestList.length; i++) {\r\n            if (\r\n                requestList[i].campaignId == campaignId &&\r\n                requestList[i].isVoted == false\r\n            ) {\r\n                requestList[i].isVoted = true;\r\n                campaigns[campaignId].noOfVoters++;\r\n            }\r\n        }\r\n    }\r\n\r\n    // withdraw after voted half of the contributors\r\n    function withdrawEther(uint256 campaignId) public {\r\n        require(\r\n            msg.sender == campaigns[campaignId].fundRaiser,\r\n            \"You are not the fundraiser\"\r\n        );\r\n        require(\r\n            campaigns[campaignId].noOfVoters >\r\n                (contributors[campaignId].length / 2),\r\n            \"Not enough vote to withdraw\"\r\n        );\r\n\r\n        campaigns[campaignId].fundRaiser.transfer(\r\n            campaigns[campaignId].amountRequired\r\n        );\r\n\r\n        campaigns[campaignId].isCompleted = true;\r\n    }\r\n\r\n    // get all incompleted campaigns\r\n    function getIncompleteCampaigns() public view returns (Campaign[] memory) {\r\n        uint256 count = 0; // total count of incomplete campaigns\r\n        for (uint256 i = 0; i < campaigns.length; i++) {\r\n            if (!campaigns[i].isCompleted) {\r\n                count++;\r\n            }\r\n        }\r\n\r\n        Campaign[] memory result = new Campaign[](count); // create an instance of Campaign with size count\r\n        uint256 j = 0;\r\n        for (uint256 i = 0; i < campaigns.length; i++) {\r\n            if (!campaigns[i].isCompleted) {\r\n                result[j] = campaigns[i];\r\n                j++;\r\n            }\r\n        }\r\n        return result;\r\n    }\r\n\r\n    // get all campaigns created by a user\r\n    function getMyCampaigns() public view returns (Campaign[] memory) {\r\n        // get count of campaigns created by user(msg.sender)\r\n        uint256 count = 0;\r\n        for (uint256 i = 0; i < campaigns.length; i++)\r\n            if (campaigns[i].fundRaiser == msg.sender) count++;\r\n\r\n        Campaign[] memory myCampaigns = new Campaign[](count);\r\n        uint256 j = 0;\r\n        for (uint256 i = 0; i < count; i++) {\r\n            if (campaigns[i].fundRaiser == msg.sender) {\r\n                myCampaigns[j] = campaigns[i];\r\n                j++;\r\n            }\r\n        }\r\n        return myCampaigns;\r\n    }\r\n\r\n    // get all requests\r\n    function getMyRequests() public view returns (Request[] memory) {\r\n        return requests[msg.sender];\r\n    }\r\n\r\n    // get details about a campaign with campaignId\r\n    function getCampaignDetails(uint256 _campaignId)\r\n        public\r\n        view\r\n        returns (Campaign memory)\r\n    {\r\n        return campaigns[_campaignId];\r\n    }\r\n\r\n    function getCampaignMoreDetails(uint _campaignId) public view returns(CampaignMoreDetails memory) {\r\n        return campaignMoreDetails[_campaignId];\r\n    }\r\n\r\n    function getWithdrawStatus(uint _campaignId) public view returns(bool) {\r\n        return campaigns[_campaignId].noOfVoters > (contributors[_campaignId].length / 2);\r\n    }\r\n}\r\n",
  "sourcePath": "C:\\Users\\sandh\\Desktop\\crowdfund\\contracts\\Etherfund.sol",
  "compiler": {
    "name": "solc",
    "version": "0.8.18+commit.87f61d96.Emscripten.clang"
  },
  "schemaVersion": "3.4.12",
  "updatedAt": "2023-04-30T09:28:49.994Z",
  "networkType": "ethereum",
  "devdoc": {
    "kind": "dev",
    "methods": {},
    "version": 1
  },
  "userdoc": {
    "kind": "user",
    "methods": {},
    "version": 1
  }
}