{
  "contractName": "Etherfund",
  "abi": [
    {
      "inputs": [
        {
          "internalType": "uint256",
          "name": "",
          "type": "uint256"
        }
      ],
      "name": "campaignMoreDetails",
      "outputs": [
        {
          "internalType": "uint256",
          "name": "campaignId",
          "type": "uint256"
        },
        {
          "internalType": "bool",
          "name": "isRequestedToVote",
          "type": "bool"
        },
        {
          "internalType": "bool",
          "name": "isGoalAchieved",
          "type": "bool"
        }
      ],
      "stateMutability": "view",
      "type": "function",
      "constant": true
    },
    {
      "inputs": [
        {
          "internalType": "uint256",
          "name": "",
          "type": "uint256"
        }
      ],
      "name": "campaigns",
      "outputs": [
        {
          "internalType": "uint256",
          "name": "id",
          "type": "uint256"
        },
        {
          "internalType": "uint256",
          "name": "createdAt",
          "type": "uint256"
        },
        {
          "internalType": "address payable",
          "name": "fundRaiser",
          "type": "address"
        },
        {
          "internalType": "string",
          "name": "title",
          "type": "string"
        },
        {
          "internalType": "string",
          "name": "desc",
          "type": "string"
        },
        {
          "internalType": "string",
          "name": "imageURL",
          "type": "string"
        },
        {
          "internalType": "string",
          "name": "category",
          "type": "string"
        },
        {
          "internalType": "uint256",
          "name": "amountRequired",
          "type": "uint256"
        },
        {
          "internalType": "uint256",
          "name": "collectedAmount",
          "type": "uint256"
        },
        {
          "internalType": "uint256",
          "name": "deadline",
          "type": "uint256"
        },
        {
          "internalType": "uint256",
          "name": "noOfVoters",
          "type": "uint256"
        },
        {
          "internalType": "bool",
          "name": "isCompleted",
          "type": "bool"
        }
      ],
      "stateMutability": "view",
      "type": "function",
      "constant": true
    },
    {
      "inputs": [
        {
          "internalType": "uint256",
          "name": "",
          "type": "uint256"
        },
        {
          "internalType": "uint256",
          "name": "",
          "type": "uint256"
        }
      ],
      "name": "contributors",
      "outputs": [
        {
          "internalType": "address",
          "name": "contributor",
          "type": "address"
        },
        {
          "internalType": "uint256",
          "name": "amountContributed",
          "type": "uint256"
        }
      ],
      "stateMutability": "view",
      "type": "function",
      "constant": true
    },
    {
      "inputs": [
        {
          "internalType": "address",
          "name": "",
          "type": "address"
        },
        {
          "internalType": "uint256",
          "name": "",
          "type": "uint256"
        }
      ],
      "name": "requests",
      "outputs": [
        {
          "internalType": "uint256",
          "name": "campaignId",
          "type": "uint256"
        },
        {
          "internalType": "address",
          "name": "fundRaiser",
          "type": "address"
        },
        {
          "internalType": "uint256",
          "name": "amount",
          "type": "uint256"
        },
        {
          "internalType": "uint256",
          "name": "deadline",
          "type": "uint256"
        },
        {
          "internalType": "bool",
          "name": "isVoted",
          "type": "bool"
        }
      ],
      "stateMutability": "view",
      "type": "function",
      "constant": true
    },
    {
      "inputs": [
        {
          "internalType": "string",
          "name": "_title",
          "type": "string"
        },
        {
          "internalType": "string",
          "name": "_desc",
          "type": "string"
        },
        {
          "internalType": "string",
          "name": "_category",
          "type": "string"
        },
        {
          "internalType": "string",
          "name": "_imageURL",
          "type": "string"
        },
        {
          "internalType": "uint256",
          "name": "_deadline",
          "type": "uint256"
        },
        {
          "internalType": "uint256",
          "name": "_amountRequired",
          "type": "uint256"
        }
      ],
      "name": "createCampaign",
      "outputs": [],
      "stateMutability": "nonpayable",
      "type": "function"
    },
    {
      "inputs": [
        {
          "internalType": "uint256",
          "name": "campaignId",
          "type": "uint256"
        }
      ],
      "name": "contribute",
      "outputs": [],
      "stateMutability": "payable",
      "type": "function",
      "payable": true
    },
    {
      "inputs": [
        {
          "internalType": "uint256",
          "name": "_campaignId",
          "type": "uint256"
        }
      ],
      "name": "requestVote",
      "outputs": [],
      "stateMutability": "nonpayable",
      "type": "function"
    },
    {
      "inputs": [
        {
          "internalType": "uint256",
          "name": "campaignId",
          "type": "uint256"
        }
      ],
      "name": "voteForCampaign",
      "outputs": [],
      "stateMutability": "nonpayable",
      "type": "function"
    },
    {
      "inputs": [
        {
          "internalType": "uint256",
          "name": "campaignId",
          "type": "uint256"
        }
      ],
      "name": "withdrawEther",
      "outputs": [],
      "stateMutability": "nonpayable",
      "type": "function"
    },
    {
      "inputs": [],
      "name": "getIncompleteCampaigns",
      "outputs": [
        {
          "components": [
            {
              "internalType": "uint256",
              "name": "id",
              "type": "uint256"
            },
            {
              "internalType": "uint256",
              "name": "createdAt",
              "type": "uint256"
            },
            {
              "internalType": "address payable",
              "name": "fundRaiser",
              "type": "address"
            },
            {
              "internalType": "string",
              "name": "title",
              "type": "string"
            },
            {
              "internalType": "string",
              "name": "desc",
              "type": "string"
            },
            {
              "internalType": "string",
              "name": "imageURL",
              "type": "string"
            },
            {
              "internalType": "string",
              "name": "category",
              "type": "string"
            },
            {
              "internalType": "uint256",
              "name": "amountRequired",
              "type": "uint256"
            },
            {
              "internalType": "uint256",
              "name": "collectedAmount",
              "type": "uint256"
            },
            {
              "internalType": "uint256",
              "name": "deadline",
              "type": "uint256"
            },
            {
              "internalType": "uint256",
              "name": "noOfVoters",
              "type": "uint256"
            },
            {
              "internalType": "bool",
              "name": "isCompleted",
              "type": "bool"
            }
          ],
          "internalType": "struct Etherfund.Campaign[]",
          "name": "",
          "type": "tuple[]"
        }
      ],
      "stateMutability": "view",
      "type": "function",
      "constant": true
    },
    {
      "inputs": [],
      "name": "getMyCampaigns",
      "outputs": [
        {
          "components": [
            {
              "internalType": "uint256",
              "name": "id",
              "type": "uint256"
            },
            {
              "internalType": "uint256",
              "name": "createdAt",
              "type": "uint256"
            },
            {
              "internalType": "address payable",
              "name": "fundRaiser",
              "type": "address"
            },
            {
              "internalType": "string",
              "name": "title",
              "type": "string"
            },
            {
              "internalType": "string",
              "name": "desc",
              "type": "string"
            },
            {
              "internalType": "string",
              "name": "imageURL",
              "type": "string"
            },
            {
              "internalType": "string",
              "name": "category",
              "type": "string"
            },
            {
              "internalType": "uint256",
              "name": "amountRequired",
              "type": "uint256"
            },
            {
              "internalType": "uint256",
              "name": "collectedAmount",
              "type": "uint256"
            },
            {
              "internalType": "uint256",
              "name": "deadline",
              "type": "uint256"
            },
            {
              "internalType": "uint256",
              "name": "noOfVoters",
              "type": "uint256"
            },
            {
              "internalType": "bool",
              "name": "isCompleted",
              "type": "bool"
            }
          ],
          "internalType": "struct Etherfund.Campaign[]",
          "name": "",
          "type": "tuple[]"
        }
      ],
      "stateMutability": "view",
      "type": "function",
      "constant": true
    },
    {
      "inputs": [],
      "name": "getMyRequests",
      "outputs": [
        {
          "components": [
            {
              "internalType": "uint256",
              "name": "campaignId",
              "type": "uint256"
            },
            {
              "internalType": "address",
              "name": "fundRaiser",
              "type": "address"
            },
            {
              "internalType": "uint256",
              "name": "amount",
              "type": "uint256"
            },
            {
              "internalType": "uint256",
              "name": "deadline",
              "type": "uint256"
            },
            {
              "internalType": "bool",
              "name": "isVoted",
              "type": "bool"
            }
          ],
          "internalType": "struct Etherfund.Request[]",
          "name": "",
          "type": "tuple[]"
        }
      ],
      "stateMutability": "view",
      "type": "function",
      "constant": true
    },
    {
      "inputs": [
        {
          "internalType": "uint256",
          "name": "_campaignId",
          "type": "uint256"
        }
      ],
      "name": "getCampaignDetails",
      "outputs": [
        {
          "components": [
            {
              "internalType": "uint256",
              "name": "id",
              "type": "uint256"
            },
            {
              "internalType": "uint256",
              "name": "createdAt",
              "type": "uint256"
            },
            {
              "internalType": "address payable",
              "name": "fundRaiser",
              "type": "address"
            },
            {
              "internalType": "string",
              "name": "title",
              "type": "string"
            },
            {
              "internalType": "string",
              "name": "desc",
              "type": "string"
            },
            {
              "internalType": "string",
              "name": "imageURL",
              "type": "string"
            },
            {
              "internalType": "string",
              "name": "category",
              "type": "string"
            },
            {
              "internalType": "uint256",
              "name": "amountRequired",
              "type": "uint256"
            },
            {
              "internalType": "uint256",
              "name": "collectedAmount",
              "type": "uint256"
            },
            {
              "internalType": "uint256",
              "name": "deadline",
              "type": "uint256"
            },
            {
              "internalType": "uint256",
              "name": "noOfVoters",
              "type": "uint256"
            },
            {
              "internalType": "bool",
              "name": "isCompleted",
              "type": "bool"
            }
          ],
          "internalType": "struct Etherfund.Campaign",
          "name": "",
          "type": "tuple"
        }
      ],
      "stateMutability": "view",
      "type": "function",
      "constant": true
    }
  ],
  "bytecode": "0x60806040526706f05b59d3b20000600055600060015534801561002157600080fd5b506135a5806100316000396000f3fe6080604052600436106100c25760003560e01c806391eace8b1161007f578063bcb94fb911610059578063bcb94fb9146102a0578063c1cbbca7146102c9578063c956ad63146102e5578063d993de621461030e576100c2565b806391eace8b1461020b5780639ecebe2a14610236578063a8aee94014610277576100c2565b8063141961bc146100c75780633276f36f1461010f5780633bed33ce1461014e57806342b90fc81461017757806354346b66146101a257806382bea0ca146101e0575b600080fd5b3480156100d357600080fd5b506100ee60048036038101906100e9919061233c565b61034b565b6040516101069c9b9a99989796959493929190612464565b60405180910390f35b34801561011b57600080fd5b506101366004803603810190610131919061233c565b610608565b6040516101459392919061253a565b60405180910390f35b34801561015a57600080fd5b506101756004803603810190610170919061233c565b61065c565b005b34801561018357600080fd5b5061018c61088a565b60405161019991906127c3565b60405180910390f35b3480156101ae57600080fd5b506101c960048036038101906101c491906127e5565b610d04565b6040516101d7929190612846565b60405180910390f35b3480156101ec57600080fd5b506101f5610d65565b60405161020291906127c3565b60405180910390f35b34801561021757600080fd5b5061022061125c565b60405161022d9190612995565b60405180910390f35b34801561024257600080fd5b5061025d600480360381019061025891906129e3565b611387565b60405161026e959493929190612a23565b60405180910390f35b34801561028357600080fd5b5061029e60048036038101906102999190612bab565b611407565b005b3480156102ac57600080fd5b506102c760048036038101906102c2919061233c565b6116be565b005b6102e360048036038101906102de919061233c565b61180e565b005b3480156102f157600080fd5b5061030c6004803603810190610307919061233c565b611b4d565b005b34801561031a57600080fd5b506103356004803603810190610330919061233c565b611f47565b6040516103429190612dc1565b60405180910390f35b6002818154811061035b57600080fd5b90600052602060002090600c02016000915090508060000154908060010154908060020160009054906101000a900473ffffffffffffffffffffffffffffffffffffffff16908060030180546103b090612e12565b80601f01602080910402602001604051908101604052809291908181526020018280546103dc90612e12565b80156104295780601f106103fe57610100808354040283529160200191610429565b820191906000526020600020905b81548152906001019060200180831161040c57829003601f168201915b50505050509080600401805461043e90612e12565b80601f016020809104026020016040519081016040528092919081815260200182805461046a90612e12565b80156104b75780601f1061048c576101008083540402835291602001916104b7565b820191906000526020600020905b81548152906001019060200180831161049a57829003601f168201915b5050505050908060050180546104cc90612e12565b80601f01602080910402602001604051908101604052809291908181526020018280546104f890612e12565b80156105455780601f1061051a57610100808354040283529160200191610545565b820191906000526020600020905b81548152906001019060200180831161052857829003601f168201915b50505050509080600601805461055a90612e12565b80601f016020809104026020016040519081016040528092919081815260200182805461058690612e12565b80156105d35780601f106105a8576101008083540402835291602001916105d3565b820191906000526020600020905b8154815290600101906020018083116105b657829003601f168201915b50505050509080600701549080600801549080600901549080600a01549080600b0160009054906101000a900460ff1690508c565b6003818154811061061857600080fd5b90600052602060002090600202016000915090508060000154908060010160009054906101000a900460ff16908060010160019054906101000a900460ff16905083565b600281815481106106705761066f612e43565b5b90600052602060002090600c020160020160009054906101000a900473ffffffffffffffffffffffffffffffffffffffff1673ffffffffffffffffffffffffffffffffffffffff163373ffffffffffffffffffffffffffffffffffffffff161461070f576040517f08c379a000000000000000000000000000000000000000000000000000000000815260040161070690612ebe565b60405180910390fd5b600260046000838152602001908152602001600020805490506107329190612f3c565b6002828154811061074657610745612e43565b5b90600052602060002090600c0201600a015411610798576040517f08c379a000000000000000000000000000000000000000000000000000000000815260040161078f90612fb9565b60405180910390fd5b600281815481106107ac576107ab612e43565b5b90600052602060002090600c020160020160009054906101000a900473ffffffffffffffffffffffffffffffffffffffff1673ffffffffffffffffffffffffffffffffffffffff166108fc6002838154811061080b5761080a612e43565b5b90600052602060002090600c0201600701549081150290604051600060405180830381858888f19350505050158015610848573d6000803e3d6000fd5b5060016002828154811061085f5761085e612e43565b5b90600052602060002090600c0201600b0160006101000a81548160ff02191690831515021790555050565b60606000805b6002805490508110156108f657600281815481106108b1576108b0612e43565b5b90600052602060002090600c0201600b0160009054906101000a900460ff166108e35781806108df90612fd9565b9250505b80806108ee90612fd9565b915050610890565b5060008167ffffffffffffffff81111561091357610912612a80565b5b60405190808252806020026020018201604052801561094c57816020015b610939612279565b8152602001906001900390816109315790505b5090506000805b600280549050811015610cfa576002818154811061097457610973612e43565b5b90600052602060002090600c0201600b0160009054906101000a900460ff16610ce757600281815481106109ab576109aa612e43565b5b90600052602060002090600c02016040518061018001604052908160008201548152602001600182015481526020016002820160009054906101000a900473ffffffffffffffffffffffffffffffffffffffff1673ffffffffffffffffffffffffffffffffffffffff1673ffffffffffffffffffffffffffffffffffffffff168152602001600382018054610a3f90612e12565b80601f0160208091040260200160405190810160405280929190818152602001828054610a6b90612e12565b8015610ab85780601f10610a8d57610100808354040283529160200191610ab8565b820191906000526020600020905b815481529060010190602001808311610a9b57829003601f168201915b50505050508152602001600482018054610ad190612e12565b80601f0160208091040260200160405190810160405280929190818152602001828054610afd90612e12565b8015610b4a5780601f10610b1f57610100808354040283529160200191610b4a565b820191906000526020600020905b815481529060010190602001808311610b2d57829003601f168201915b50505050508152602001600582018054610b6390612e12565b80601f0160208091040260200160405190810160405280929190818152602001828054610b8f90612e12565b8015610bdc5780601f10610bb157610100808354040283529160200191610bdc565b820191906000526020600020905b815481529060010190602001808311610bbf57829003601f168201915b50505050508152602001600682018054610bf590612e12565b80601f0160208091040260200160405190810160405280929190818152602001828054610c2190612e12565b8015610c6e5780601f10610c4357610100808354040283529160200191610c6e565b820191906000526020600020905b815481529060010190602001808311610c5157829003601f168201915b50505050508152602001600782015481526020016008820154815260200160098201548152602001600a8201548152602001600b820160009054906101000a900460ff161515151581525050838381518110610ccd57610ccc612e43565b5b60200260200101819052508180610ce390612fd9565b9250505b8080610cf290612fd9565b915050610953565b5081935050505090565b60046020528160005260406000208181548110610d2057600080fd5b9060005260206000209060020201600091509150508060000160009054906101000a900473ffffffffffffffffffffffffffffffffffffffff16908060010154905082565b60606000805b600280549050811015610e12573373ffffffffffffffffffffffffffffffffffffffff1660028281548110610da357610da2612e43565b5b90600052602060002090600c020160020160009054906101000a900473ffffffffffffffffffffffffffffffffffffffff1673ffffffffffffffffffffffffffffffffffffffff1603610dff578180610dfb90612fd9565b9250505b8080610e0a90612fd9565b915050610d6b565b5060008167ffffffffffffffff811115610e2f57610e2e612a80565b5b604051908082528060200260200182016040528015610e6857816020015b610e55612279565b815260200190600190039081610e4d5790505b5090506000805b83811015611252573373ffffffffffffffffffffffffffffffffffffffff1660028281548110610ea257610ea1612e43565b5b90600052602060002090600c020160020160009054906101000a900473ffffffffffffffffffffffffffffffffffffffff1673ffffffffffffffffffffffffffffffffffffffff160361123f5760028181548110610f0357610f02612e43565b5b90600052602060002090600c02016040518061018001604052908160008201548152602001600182015481526020016002820160009054906101000a900473ffffffffffffffffffffffffffffffffffffffff1673ffffffffffffffffffffffffffffffffffffffff1673ffffffffffffffffffffffffffffffffffffffff168152602001600382018054610f9790612e12565b80601f0160208091040260200160405190810160405280929190818152602001828054610fc390612e12565b80156110105780601f10610fe557610100808354040283529160200191611010565b820191906000526020600020905b815481529060010190602001808311610ff357829003601f168201915b5050505050815260200160048201805461102990612e12565b80601f016020809104026020016040519081016040528092919081815260200182805461105590612e12565b80156110a25780601f10611077576101008083540402835291602001916110a2565b820191906000526020600020905b81548152906001019060200180831161108557829003601f168201915b505050505081526020016005820180546110bb90612e12565b80601f01602080910402602001604051908101604052809291908181526020018280546110e790612e12565b80156111345780601f1061110957610100808354040283529160200191611134565b820191906000526020600020905b81548152906001019060200180831161111757829003601f168201915b5050505050815260200160068201805461114d90612e12565b80601f016020809104026020016040519081016040528092919081815260200182805461117990612e12565b80156111c65780601f1061119b576101008083540402835291602001916111c6565b820191906000526020600020905b8154815290600101906020018083116111a957829003601f168201915b50505050508152602001600782015481526020016008820154815260200160098201548152602001600a8201548152602001600b820160009054906101000a900460ff16151515158152505083838151811061122557611224612e43565b5b6020026020010181905250818061123b90612fd9565b9250505b808061124a90612fd9565b915050610e6f565b5081935050505090565b6060600560003373ffffffffffffffffffffffffffffffffffffffff1673ffffffffffffffffffffffffffffffffffffffff168152602001908152602001600020805480602002602001604051908101604052809291908181526020016000905b8282101561137e57838290600052602060002090600502016040518060a0016040529081600082015481526020016001820160009054906101000a900473ffffffffffffffffffffffffffffffffffffffff1673ffffffffffffffffffffffffffffffffffffffff1673ffffffffffffffffffffffffffffffffffffffff16815260200160028201548152602001600382015481526020016004820160009054906101000a900460ff161515151581525050815260200190600101906112bd565b50505050905090565b600560205281600052604060002081815481106113a357600080fd5b9060005260206000209060050201600091509150508060000154908060010160009054906101000a900473ffffffffffffffffffffffffffffffffffffffff16908060020154908060030154908060040160009054906101000a900460ff16905085565b60006202a3009050804261141b9190613021565b831161145c576040517f08c379a0000000000000000000000000000000000000000000000000000000008152600401611453906130c7565b60405180910390fd5b600060405180610180016040528060015481526020014281526020013373ffffffffffffffffffffffffffffffffffffffff168152602001898152602001888152602001868152602001878152602001848152602001600081526020018581526020016000815260200160001515815250905060028190806001815401808255809150506001900390600052602060002090600c0201600090919091909150600082015181600001556020820151816001015560408201518160020160006101000a81548173ffffffffffffffffffffffffffffffffffffffff021916908373ffffffffffffffffffffffffffffffffffffffff160217905550606082015181600301908161156b9190613293565b5060808201518160040190816115819190613293565b5060a08201518160050190816115979190613293565b5060c08201518160060190816115ad9190613293565b5060e082015181600701556101008201518160080155610120820151816009015561014082015181600a015561016082015181600b0160006101000a81548160ff021916908315150217905550505060006040518060600160405280600154815260200160001515815260200160001515815250905060038190806001815401808255809150506001900390600052602060002090600202016000909190919091506000820151816000015560208201518160010160006101000a81548160ff02191690831515021790555060408201518160010160016101000a81548160ff0219169083151502179055505050600160008154809291906116ae90612fd9565b9190505550505050505050505050565b6000600560003373ffffffffffffffffffffffffffffffffffffffff1673ffffffffffffffffffffffffffffffffffffffff168152602001908152602001600020905060005b8180549050811015611809578282828154811061172457611723612e43565b5b90600052602060002090600502016000015414801561177857506000151582828154811061175557611754612e43565b5b906000526020600020906005020160040160009054906101000a900460ff161515145b156117f657600182828154811061179257611791612e43565b5b906000526020600020906005020160040160006101000a81548160ff021916908315150217905550600283815481106117ce576117cd612e43565b5b90600052602060002090600c0201600a0160008154809291906117f090612fd9565b91905055505b808061180190612fd9565b915050611704565b505050565b600054341015611853576040517f08c379a000000000000000000000000000000000000000000000000000000000815260040161184a906133d7565b60405180910390fd5b600015156003828154811061186b5761186a612e43565b5b906000526020600020906002020160010160019054906101000a900460ff161515146118cc576040517f08c379a00000000000000000000000000000000000000000000000000000000081526004016118c390613443565b60405180910390fd5b34600282815481106118e1576118e0612e43565b5b90600052602060002090600c020160080160008282546119019190613463565b92505081905550600060019050600060046000848152602001908152602001600020905060005b8180549050811015611a02573373ffffffffffffffffffffffffffffffffffffffff1682828154811061195e5761195d612e43565b5b906000526020600020906002020160000160009054906101000a900473ffffffffffffffffffffffffffffffffffffffff1673ffffffffffffffffffffffffffffffffffffffff16036119ef57348282815481106119bf576119be612e43565b5b906000526020600020906002020160010160008282546119df9190613463565b9250508190555060009250611a02565b80806119fa90612fd9565b915050611928565b508115611ab857600060405180604001604052803373ffffffffffffffffffffffffffffffffffffffff1681526020013481525090508181908060018154018082558091505060019003906000526020600020906002020160009091909190915060008201518160000160006101000a81548173ffffffffffffffffffffffffffffffffffffffff021916908373ffffffffffffffffffffffffffffffffffffffff160217905550602082015181600101555050505b60028381548110611acc57611acb612e43565b5b90600052602060002090600c02016007015460028481548110611af257611af1612e43565b5b90600052602060002090600c02016008015410611b4857600160038481548110611b1f57611b1e612e43565b5b906000526020600020906002020160010160016101000a81548160ff0219169083151502179055505b505050565b3373ffffffffffffffffffffffffffffffffffffffff1660028281548110611b7857611b77612e43565b5b90600052602060002090600c020160020160009054906101000a900473ffffffffffffffffffffffffffffffffffffffff1673ffffffffffffffffffffffffffffffffffffffff1614611c00576040517f08c379a0000000000000000000000000000000000000000000000000000000008152600401611bf790612ebe565b60405180910390fd5b60028181548110611c1457611c13612e43565b5b90600052602060002090600c02016007015460028281548110611c3a57611c39612e43565b5b90600052602060002090600c0201600801541015611c8d576040517f08c379a0000000000000000000000000000000000000000000000000000000008152600401611c84906134e3565b60405180910390fd5b600160038281548110611ca357611ca2612e43565b5b906000526020600020906002020160010160006101000a81548160ff0219169083151502179055611d09576040517f08c379a0000000000000000000000000000000000000000000000000000000008152600401611d009061354f565b60405180910390fd5b600060046000838152602001908152602001600020905060005b8180549050811015611f045760006040518060a001604052808581526020013373ffffffffffffffffffffffffffffffffffffffff168152602001848481548110611d7157611d70612e43565b5b906000526020600020906002020160010154815260200160028681548110611d9c57611d9b612e43565b5b90600052602060002090600c020160090154815260200160001515815250905060056000848481548110611dd357611dd2612e43565b5b906000526020600020906002020160000160009054906101000a900473ffffffffffffffffffffffffffffffffffffffff1673ffffffffffffffffffffffffffffffffffffffff1673ffffffffffffffffffffffffffffffffffffffff1681526020019081526020016000208190806001815401808255809150506001900390600052602060002090600502016000909190919091506000820151816000015560208201518160010160006101000a81548173ffffffffffffffffffffffffffffffffffffffff021916908373ffffffffffffffffffffffffffffffffffffffff160217905550604082015181600201556060820151816003015560808201518160040160006101000a81548160ff0219169083151502179055505050508080611efc90612fd9565b915050611d23565b50600160038381548110611f1b57611f1a612e43565b5b906000526020600020906002020160010160006101000a81548160ff0219169083151502179055505050565b611f4f612279565b60028281548110611f6357611f62612e43565b5b90600052602060002090600c02016040518061018001604052908160008201548152602001600182015481526020016002820160009054906101000a900473ffffffffffffffffffffffffffffffffffffffff1673ffffffffffffffffffffffffffffffffffffffff1673ffffffffffffffffffffffffffffffffffffffff168152602001600382018054611ff790612e12565b80601f016020809104026020016040519081016040528092919081815260200182805461202390612e12565b80156120705780601f1061204557610100808354040283529160200191612070565b820191906000526020600020905b81548152906001019060200180831161205357829003601f168201915b5050505050815260200160048201805461208990612e12565b80601f01602080910402602001604051908101604052809291908181526020018280546120b590612e12565b80156121025780601f106120d757610100808354040283529160200191612102565b820191906000526020600020905b8154815290600101906020018083116120e557829003601f168201915b5050505050815260200160058201805461211b90612e12565b80601f016020809104026020016040519081016040528092919081815260200182805461214790612e12565b80156121945780601f1061216957610100808354040283529160200191612194565b820191906000526020600020905b81548152906001019060200180831161217757829003601f168201915b505050505081526020016006820180546121ad90612e12565b80601f01602080910402602001604051908101604052809291908181526020018280546121d990612e12565b80156122265780601f106121fb57610100808354040283529160200191612226565b820191906000526020600020905b81548152906001019060200180831161220957829003601f168201915b50505050508152602001600782015481526020016008820154815260200160098201548152602001600a8201548152602001600b820160009054906101000a900460ff1615151515815250509050919050565b6040518061018001604052806000815260200160008152602001600073ffffffffffffffffffffffffffffffffffffffff16815260200160608152602001606081526020016060815260200160608152602001600081526020016000815260200160008152602001600081526020016000151581525090565b6000604051905090565b600080fd5b600080fd5b6000819050919050565b61231981612306565b811461232457600080fd5b50565b60008135905061233681612310565b92915050565b600060208284031215612352576123516122fc565b5b600061236084828501612327565b91505092915050565b61237281612306565b82525050565b600073ffffffffffffffffffffffffffffffffffffffff82169050919050565b60006123a382612378565b9050919050565b6123b381612398565b82525050565b600081519050919050565b600082825260208201905092915050565b60005b838110156123f35780820151818401526020810190506123d8565b60008484015250505050565b6000601f19601f8301169050919050565b600061241b826123b9565b61242581856123c4565b93506124358185602086016123d5565b61243e816123ff565b840191505092915050565b60008115159050919050565b61245e81612449565b82525050565b60006101808201905061247a600083018f612369565b612487602083018e612369565b612494604083018d6123aa565b81810360608301526124a6818c612410565b905081810360808301526124ba818b612410565b905081810360a08301526124ce818a612410565b905081810360c08301526124e28189612410565b90506124f160e0830188612369565b6124ff610100830187612369565b61250d610120830186612369565b61251b610140830185612369565b612529610160830184612455565b9d9c50505050505050505050505050565b600060608201905061254f6000830186612369565b61255c6020830185612455565b6125696040830184612455565b949350505050565b600081519050919050565b600082825260208201905092915050565b6000819050602082019050919050565b6125a681612306565b82525050565b6125b581612398565b82525050565b600082825260208201905092915050565b60006125d7826123b9565b6125e181856125bb565b93506125f18185602086016123d5565b6125fa816123ff565b840191505092915050565b61260e81612449565b82525050565b60006101808301600083015161262d600086018261259d565b506020830151612640602086018261259d565b50604083015161265360408601826125ac565b506060830151848203606086015261266b82826125cc565b9150506080830151848203608086015261268582826125cc565b91505060a083015184820360a086015261269f82826125cc565b91505060c083015184820360c08601526126b982826125cc565b91505060e08301516126ce60e086018261259d565b506101008301516126e361010086018261259d565b506101208301516126f861012086018261259d565b5061014083015161270d61014086018261259d565b50610160830151612722610160860182612605565b508091505092915050565b60006127398383612614565b905092915050565b6000602082019050919050565b600061275982612571565b612763818561257c565b9350836020820285016127758561258d565b8060005b858110156127b15784840389528151612792858261272d565b945061279d83612741565b925060208a01995050600181019050612779565b50829750879550505050505092915050565b600060208201905081810360008301526127dd818461274e565b905092915050565b600080604083850312156127fc576127fb6122fc565b5b600061280a85828601612327565b925050602061281b85828601612327565b9150509250929050565b600061283082612378565b9050919050565b61284081612825565b82525050565b600060408201905061285b6000830185612837565b6128686020830184612369565b9392505050565b600081519050919050565b600082825260208201905092915050565b6000819050602082019050919050565b6128a481612825565b82525050565b60a0820160008201516128c0600085018261259d565b5060208201516128d3602085018261289b565b5060408201516128e6604085018261259d565b5060608201516128f9606085018261259d565b50608082015161290c6080850182612605565b50505050565b600061291e83836128aa565b60a08301905092915050565b6000602082019050919050565b60006129428261286f565b61294c818561287a565b93506129578361288b565b8060005b8381101561298857815161296f8882612912565b975061297a8361292a565b92505060018101905061295b565b5085935050505092915050565b600060208201905081810360008301526129af8184612937565b905092915050565b6129c081612825565b81146129cb57600080fd5b50565b6000813590506129dd816129b7565b92915050565b600080604083850312156129fa576129f96122fc565b5b6000612a08858286016129ce565b9250506020612a1985828601612327565b9150509250929050565b600060a082019050612a386000830188612369565b612a456020830187612837565b612a526040830186612369565b612a5f6060830185612369565b612a6c6080830184612455565b9695505050505050565b600080fd5b600080fd5b7f4e487b7100000000000000000000000000000000000000000000000000000000600052604160045260246000fd5b612ab8826123ff565b810181811067ffffffffffffffff82111715612ad757612ad6612a80565b5b80604052505050565b6000612aea6122f2565b9050612af68282612aaf565b919050565b600067ffffffffffffffff821115612b1657612b15612a80565b5b612b1f826123ff565b9050602081019050919050565b82818337600083830152505050565b6000612b4e612b4984612afb565b612ae0565b905082815260208101848484011115612b6a57612b69612a7b565b5b612b75848285612b2c565b509392505050565b600082601f830112612b9257612b91612a76565b5b8135612ba2848260208601612b3b565b91505092915050565b60008060008060008060c08789031215612bc857612bc76122fc565b5b600087013567ffffffffffffffff811115612be657612be5612301565b5b612bf289828a01612b7d565b965050602087013567ffffffffffffffff811115612c1357612c12612301565b5b612c1f89828a01612b7d565b955050604087013567ffffffffffffffff811115612c4057612c3f612301565b5b612c4c89828a01612b7d565b945050606087013567ffffffffffffffff811115612c6d57612c6c612301565b5b612c7989828a01612b7d565b9350506080612c8a89828a01612327565b92505060a0612c9b89828a01612327565b9150509295509295509295565b600061018083016000830151612cc1600086018261259d565b506020830151612cd4602086018261259d565b506040830151612ce760408601826125ac565b5060608301518482036060860152612cff82826125cc565b91505060808301518482036080860152612d1982826125cc565b91505060a083015184820360a0860152612d3382826125cc565b91505060c083015184820360c0860152612d4d82826125cc565b91505060e0830151612d6260e086018261259d565b50610100830151612d7761010086018261259d565b50610120830151612d8c61012086018261259d565b50610140830151612da161014086018261259d565b50610160830151612db6610160860182612605565b508091505092915050565b60006020820190508181036000830152612ddb8184612ca8565b905092915050565b7f4e487b7100000000000000000000000000000000000000000000000000000000600052602260045260246000fd5b60006002820490506001821680612e2a57607f821691505b602082108103612e3d57612e3c612de3565b5b50919050565b7f4e487b7100000000000000000000000000000000000000000000000000000000600052603260045260246000fd5b7f596f7520617265206e6f74207468652066756e64726169736572000000000000600082015250565b6000612ea8601a836123c4565b9150612eb382612e72565b602082019050919050565b60006020820190508181036000830152612ed781612e9b565b9050919050565b7f4e487b7100000000000000000000000000000000000000000000000000000000600052601260045260246000fd5b7f4e487b7100000000000000000000000000000000000000000000000000000000600052601160045260246000fd5b6000612f4782612306565b9150612f5283612306565b925082612f6257612f61612ede565b5b828204905092915050565b7f4e6f7420656e6f75676820766f746520746f2077697468647261770000000000600082015250565b6000612fa3601b836123c4565b9150612fae82612f6d565b602082019050919050565b60006020820190508181036000830152612fd281612f96565b9050919050565b6000612fe482612306565b91507fffffffffffffffffffffffffffffffffffffffffffffffffffffffffffffffff820361301657613015612f0d565b5b600182019050919050565b600061302c82612306565b915061303783612306565b925082820390508181111561304f5761304e612f0d565b5b92915050565b7f50726f6a656374206d75737420626520706f73746564206265666f726520747760008201527f6f20646179730000000000000000000000000000000000000000000000000000602082015250565b60006130b16026836123c4565b91506130bc82613055565b604082019050919050565b600060208201905081810360008301526130e0816130a4565b9050919050565b60008190508160005260206000209050919050565b60006020601f8301049050919050565b600082821b905092915050565b6000600883026131497fffffffffffffffffffffffffffffffffffffffffffffffffffffffffffffffff8261310c565b613153868361310c565b95508019841693508086168417925050509392505050565b6000819050919050565b600061319061318b61318684612306565b61316b565b612306565b9050919050565b6000819050919050565b6131aa83613175565b6131be6131b682613197565b848454613119565b825550505050565b600090565b6131d36131c6565b6131de8184846131a1565b505050565b5b81811015613202576131f76000826131cb565b6001810190506131e4565b5050565b601f82111561324757613218816130e7565b613221846130fc565b81016020851015613230578190505b61324461323c856130fc565b8301826131e3565b50505b505050565b600082821c905092915050565b600061326a6000198460080261324c565b1980831691505092915050565b60006132838383613259565b9150826002028217905092915050565b61329c826123b9565b67ffffffffffffffff8111156132b5576132b4612a80565b5b6132bf8254612e12565b6132ca828285613206565b600060209050601f8311600181146132fd57600084156132eb578287015190505b6132f58582613277565b86555061335d565b601f19841661330b866130e7565b60005b828110156133335784890151825560018201915060208501945060208101905061330e565b86831015613350578489015161334c601f891682613259565b8355505b6001600288020188555050505b505050505050565b7f4d696e696d756e20636f6e747269627574696f6e20697320302e35206574686560008201527f7200000000000000000000000000000000000000000000000000000000000000602082015250565b60006133c16021836123c4565b91506133cc82613365565b604082019050919050565b600060208201905081810360008301526133f0816133b4565b9050919050565b7f54686520676f616c20697320616368696576656420616c726561647900000000600082015250565b600061342d601c836123c4565b9150613438826133f7565b602082019050919050565b6000602082019050818103600083015261345c81613420565b9050919050565b600061346e82612306565b915061347983612306565b925082820190508082111561349157613490612f0d565b5b92915050565b7f54686520676f616c206973206e6f742061636869657665640000000000000000600082015250565b60006134cd6018836123c4565b91506134d882613497565b602082019050919050565b600060208201905081810360008301526134fc816134c0565b9050919050565b7f416c726561647920726571756573746564000000000000000000000000000000600082015250565b60006135396011836123c4565b915061354482613503565b602082019050919050565b600060208201905081810360008301526135688161352c565b905091905056fea26469706673582212204d85347cd3accf69f7c2a7aee3df6bec5c7b7a7bae071deb39f3ef84116d6d6a64736f6c63430008120033",
  "immutableReferences": {},
  "source": "// SPDX-License-Identifier: MIT\r\n\r\npragma solidity >=0.7.0 <0.9.0;\r\n\r\ncontract Etherfund {\r\n    uint256 minimuContribution = 0.5 ether; // minimum value for contribution \r\n    uint256 totalCampaigns = 0; // for creating id for campaigns (increments after inserting each campaign to array)\r\n\r\n    // Campaign structure to save data of campaign\r\n    struct Campaign {\r\n        uint256 id;\r\n        uint256 createdAt; // in timestamp\r\n        address payable fundRaiser; // address of fundraiser\r\n        string title;\r\n        string desc;\r\n        string imageURL;\r\n        string category;\r\n        uint256 amountRequired;\r\n        uint256 collectedAmount;\r\n        uint256 deadline;\r\n        uint256 noOfVoters; // total voters\r\n        bool isCompleted;\r\n    }\r\n    Campaign[] public campaigns; // to save each campaign\r\n\r\n    struct CampaignMoreDetails {\r\n        uint256 campaignId;\r\n        bool isRequestedToVote;\r\n        bool isGoalAchieved;\r\n    }\r\n    CampaignMoreDetails[] public campaignMoreDetails;\r\n\r\n    struct Contributor {\r\n        address contributor;\r\n        uint256 amountContributed;\r\n    }\r\n    mapping(uint256 => Contributor[]) public contributors; // campaign id maps contributors\r\n\r\n    struct Request {\r\n        uint256 campaignId;\r\n        address fundRaiser;\r\n        uint256 amount;\r\n        uint256 deadline;\r\n        bool isVoted;\r\n    }\r\n    mapping(address => Request[]) public requests; // msg.sender maps requests\r\n\r\n    // create a new campaign\r\n    function createCampaign(\r\n        string memory _title,\r\n        string memory _desc,\r\n        string memory _category,\r\n        string memory _imageURL,\r\n        uint256 _deadline,\r\n        uint256 _amountRequired\r\n    ) public {\r\n        uint256 twoDaysInSeconds = 2 * 24 * 60 * 60; // 2 days in seconds\r\n        require(\r\n            _deadline > (block.timestamp - twoDaysInSeconds),\r\n            \"Project must be posted before two days\"\r\n        );\r\n\r\n        Campaign memory newCampaign = Campaign(\r\n            totalCampaigns,\r\n            block.timestamp, // timestamp when the new block is created\r\n            payable(msg.sender), // address of fundraiser is converting to payable for withdrawl in future\r\n            _title,\r\n            _desc,\r\n            _imageURL,\r\n            _category,\r\n            _amountRequired,\r\n            0, // collected amount initially 0\r\n            _deadline,\r\n            0, // no of voters initially 0,\r\n            false // campaign completed is initially false\r\n        );\r\n\r\n        campaigns.push(newCampaign); // push newly created campaign to array\r\n\r\n        CampaignMoreDetails memory newCampaignMoreDetails = CampaignMoreDetails(\r\n            totalCampaigns,\r\n            false, // is the campaign requested to vote\r\n            false // is the campaign achieved the goal\r\n        );\r\n\r\n        campaignMoreDetails.push(newCampaignMoreDetails);\r\n\r\n        totalCampaigns++; // increment no of campaigns\r\n    }\r\n\r\n    // contribute ether\r\n    function contribute(uint256 campaignId) public payable {\r\n        require(\r\n            msg.value >= minimuContribution,\r\n            \"Minimun contribution is 0.5 ether\"\r\n        );\r\n        require(\r\n            campaignMoreDetails[campaignId].isGoalAchieved == false,\r\n            \"The goal is achieved already\"\r\n        );\r\n\r\n        // incrementing collected amount of campaingn\r\n        campaigns[campaignId].collectedAmount += msg.value;\r\n        bool newContributer = true;\r\n        Contributor[] storage contributorsList = contributors[campaignId];\r\n\r\n        for (uint256 i = 0; i < contributorsList.length; i++) {\r\n            if (contributorsList[i].contributor == msg.sender) {\r\n                // increment contributed amount of a person for 2nd contribution\r\n                contributorsList[i].amountContributed += msg.value;\r\n                newContributer = false;\r\n                break;\r\n            }\r\n        }\r\n        if (newContributer) {\r\n            // creating new contributor\r\n            Contributor memory contributor = Contributor({\r\n                contributor: msg.sender,\r\n                amountContributed: msg.value\r\n            });\r\n            contributorsList.push(contributor);\r\n        }\r\n\r\n        if (\r\n            campaigns[campaignId].collectedAmount >=\r\n            campaigns[campaignId].amountRequired\r\n        ) {\r\n            campaignMoreDetails[campaignId].isGoalAchieved = true;\r\n        }\r\n    }\r\n\r\n    // Request to vote\r\n    function requestVote(uint256 _campaignId) public {\r\n        require(\r\n            campaigns[_campaignId].fundRaiser == msg.sender,\r\n            \"You are not the fundraiser\"\r\n        );\r\n        require(\r\n            campaigns[_campaignId].collectedAmount >=\r\n                campaigns[_campaignId].amountRequired,\r\n            \"The goal is not achieved\"\r\n        );\r\n        require(\r\n            campaignMoreDetails[_campaignId].isRequestedToVote = true,\r\n            \"Already requested\"\r\n        );\r\n\r\n        Contributor[] storage contributorsList = contributors[_campaignId]; // get all contributors\r\n        for (uint256 i = 0; i < contributorsList.length; i++) {\r\n            Request memory newRequest = Request(\r\n                _campaignId,\r\n                msg.sender,\r\n                contributorsList[i].amountContributed,\r\n                campaigns[_campaignId].deadline,\r\n                false // initially voted is false\r\n            );\r\n            requests[contributorsList[i].contributor].push(newRequest);\r\n        }\r\n\r\n        campaignMoreDetails[_campaignId].isRequestedToVote = true;\r\n    }\r\n\r\n    // vote for a campaign\r\n    function voteForCampaign(uint256 campaignId) public {\r\n        Request[] storage requestList = requests[msg.sender];\r\n\r\n        for (uint256 i = 0; i < requestList.length; i++) {\r\n            if (\r\n                requestList[i].campaignId == campaignId &&\r\n                requestList[i].isVoted == false\r\n            ) {\r\n                requestList[i].isVoted = true;\r\n                campaigns[campaignId].noOfVoters++;\r\n            }\r\n        }\r\n    }\r\n\r\n    // withdraw after voted half of the contributors\r\n    function withdrawEther(uint256 campaignId) public {\r\n        require(\r\n            msg.sender == campaigns[campaignId].fundRaiser,\r\n            \"You are not the fundraiser\"\r\n        );\r\n        require(\r\n            campaigns[campaignId].noOfVoters >\r\n                (contributors[campaignId].length / 2),\r\n            \"Not enough vote to withdraw\"\r\n        );\r\n\r\n        campaigns[campaignId].fundRaiser.transfer(\r\n            campaigns[campaignId].amountRequired\r\n        );\r\n\r\n        campaigns[campaignId].isCompleted = true;\r\n    }\r\n\r\n    // get all incompleted campaigns\r\n    function getIncompleteCampaigns() public view returns (Campaign[] memory) {\r\n        uint256 count = 0; // total count of incomplete campaigns\r\n        for (uint256 i = 0; i < campaigns.length; i++) {\r\n            if (!campaigns[i].isCompleted) {\r\n                count++;\r\n            }\r\n        }\r\n\r\n        Campaign[] memory result = new Campaign[](count); // create an instance of Campaign with size count\r\n        uint256 j = 0;\r\n        for (uint256 i = 0; i < campaigns.length; i++) {\r\n            if (!campaigns[i].isCompleted) {\r\n                result[j] = campaigns[i];\r\n                j++;\r\n            }\r\n        }\r\n        return result;\r\n    }\r\n\r\n    // get all campaigns created by a user\r\n    function getMyCampaigns() public view returns (Campaign[] memory) {\r\n        // get count of campaigns created by user(msg.sender)\r\n        uint256 count = 0;\r\n        for (uint256 i = 0; i < campaigns.length; i++)\r\n            if (campaigns[i].fundRaiser == msg.sender) count++;\r\n\r\n        Campaign[] memory myCampaigns = new Campaign[](count);\r\n        uint256 j = 0;\r\n        for (uint256 i = 0; i < count; i++) {\r\n            if (campaigns[i].fundRaiser == msg.sender) {\r\n                myCampaigns[j] = campaigns[i];\r\n                j++;\r\n            }\r\n        }\r\n        return myCampaigns;\r\n    }\r\n\r\n    // get all requests\r\n    function getMyRequests() public view returns (Request[] memory) {\r\n        return requests[msg.sender];\r\n    }\r\n\r\n    // get details about a campaign with campaignId\r\n    function getCampaignDetails(uint256 _campaignId)\r\n        public\r\n        view\r\n        returns (Campaign memory)\r\n    {\r\n        return campaigns[_campaignId];\r\n    }\r\n}\r\n",
  "sourcePath": "C:\\Users\\sandh\\Desktop\\cf\\client\\contracts\\Etherfund.sol",
  "compiler": {
    "name": "solc",
    "version": "0.8.18+commit.87f61d96.Emscripten.clang"
  },
  "schemaVersion": "3.4.12",
  "updatedAt": "2023-04-07T16:56:42.951Z",
  "networkType": "ethereum",
  "devdoc": {
    "kind": "dev",
    "methods": {},
    "version": 1
  },
  "userdoc": {
    "kind": "user",
    "methods": {},
    "version": 1
  }
}