{
  "contractName": "Etherfund",
  "abi": [
    {
      "inputs": [
        {
          "internalType": "uint256",
          "name": "",
          "type": "uint256"
        }
      ],
      "name": "campaignMoreDetails",
      "outputs": [
        {
          "internalType": "uint256",
          "name": "campaignId",
          "type": "uint256"
        },
        {
          "internalType": "bool",
          "name": "isRequestedToVote",
          "type": "bool"
        },
        {
          "internalType": "bool",
          "name": "isGoalAchieved",
          "type": "bool"
        }
      ],
      "stateMutability": "view",
      "type": "function",
      "constant": true
    },
    {
      "inputs": [
        {
          "internalType": "uint256",
          "name": "",
          "type": "uint256"
        }
      ],
      "name": "campaigns",
      "outputs": [
        {
          "internalType": "uint256",
          "name": "id",
          "type": "uint256"
        },
        {
          "internalType": "uint256",
          "name": "createdAt",
          "type": "uint256"
        },
        {
          "internalType": "address payable",
          "name": "fundRaiser",
          "type": "address"
        },
        {
          "internalType": "string",
          "name": "title",
          "type": "string"
        },
        {
          "internalType": "string",
          "name": "desc",
          "type": "string"
        },
        {
          "internalType": "string",
          "name": "imageURL",
          "type": "string"
        },
        {
          "internalType": "string",
          "name": "category",
          "type": "string"
        },
        {
          "internalType": "uint256",
          "name": "amountRequired",
          "type": "uint256"
        },
        {
          "internalType": "uint256",
          "name": "collectedAmount",
          "type": "uint256"
        },
        {
          "internalType": "uint256",
          "name": "deadline",
          "type": "uint256"
        },
        {
          "internalType": "uint256",
          "name": "noOfVoters",
          "type": "uint256"
        },
        {
          "internalType": "bool",
          "name": "isCompleted",
          "type": "bool"
        }
      ],
      "stateMutability": "view",
      "type": "function",
      "constant": true
    },
    {
      "inputs": [
        {
          "internalType": "uint256",
          "name": "",
          "type": "uint256"
        },
        {
          "internalType": "uint256",
          "name": "",
          "type": "uint256"
        }
      ],
      "name": "contributors",
      "outputs": [
        {
          "internalType": "address",
          "name": "contributor",
          "type": "address"
        },
        {
          "internalType": "uint256",
          "name": "amountContributed",
          "type": "uint256"
        }
      ],
      "stateMutability": "view",
      "type": "function",
      "constant": true
    },
    {
      "inputs": [
        {
          "internalType": "address",
          "name": "",
          "type": "address"
        },
        {
          "internalType": "uint256",
          "name": "",
          "type": "uint256"
        }
      ],
      "name": "requests",
      "outputs": [
        {
          "internalType": "uint256",
          "name": "campaignId",
          "type": "uint256"
        },
        {
          "internalType": "address",
          "name": "fundRaiser",
          "type": "address"
        },
        {
          "internalType": "uint256",
          "name": "amount",
          "type": "uint256"
        },
        {
          "internalType": "uint256",
          "name": "deadline",
          "type": "uint256"
        },
        {
          "internalType": "bool",
          "name": "isVoted",
          "type": "bool"
        }
      ],
      "stateMutability": "view",
      "type": "function",
      "constant": true
    },
    {
      "inputs": [
        {
          "internalType": "string",
          "name": "_title",
          "type": "string"
        },
        {
          "internalType": "string",
          "name": "_desc",
          "type": "string"
        },
        {
          "internalType": "string",
          "name": "_category",
          "type": "string"
        },
        {
          "internalType": "string",
          "name": "_imageURL",
          "type": "string"
        },
        {
          "internalType": "uint256",
          "name": "_deadline",
          "type": "uint256"
        },
        {
          "internalType": "uint256",
          "name": "_amountRequired",
          "type": "uint256"
        }
      ],
      "name": "createCampaign",
      "outputs": [],
      "stateMutability": "nonpayable",
      "type": "function"
    },
    {
      "inputs": [
        {
          "internalType": "uint256",
          "name": "campaignId",
          "type": "uint256"
        }
      ],
      "name": "contribute",
      "outputs": [],
      "stateMutability": "payable",
      "type": "function",
      "payable": true
    },
    {
      "inputs": [
        {
          "internalType": "uint256",
          "name": "_campaignId",
          "type": "uint256"
        }
      ],
      "name": "requestVote",
      "outputs": [],
      "stateMutability": "nonpayable",
      "type": "function"
    },
    {
      "inputs": [
        {
          "internalType": "uint256",
          "name": "campaignId",
          "type": "uint256"
        }
      ],
      "name": "voteForCampaign",
      "outputs": [],
      "stateMutability": "nonpayable",
      "type": "function"
    },
    {
      "inputs": [
        {
          "internalType": "uint256",
          "name": "campaignId",
          "type": "uint256"
        }
      ],
      "name": "withdrawEther",
      "outputs": [],
      "stateMutability": "nonpayable",
      "type": "function"
    },
    {
      "inputs": [],
      "name": "getIncompleteCampaigns",
      "outputs": [
        {
          "components": [
            {
              "internalType": "uint256",
              "name": "id",
              "type": "uint256"
            },
            {
              "internalType": "uint256",
              "name": "createdAt",
              "type": "uint256"
            },
            {
              "internalType": "address payable",
              "name": "fundRaiser",
              "type": "address"
            },
            {
              "internalType": "string",
              "name": "title",
              "type": "string"
            },
            {
              "internalType": "string",
              "name": "desc",
              "type": "string"
            },
            {
              "internalType": "string",
              "name": "imageURL",
              "type": "string"
            },
            {
              "internalType": "string",
              "name": "category",
              "type": "string"
            },
            {
              "internalType": "uint256",
              "name": "amountRequired",
              "type": "uint256"
            },
            {
              "internalType": "uint256",
              "name": "collectedAmount",
              "type": "uint256"
            },
            {
              "internalType": "uint256",
              "name": "deadline",
              "type": "uint256"
            },
            {
              "internalType": "uint256",
              "name": "noOfVoters",
              "type": "uint256"
            },
            {
              "internalType": "bool",
              "name": "isCompleted",
              "type": "bool"
            }
          ],
          "internalType": "struct Etherfund.Campaign[]",
          "name": "",
          "type": "tuple[]"
        }
      ],
      "stateMutability": "view",
      "type": "function",
      "constant": true
    },
    {
      "inputs": [],
      "name": "getMyCampaigns",
      "outputs": [
        {
          "components": [
            {
              "internalType": "uint256",
              "name": "id",
              "type": "uint256"
            },
            {
              "internalType": "uint256",
              "name": "createdAt",
              "type": "uint256"
            },
            {
              "internalType": "address payable",
              "name": "fundRaiser",
              "type": "address"
            },
            {
              "internalType": "string",
              "name": "title",
              "type": "string"
            },
            {
              "internalType": "string",
              "name": "desc",
              "type": "string"
            },
            {
              "internalType": "string",
              "name": "imageURL",
              "type": "string"
            },
            {
              "internalType": "string",
              "name": "category",
              "type": "string"
            },
            {
              "internalType": "uint256",
              "name": "amountRequired",
              "type": "uint256"
            },
            {
              "internalType": "uint256",
              "name": "collectedAmount",
              "type": "uint256"
            },
            {
              "internalType": "uint256",
              "name": "deadline",
              "type": "uint256"
            },
            {
              "internalType": "uint256",
              "name": "noOfVoters",
              "type": "uint256"
            },
            {
              "internalType": "bool",
              "name": "isCompleted",
              "type": "bool"
            }
          ],
          "internalType": "struct Etherfund.Campaign[]",
          "name": "",
          "type": "tuple[]"
        }
      ],
      "stateMutability": "view",
      "type": "function",
      "constant": true
    },
    {
      "inputs": [],
      "name": "getMyRequests",
      "outputs": [
        {
          "components": [
            {
              "internalType": "uint256",
              "name": "campaignId",
              "type": "uint256"
            },
            {
              "internalType": "address",
              "name": "fundRaiser",
              "type": "address"
            },
            {
              "internalType": "uint256",
              "name": "amount",
              "type": "uint256"
            },
            {
              "internalType": "uint256",
              "name": "deadline",
              "type": "uint256"
            },
            {
              "internalType": "bool",
              "name": "isVoted",
              "type": "bool"
            }
          ],
          "internalType": "struct Etherfund.Request[]",
          "name": "",
          "type": "tuple[]"
        }
      ],
      "stateMutability": "view",
      "type": "function",
      "constant": true
    },
    {
      "inputs": [
        {
          "internalType": "uint256",
          "name": "_campaignId",
          "type": "uint256"
        }
      ],
      "name": "getCampaignDetails",
      "outputs": [
        {
          "components": [
            {
              "internalType": "uint256",
              "name": "id",
              "type": "uint256"
            },
            {
              "internalType": "uint256",
              "name": "createdAt",
              "type": "uint256"
            },
            {
              "internalType": "address payable",
              "name": "fundRaiser",
              "type": "address"
            },
            {
              "internalType": "string",
              "name": "title",
              "type": "string"
            },
            {
              "internalType": "string",
              "name": "desc",
              "type": "string"
            },
            {
              "internalType": "string",
              "name": "imageURL",
              "type": "string"
            },
            {
              "internalType": "string",
              "name": "category",
              "type": "string"
            },
            {
              "internalType": "uint256",
              "name": "amountRequired",
              "type": "uint256"
            },
            {
              "internalType": "uint256",
              "name": "collectedAmount",
              "type": "uint256"
            },
            {
              "internalType": "uint256",
              "name": "deadline",
              "type": "uint256"
            },
            {
              "internalType": "uint256",
              "name": "noOfVoters",
              "type": "uint256"
            },
            {
              "internalType": "bool",
              "name": "isCompleted",
              "type": "bool"
            }
          ],
          "internalType": "struct Etherfund.Campaign",
          "name": "",
          "type": "tuple"
        }
      ],
      "stateMutability": "view",
      "type": "function",
      "constant": true
    }
  ],
  "bytecode": "0x60806040526706f05b59d3b20000600055600060015534801561002157600080fd5b506135a6806100316000396000f3fe6080604052600436106100c25760003560e01c806391eace8b1161007f578063bcb94fb911610059578063bcb94fb9146102a0578063c1cbbca7146102c9578063c956ad63146102e5578063d993de621461030e576100c2565b806391eace8b1461020b5780639ecebe2a14610236578063a8aee94014610277576100c2565b8063141961bc146100c75780633276f36f1461010f5780633bed33ce1461014e57806342b90fc81461017757806354346b66146101a257806382bea0ca146101e0575b600080fd5b3480156100d357600080fd5b506100ee60048036038101906100e9919061233d565b61034b565b6040516101069c9b9a99989796959493929190612465565b60405180910390f35b34801561011b57600080fd5b506101366004803603810190610131919061233d565b610608565b6040516101459392919061253b565b60405180910390f35b34801561015a57600080fd5b506101756004803603810190610170919061233d565b61065c565b005b34801561018357600080fd5b5061018c61088b565b60405161019991906127c4565b60405180910390f35b3480156101ae57600080fd5b506101c960048036038101906101c491906127e6565b610d05565b6040516101d7929190612847565b60405180910390f35b3480156101ec57600080fd5b506101f5610d66565b60405161020291906127c4565b60405180910390f35b34801561021757600080fd5b5061022061125d565b60405161022d9190612996565b60405180910390f35b34801561024257600080fd5b5061025d600480360381019061025891906129e4565b611388565b60405161026e959493929190612a24565b60405180910390f35b34801561028357600080fd5b5061029e60048036038101906102999190612bac565b611408565b005b3480156102ac57600080fd5b506102c760048036038101906102c2919061233d565b6116bf565b005b6102e360048036038101906102de919061233d565b61180f565b005b3480156102f157600080fd5b5061030c6004803603810190610307919061233d565b611b4e565b005b34801561031a57600080fd5b506103356004803603810190610330919061233d565b611f48565b6040516103429190612dc2565b60405180910390f35b6002818154811061035b57600080fd5b90600052602060002090600c02016000915090508060000154908060010154908060020160009054906101000a900473ffffffffffffffffffffffffffffffffffffffff16908060030180546103b090612e13565b80601f01602080910402602001604051908101604052809291908181526020018280546103dc90612e13565b80156104295780601f106103fe57610100808354040283529160200191610429565b820191906000526020600020905b81548152906001019060200180831161040c57829003601f168201915b50505050509080600401805461043e90612e13565b80601f016020809104026020016040519081016040528092919081815260200182805461046a90612e13565b80156104b75780601f1061048c576101008083540402835291602001916104b7565b820191906000526020600020905b81548152906001019060200180831161049a57829003601f168201915b5050505050908060050180546104cc90612e13565b80601f01602080910402602001604051908101604052809291908181526020018280546104f890612e13565b80156105455780601f1061051a57610100808354040283529160200191610545565b820191906000526020600020905b81548152906001019060200180831161052857829003601f168201915b50505050509080600601805461055a90612e13565b80601f016020809104026020016040519081016040528092919081815260200182805461058690612e13565b80156105d35780601f106105a8576101008083540402835291602001916105d3565b820191906000526020600020905b8154815290600101906020018083116105b657829003601f168201915b50505050509080600701549080600801549080600901549080600a01549080600b0160009054906101000a900460ff1690508c565b6003818154811061061857600080fd5b90600052602060002090600202016000915090508060000154908060010160009054906101000a900460ff16908060010160019054906101000a900460ff16905083565b600281815481106106705761066f612e44565b5b90600052602060002090600c020160020160009054906101000a900473ffffffffffffffffffffffffffffffffffffffff1673ffffffffffffffffffffffffffffffffffffffff163373ffffffffffffffffffffffffffffffffffffffff161461070f576040517f08c379a000000000000000000000000000000000000000000000000000000000815260040161070690612ebf565b60405180910390fd5b600260046000838152602001908152602001600020805490506107329190612f3d565b6002828154811061074657610745612e44565b5b90600052602060002090600c0201600a01541015610799576040517f08c379a000000000000000000000000000000000000000000000000000000000815260040161079090612fba565b60405180910390fd5b600281815481106107ad576107ac612e44565b5b90600052602060002090600c020160020160009054906101000a900473ffffffffffffffffffffffffffffffffffffffff1673ffffffffffffffffffffffffffffffffffffffff166108fc6002838154811061080c5761080b612e44565b5b90600052602060002090600c0201600701549081150290604051600060405180830381858888f19350505050158015610849573d6000803e3d6000fd5b506001600282815481106108605761085f612e44565b5b90600052602060002090600c0201600b0160006101000a81548160ff02191690831515021790555050565b60606000805b6002805490508110156108f757600281815481106108b2576108b1612e44565b5b90600052602060002090600c0201600b0160009054906101000a900460ff166108e45781806108e090612fda565b9250505b80806108ef90612fda565b915050610891565b5060008167ffffffffffffffff81111561091457610913612a81565b5b60405190808252806020026020018201604052801561094d57816020015b61093a61227a565b8152602001906001900390816109325790505b5090506000805b600280549050811015610cfb576002818154811061097557610974612e44565b5b90600052602060002090600c0201600b0160009054906101000a900460ff16610ce857600281815481106109ac576109ab612e44565b5b90600052602060002090600c02016040518061018001604052908160008201548152602001600182015481526020016002820160009054906101000a900473ffffffffffffffffffffffffffffffffffffffff1673ffffffffffffffffffffffffffffffffffffffff1673ffffffffffffffffffffffffffffffffffffffff168152602001600382018054610a4090612e13565b80601f0160208091040260200160405190810160405280929190818152602001828054610a6c90612e13565b8015610ab95780601f10610a8e57610100808354040283529160200191610ab9565b820191906000526020600020905b815481529060010190602001808311610a9c57829003601f168201915b50505050508152602001600482018054610ad290612e13565b80601f0160208091040260200160405190810160405280929190818152602001828054610afe90612e13565b8015610b4b5780601f10610b2057610100808354040283529160200191610b4b565b820191906000526020600020905b815481529060010190602001808311610b2e57829003601f168201915b50505050508152602001600582018054610b6490612e13565b80601f0160208091040260200160405190810160405280929190818152602001828054610b9090612e13565b8015610bdd5780601f10610bb257610100808354040283529160200191610bdd565b820191906000526020600020905b815481529060010190602001808311610bc057829003601f168201915b50505050508152602001600682018054610bf690612e13565b80601f0160208091040260200160405190810160405280929190818152602001828054610c2290612e13565b8015610c6f5780601f10610c4457610100808354040283529160200191610c6f565b820191906000526020600020905b815481529060010190602001808311610c5257829003601f168201915b50505050508152602001600782015481526020016008820154815260200160098201548152602001600a8201548152602001600b820160009054906101000a900460ff161515151581525050838381518110610cce57610ccd612e44565b5b60200260200101819052508180610ce490612fda565b9250505b8080610cf390612fda565b915050610954565b5081935050505090565b60046020528160005260406000208181548110610d2157600080fd5b9060005260206000209060020201600091509150508060000160009054906101000a900473ffffffffffffffffffffffffffffffffffffffff16908060010154905082565b60606000805b600280549050811015610e13573373ffffffffffffffffffffffffffffffffffffffff1660028281548110610da457610da3612e44565b5b90600052602060002090600c020160020160009054906101000a900473ffffffffffffffffffffffffffffffffffffffff1673ffffffffffffffffffffffffffffffffffffffff1603610e00578180610dfc90612fda565b9250505b8080610e0b90612fda565b915050610d6c565b5060008167ffffffffffffffff811115610e3057610e2f612a81565b5b604051908082528060200260200182016040528015610e6957816020015b610e5661227a565b815260200190600190039081610e4e5790505b5090506000805b83811015611253573373ffffffffffffffffffffffffffffffffffffffff1660028281548110610ea357610ea2612e44565b5b90600052602060002090600c020160020160009054906101000a900473ffffffffffffffffffffffffffffffffffffffff1673ffffffffffffffffffffffffffffffffffffffff16036112405760028181548110610f0457610f03612e44565b5b90600052602060002090600c02016040518061018001604052908160008201548152602001600182015481526020016002820160009054906101000a900473ffffffffffffffffffffffffffffffffffffffff1673ffffffffffffffffffffffffffffffffffffffff1673ffffffffffffffffffffffffffffffffffffffff168152602001600382018054610f9890612e13565b80601f0160208091040260200160405190810160405280929190818152602001828054610fc490612e13565b80156110115780601f10610fe657610100808354040283529160200191611011565b820191906000526020600020905b815481529060010190602001808311610ff457829003601f168201915b5050505050815260200160048201805461102a90612e13565b80601f016020809104026020016040519081016040528092919081815260200182805461105690612e13565b80156110a35780601f10611078576101008083540402835291602001916110a3565b820191906000526020600020905b81548152906001019060200180831161108657829003601f168201915b505050505081526020016005820180546110bc90612e13565b80601f01602080910402602001604051908101604052809291908181526020018280546110e890612e13565b80156111355780601f1061110a57610100808354040283529160200191611135565b820191906000526020600020905b81548152906001019060200180831161111857829003601f168201915b5050505050815260200160068201805461114e90612e13565b80601f016020809104026020016040519081016040528092919081815260200182805461117a90612e13565b80156111c75780601f1061119c576101008083540402835291602001916111c7565b820191906000526020600020905b8154815290600101906020018083116111aa57829003601f168201915b50505050508152602001600782015481526020016008820154815260200160098201548152602001600a8201548152602001600b820160009054906101000a900460ff16151515158152505083838151811061122657611225612e44565b5b6020026020010181905250818061123c90612fda565b9250505b808061124b90612fda565b915050610e70565b5081935050505090565b6060600560003373ffffffffffffffffffffffffffffffffffffffff1673ffffffffffffffffffffffffffffffffffffffff168152602001908152602001600020805480602002602001604051908101604052809291908181526020016000905b8282101561137f57838290600052602060002090600502016040518060a0016040529081600082015481526020016001820160009054906101000a900473ffffffffffffffffffffffffffffffffffffffff1673ffffffffffffffffffffffffffffffffffffffff1673ffffffffffffffffffffffffffffffffffffffff16815260200160028201548152602001600382015481526020016004820160009054906101000a900460ff161515151581525050815260200190600101906112be565b50505050905090565b600560205281600052604060002081815481106113a457600080fd5b9060005260206000209060050201600091509150508060000154908060010160009054906101000a900473ffffffffffffffffffffffffffffffffffffffff16908060020154908060030154908060040160009054906101000a900460ff16905085565b60006202a3009050804261141c9190613022565b831161145d576040517f08c379a0000000000000000000000000000000000000000000000000000000008152600401611454906130c8565b60405180910390fd5b600060405180610180016040528060015481526020014281526020013373ffffffffffffffffffffffffffffffffffffffff168152602001898152602001888152602001868152602001878152602001848152602001600081526020018581526020016000815260200160001515815250905060028190806001815401808255809150506001900390600052602060002090600c0201600090919091909150600082015181600001556020820151816001015560408201518160020160006101000a81548173ffffffffffffffffffffffffffffffffffffffff021916908373ffffffffffffffffffffffffffffffffffffffff160217905550606082015181600301908161156c9190613294565b5060808201518160040190816115829190613294565b5060a08201518160050190816115989190613294565b5060c08201518160060190816115ae9190613294565b5060e082015181600701556101008201518160080155610120820151816009015561014082015181600a015561016082015181600b0160006101000a81548160ff021916908315150217905550505060006040518060600160405280600154815260200160001515815260200160001515815250905060038190806001815401808255809150506001900390600052602060002090600202016000909190919091506000820151816000015560208201518160010160006101000a81548160ff02191690831515021790555060408201518160010160016101000a81548160ff0219169083151502179055505050600160008154809291906116af90612fda565b9190505550505050505050505050565b6000600560003373ffffffffffffffffffffffffffffffffffffffff1673ffffffffffffffffffffffffffffffffffffffff168152602001908152602001600020905060005b818054905081101561180a578282828154811061172557611724612e44565b5b90600052602060002090600502016000015414801561177957506000151582828154811061175657611755612e44565b5b906000526020600020906005020160040160009054906101000a900460ff161515145b156117f757600182828154811061179357611792612e44565b5b906000526020600020906005020160040160006101000a81548160ff021916908315150217905550600283815481106117cf576117ce612e44565b5b90600052602060002090600c0201600a0160008154809291906117f190612fda565b91905055505b808061180290612fda565b915050611705565b505050565b600054341015611854576040517f08c379a000000000000000000000000000000000000000000000000000000000815260040161184b906133d8565b60405180910390fd5b600015156003828154811061186c5761186b612e44565b5b906000526020600020906002020160010160019054906101000a900460ff161515146118cd576040517f08c379a00000000000000000000000000000000000000000000000000000000081526004016118c490613444565b60405180910390fd5b34600282815481106118e2576118e1612e44565b5b90600052602060002090600c020160080160008282546119029190613464565b92505081905550600060019050600060046000848152602001908152602001600020905060005b8180549050811015611a03573373ffffffffffffffffffffffffffffffffffffffff1682828154811061195f5761195e612e44565b5b906000526020600020906002020160000160009054906101000a900473ffffffffffffffffffffffffffffffffffffffff1673ffffffffffffffffffffffffffffffffffffffff16036119f057348282815481106119c0576119bf612e44565b5b906000526020600020906002020160010160008282546119e09190613464565b9250508190555060009250611a03565b80806119fb90612fda565b915050611929565b508115611ab957600060405180604001604052803373ffffffffffffffffffffffffffffffffffffffff1681526020013481525090508181908060018154018082558091505060019003906000526020600020906002020160009091909190915060008201518160000160006101000a81548173ffffffffffffffffffffffffffffffffffffffff021916908373ffffffffffffffffffffffffffffffffffffffff160217905550602082015181600101555050505b60028381548110611acd57611acc612e44565b5b90600052602060002090600c02016007015460028481548110611af357611af2612e44565b5b90600052602060002090600c02016008015410611b4957600160038481548110611b2057611b1f612e44565b5b906000526020600020906002020160010160016101000a81548160ff0219169083151502179055505b505050565b3373ffffffffffffffffffffffffffffffffffffffff1660028281548110611b7957611b78612e44565b5b90600052602060002090600c020160020160009054906101000a900473ffffffffffffffffffffffffffffffffffffffff1673ffffffffffffffffffffffffffffffffffffffff1614611c01576040517f08c379a0000000000000000000000000000000000000000000000000000000008152600401611bf890612ebf565b60405180910390fd5b60028181548110611c1557611c14612e44565b5b90600052602060002090600c02016007015460028281548110611c3b57611c3a612e44565b5b90600052602060002090600c0201600801541015611c8e576040517f08c379a0000000000000000000000000000000000000000000000000000000008152600401611c85906134e4565b60405180910390fd5b600160038281548110611ca457611ca3612e44565b5b906000526020600020906002020160010160006101000a81548160ff0219169083151502179055611d0a576040517f08c379a0000000000000000000000000000000000000000000000000000000008152600401611d0190613550565b60405180910390fd5b600060046000838152602001908152602001600020905060005b8180549050811015611f055760006040518060a001604052808581526020013373ffffffffffffffffffffffffffffffffffffffff168152602001848481548110611d7257611d71612e44565b5b906000526020600020906002020160010154815260200160028681548110611d9d57611d9c612e44565b5b90600052602060002090600c020160090154815260200160001515815250905060056000848481548110611dd457611dd3612e44565b5b906000526020600020906002020160000160009054906101000a900473ffffffffffffffffffffffffffffffffffffffff1673ffffffffffffffffffffffffffffffffffffffff1673ffffffffffffffffffffffffffffffffffffffff1681526020019081526020016000208190806001815401808255809150506001900390600052602060002090600502016000909190919091506000820151816000015560208201518160010160006101000a81548173ffffffffffffffffffffffffffffffffffffffff021916908373ffffffffffffffffffffffffffffffffffffffff160217905550604082015181600201556060820151816003015560808201518160040160006101000a81548160ff0219169083151502179055505050508080611efd90612fda565b915050611d24565b50600160038381548110611f1c57611f1b612e44565b5b906000526020600020906002020160010160006101000a81548160ff0219169083151502179055505050565b611f5061227a565b60028281548110611f6457611f63612e44565b5b90600052602060002090600c02016040518061018001604052908160008201548152602001600182015481526020016002820160009054906101000a900473ffffffffffffffffffffffffffffffffffffffff1673ffffffffffffffffffffffffffffffffffffffff1673ffffffffffffffffffffffffffffffffffffffff168152602001600382018054611ff890612e13565b80601f016020809104026020016040519081016040528092919081815260200182805461202490612e13565b80156120715780601f1061204657610100808354040283529160200191612071565b820191906000526020600020905b81548152906001019060200180831161205457829003601f168201915b5050505050815260200160048201805461208a90612e13565b80601f01602080910402602001604051908101604052809291908181526020018280546120b690612e13565b80156121035780601f106120d857610100808354040283529160200191612103565b820191906000526020600020905b8154815290600101906020018083116120e657829003601f168201915b5050505050815260200160058201805461211c90612e13565b80601f016020809104026020016040519081016040528092919081815260200182805461214890612e13565b80156121955780601f1061216a57610100808354040283529160200191612195565b820191906000526020600020905b81548152906001019060200180831161217857829003601f168201915b505050505081526020016006820180546121ae90612e13565b80601f01602080910402602001604051908101604052809291908181526020018280546121da90612e13565b80156122275780601f106121fc57610100808354040283529160200191612227565b820191906000526020600020905b81548152906001019060200180831161220a57829003601f168201915b50505050508152602001600782015481526020016008820154815260200160098201548152602001600a8201548152602001600b820160009054906101000a900460ff1615151515815250509050919050565b6040518061018001604052806000815260200160008152602001600073ffffffffffffffffffffffffffffffffffffffff16815260200160608152602001606081526020016060815260200160608152602001600081526020016000815260200160008152602001600081526020016000151581525090565b6000604051905090565b600080fd5b600080fd5b6000819050919050565b61231a81612307565b811461232557600080fd5b50565b60008135905061233781612311565b92915050565b600060208284031215612353576123526122fd565b5b600061236184828501612328565b91505092915050565b61237381612307565b82525050565b600073ffffffffffffffffffffffffffffffffffffffff82169050919050565b60006123a482612379565b9050919050565b6123b481612399565b82525050565b600081519050919050565b600082825260208201905092915050565b60005b838110156123f45780820151818401526020810190506123d9565b60008484015250505050565b6000601f19601f8301169050919050565b600061241c826123ba565b61242681856123c5565b93506124368185602086016123d6565b61243f81612400565b840191505092915050565b60008115159050919050565b61245f8161244a565b82525050565b60006101808201905061247b600083018f61236a565b612488602083018e61236a565b612495604083018d6123ab565b81810360608301526124a7818c612411565b905081810360808301526124bb818b612411565b905081810360a08301526124cf818a612411565b905081810360c08301526124e38189612411565b90506124f260e083018861236a565b61250061010083018761236a565b61250e61012083018661236a565b61251c61014083018561236a565b61252a610160830184612456565b9d9c50505050505050505050505050565b6000606082019050612550600083018661236a565b61255d6020830185612456565b61256a6040830184612456565b949350505050565b600081519050919050565b600082825260208201905092915050565b6000819050602082019050919050565b6125a781612307565b82525050565b6125b681612399565b82525050565b600082825260208201905092915050565b60006125d8826123ba565b6125e281856125bc565b93506125f28185602086016123d6565b6125fb81612400565b840191505092915050565b61260f8161244a565b82525050565b60006101808301600083015161262e600086018261259e565b506020830151612641602086018261259e565b50604083015161265460408601826125ad565b506060830151848203606086015261266c82826125cd565b9150506080830151848203608086015261268682826125cd565b91505060a083015184820360a08601526126a082826125cd565b91505060c083015184820360c08601526126ba82826125cd565b91505060e08301516126cf60e086018261259e565b506101008301516126e461010086018261259e565b506101208301516126f961012086018261259e565b5061014083015161270e61014086018261259e565b50610160830151612723610160860182612606565b508091505092915050565b600061273a8383612615565b905092915050565b6000602082019050919050565b600061275a82612572565b612764818561257d565b9350836020820285016127768561258e565b8060005b858110156127b25784840389528151612793858261272e565b945061279e83612742565b925060208a0199505060018101905061277a565b50829750879550505050505092915050565b600060208201905081810360008301526127de818461274f565b905092915050565b600080604083850312156127fd576127fc6122fd565b5b600061280b85828601612328565b925050602061281c85828601612328565b9150509250929050565b600061283182612379565b9050919050565b61284181612826565b82525050565b600060408201905061285c6000830185612838565b612869602083018461236a565b9392505050565b600081519050919050565b600082825260208201905092915050565b6000819050602082019050919050565b6128a581612826565b82525050565b60a0820160008201516128c1600085018261259e565b5060208201516128d4602085018261289c565b5060408201516128e7604085018261259e565b5060608201516128fa606085018261259e565b50608082015161290d6080850182612606565b50505050565b600061291f83836128ab565b60a08301905092915050565b6000602082019050919050565b600061294382612870565b61294d818561287b565b93506129588361288c565b8060005b838110156129895781516129708882612913565b975061297b8361292b565b92505060018101905061295c565b5085935050505092915050565b600060208201905081810360008301526129b08184612938565b905092915050565b6129c181612826565b81146129cc57600080fd5b50565b6000813590506129de816129b8565b92915050565b600080604083850312156129fb576129fa6122fd565b5b6000612a09858286016129cf565b9250506020612a1a85828601612328565b9150509250929050565b600060a082019050612a39600083018861236a565b612a466020830187612838565b612a53604083018661236a565b612a60606083018561236a565b612a6d6080830184612456565b9695505050505050565b600080fd5b600080fd5b7f4e487b7100000000000000000000000000000000000000000000000000000000600052604160045260246000fd5b612ab982612400565b810181811067ffffffffffffffff82111715612ad857612ad7612a81565b5b80604052505050565b6000612aeb6122f3565b9050612af78282612ab0565b919050565b600067ffffffffffffffff821115612b1757612b16612a81565b5b612b2082612400565b9050602081019050919050565b82818337600083830152505050565b6000612b4f612b4a84612afc565b612ae1565b905082815260208101848484011115612b6b57612b6a612a7c565b5b612b76848285612b2d565b509392505050565b600082601f830112612b9357612b92612a77565b5b8135612ba3848260208601612b3c565b91505092915050565b60008060008060008060c08789031215612bc957612bc86122fd565b5b600087013567ffffffffffffffff811115612be757612be6612302565b5b612bf389828a01612b7e565b965050602087013567ffffffffffffffff811115612c1457612c13612302565b5b612c2089828a01612b7e565b955050604087013567ffffffffffffffff811115612c4157612c40612302565b5b612c4d89828a01612b7e565b945050606087013567ffffffffffffffff811115612c6e57612c6d612302565b5b612c7a89828a01612b7e565b9350506080612c8b89828a01612328565b92505060a0612c9c89828a01612328565b9150509295509295509295565b600061018083016000830151612cc2600086018261259e565b506020830151612cd5602086018261259e565b506040830151612ce860408601826125ad565b5060608301518482036060860152612d0082826125cd565b91505060808301518482036080860152612d1a82826125cd565b91505060a083015184820360a0860152612d3482826125cd565b91505060c083015184820360c0860152612d4e82826125cd565b91505060e0830151612d6360e086018261259e565b50610100830151612d7861010086018261259e565b50610120830151612d8d61012086018261259e565b50610140830151612da261014086018261259e565b50610160830151612db7610160860182612606565b508091505092915050565b60006020820190508181036000830152612ddc8184612ca9565b905092915050565b7f4e487b7100000000000000000000000000000000000000000000000000000000600052602260045260246000fd5b60006002820490506001821680612e2b57607f821691505b602082108103612e3e57612e3d612de4565b5b50919050565b7f4e487b7100000000000000000000000000000000000000000000000000000000600052603260045260246000fd5b7f596f7520617265206e6f74207468652066756e64726169736572000000000000600082015250565b6000612ea9601a836123c5565b9150612eb482612e73565b602082019050919050565b60006020820190508181036000830152612ed881612e9c565b9050919050565b7f4e487b7100000000000000000000000000000000000000000000000000000000600052601260045260246000fd5b7f4e487b7100000000000000000000000000000000000000000000000000000000600052601160045260246000fd5b6000612f4882612307565b9150612f5383612307565b925082612f6357612f62612edf565b5b828204905092915050565b7f4e6f7420656e6f75676820766f746520746f2077697468647261770000000000600082015250565b6000612fa4601b836123c5565b9150612faf82612f6e565b602082019050919050565b60006020820190508181036000830152612fd381612f97565b9050919050565b6000612fe582612307565b91507fffffffffffffffffffffffffffffffffffffffffffffffffffffffffffffffff820361301757613016612f0e565b5b600182019050919050565b600061302d82612307565b915061303883612307565b92508282039050818111156130505761304f612f0e565b5b92915050565b7f50726f6a656374206d75737420626520706f73746564206265666f726520747760008201527f6f20646179730000000000000000000000000000000000000000000000000000602082015250565b60006130b26026836123c5565b91506130bd82613056565b604082019050919050565b600060208201905081810360008301526130e1816130a5565b9050919050565b60008190508160005260206000209050919050565b60006020601f8301049050919050565b600082821b905092915050565b60006008830261314a7fffffffffffffffffffffffffffffffffffffffffffffffffffffffffffffffff8261310d565b613154868361310d565b95508019841693508086168417925050509392505050565b6000819050919050565b600061319161318c61318784612307565b61316c565b612307565b9050919050565b6000819050919050565b6131ab83613176565b6131bf6131b782613198565b84845461311a565b825550505050565b600090565b6131d46131c7565b6131df8184846131a2565b505050565b5b81811015613203576131f86000826131cc565b6001810190506131e5565b5050565b601f82111561324857613219816130e8565b613222846130fd565b81016020851015613231578190505b61324561323d856130fd565b8301826131e4565b50505b505050565b600082821c905092915050565b600061326b6000198460080261324d565b1980831691505092915050565b6000613284838361325a565b9150826002028217905092915050565b61329d826123ba565b67ffffffffffffffff8111156132b6576132b5612a81565b5b6132c08254612e13565b6132cb828285613207565b600060209050601f8311600181146132fe57600084156132ec578287015190505b6132f68582613278565b86555061335e565b601f19841661330c866130e8565b60005b828110156133345784890151825560018201915060208501945060208101905061330f565b86831015613351578489015161334d601f89168261325a565b8355505b6001600288020188555050505b505050505050565b7f4d696e696d756e20636f6e747269627574696f6e20697320302e35206574686560008201527f7200000000000000000000000000000000000000000000000000000000000000602082015250565b60006133c26021836123c5565b91506133cd82613366565b604082019050919050565b600060208201905081810360008301526133f1816133b5565b9050919050565b7f54686520676f616c20697320616368696576656420616c726561647900000000600082015250565b600061342e601c836123c5565b9150613439826133f8565b602082019050919050565b6000602082019050818103600083015261345d81613421565b9050919050565b600061346f82612307565b915061347a83612307565b925082820190508082111561349257613491612f0e565b5b92915050565b7f54686520676f616c206973206e6f742061636869657665640000000000000000600082015250565b60006134ce6018836123c5565b91506134d982613498565b602082019050919050565b600060208201905081810360008301526134fd816134c1565b9050919050565b7f416c726561647920726571756573746564000000000000000000000000000000600082015250565b600061353a6011836123c5565b915061354582613504565b602082019050919050565b600060208201905081810360008301526135698161352d565b905091905056fea2646970667358221220a28c330726b52e9df3a044123bcade65846df820d4b86df2b610c75c6d92e44364736f6c63430008120033",
  "immutableReferences": {},
  "source": "// SPDX-License-Identifier: MIT\r\n\r\npragma solidity >=0.7.0 <0.9.0;\r\n\r\ncontract Etherfund {\r\n    uint256 minimuContribution = 0.5 ether; // minimum value for contribution \r\n    uint256 totalCampaigns = 0; // for creating id for campaigns (increments after inserting each campaign to array)\r\n\r\n    // Campaign structure to save data of campaign\r\n    struct Campaign {\r\n        uint256 id;\r\n        uint256 createdAt; // in timestamp\r\n        address payable fundRaiser; // address of fundraiser\r\n        string title;\r\n        string desc;\r\n        string imageURL;\r\n        string category;\r\n        uint256 amountRequired;\r\n        uint256 collectedAmount;\r\n        uint256 deadline;\r\n        uint256 noOfVoters; // total voters\r\n        bool isCompleted;\r\n    }\r\n    Campaign[] public campaigns; // to save each campaign\r\n\r\n    struct CampaignMoreDetails {\r\n        uint256 campaignId;\r\n        bool isRequestedToVote;\r\n        bool isGoalAchieved;\r\n    }\r\n    CampaignMoreDetails[] public campaignMoreDetails;\r\n\r\n    struct Contributor {\r\n        address contributor;\r\n        uint256 amountContributed;\r\n    }\r\n    mapping(uint256 => Contributor[]) public contributors; // campaign id maps contributors\r\n\r\n    struct Request {\r\n        uint256 campaignId;\r\n        address fundRaiser;\r\n        uint256 amount;\r\n        uint256 deadline;\r\n        bool isVoted;\r\n    }\r\n    mapping(address => Request[]) public requests; // msg.sender maps requests\r\n\r\n    // create a new campaign\r\n    function createCampaign(\r\n        string memory _title,\r\n        string memory _desc,\r\n        string memory _category,\r\n        string memory _imageURL,\r\n        uint256 _deadline,\r\n        uint256 _amountRequired\r\n    ) public {\r\n        uint256 twoDaysInSeconds = 2 * 24 * 60 * 60; // 2 days in seconds\r\n        require(\r\n            _deadline > (block.timestamp - twoDaysInSeconds),\r\n            \"Project must be posted before two days\"\r\n        );\r\n\r\n        Campaign memory newCampaign = Campaign(\r\n            totalCampaigns,\r\n            block.timestamp, // timestamp when the new block is created\r\n            payable(msg.sender), // address of fundraiser is converting to payable for withdrawl in future\r\n            _title,\r\n            _desc,\r\n            _imageURL,\r\n            _category,\r\n            _amountRequired,\r\n            0, // collected amount initially 0\r\n            _deadline,\r\n            0, // no of voters initially 0,\r\n            false // campaign completed is initially false\r\n        );\r\n\r\n        campaigns.push(newCampaign); // push newly created campaign to array\r\n\r\n        CampaignMoreDetails memory newCampaignMoreDetails = CampaignMoreDetails(\r\n            totalCampaigns,\r\n            false, // is the campaign requested to vote\r\n            false // is the campaign achieved the goal\r\n        );\r\n\r\n        campaignMoreDetails.push(newCampaignMoreDetails);\r\n\r\n        totalCampaigns++; // increment no of campaigns\r\n    }\r\n\r\n    // contribute ether\r\n    function contribute(uint256 campaignId) public payable {\r\n        require(\r\n            msg.value >= minimuContribution,\r\n            \"Minimun contribution is 0.5 ether\"\r\n        );\r\n        require(\r\n            campaignMoreDetails[campaignId].isGoalAchieved == false,\r\n            \"The goal is achieved already\"\r\n        );\r\n\r\n        // incrementing collected amount of campaing\r\n        campaigns[campaignId].collectedAmount += msg.value;\r\n        bool newContributer = true;\r\n        Contributor[] storage contributorsList = contributors[campaignId];\r\n\r\n        for (uint256 i = 0; i < contributorsList.length; i++) {\r\n            if (contributorsList[i].contributor == msg.sender) {\r\n                // increment contributed amount of a person for 2nd contribution\r\n                contributorsList[i].amountContributed += msg.value;\r\n                newContributer = false;\r\n                break;\r\n            }\r\n        }\r\n        if (newContributer) {\r\n            // creating new contributor\r\n            Contributor memory contributor = Contributor({\r\n                contributor: msg.sender,\r\n                amountContributed: msg.value\r\n            });\r\n            contributorsList.push(contributor);\r\n        }\r\n\r\n        if (\r\n            campaigns[campaignId].collectedAmount >=\r\n            campaigns[campaignId].amountRequired\r\n        ) {\r\n            campaignMoreDetails[campaignId].isGoalAchieved = true;\r\n        }\r\n    }\r\n\r\n    // Request to vote\r\n    function requestVote(uint256 _campaignId) public {\r\n        require(\r\n            campaigns[_campaignId].fundRaiser == msg.sender,\r\n            \"You are not the fundraiser\"\r\n        );\r\n        require(\r\n            campaigns[_campaignId].collectedAmount >=\r\n                campaigns[_campaignId].amountRequired,\r\n            \"The goal is not achieved\"\r\n        );\r\n        require(\r\n            campaignMoreDetails[_campaignId].isRequestedToVote = true,\r\n            \"Already requested\"\r\n        );\r\n\r\n        Contributor[] storage contributorsList = contributors[_campaignId]; // get all contributors\r\n        for (uint256 i = 0; i < contributorsList.length; i++) {\r\n            Request memory newRequest = Request(\r\n                _campaignId,\r\n                msg.sender,\r\n                contributorsList[i].amountContributed,\r\n                campaigns[_campaignId].deadline,\r\n                false // initially voted is false\r\n            );\r\n            requests[contributorsList[i].contributor].push(newRequest);\r\n        }\r\n\r\n        campaignMoreDetails[_campaignId].isRequestedToVote = true;\r\n    }\r\n\r\n    // vote for a campaign\r\n    function voteForCampaign(uint256 campaignId) public {\r\n        Request[] storage requestList = requests[msg.sender];\r\n\r\n        for (uint256 i = 0; i < requestList.length; i++) {\r\n            if (\r\n                requestList[i].campaignId == campaignId &&\r\n                requestList[i].isVoted == false\r\n            ) {\r\n                requestList[i].isVoted = true;\r\n                campaigns[campaignId].noOfVoters++;\r\n            }\r\n        }\r\n    }\r\n\r\n    // withdraw after voted half of the contributors\r\n    function withdrawEther(uint256 campaignId) public {\r\n        require(\r\n            msg.sender == campaigns[campaignId].fundRaiser,\r\n            \"You are not the fundraiser\"\r\n        );\r\n        require(\r\n            campaigns[campaignId].noOfVoters >=\r\n                (contributors[campaignId].length / 2),\r\n            \"Not enough vote to withdraw\"\r\n        );\r\n\r\n        campaigns[campaignId].fundRaiser.transfer(\r\n            campaigns[campaignId].amountRequired\r\n        );\r\n\r\n        campaigns[campaignId].isCompleted = true;\r\n    }\r\n\r\n    // get all incompleted campaigns\r\n    function getIncompleteCampaigns() public view returns (Campaign[] memory) {\r\n        uint256 count = 0; // total count of incomplete campaigns\r\n        for (uint256 i = 0; i < campaigns.length; i++) {\r\n            if (!campaigns[i].isCompleted) {\r\n                count++;\r\n            }\r\n        }\r\n\r\n        Campaign[] memory result = new Campaign[](count); // create an instance of Campaign with size count\r\n        uint256 j = 0;\r\n        for (uint256 i = 0; i < campaigns.length; i++) {\r\n            if (!campaigns[i].isCompleted) {\r\n                result[j] = campaigns[i];\r\n                j++;\r\n            }\r\n        }\r\n        return result;\r\n    }\r\n\r\n    // get all campaigns created by a user\r\n    function getMyCampaigns() public view returns (Campaign[] memory) {\r\n        // get count of campaigns created by user(msg.sender)\r\n        uint256 count = 0;\r\n        for (uint256 i = 0; i < campaigns.length; i++)\r\n            if (campaigns[i].fundRaiser == msg.sender) count++;\r\n\r\n        Campaign[] memory myCampaigns = new Campaign[](count);\r\n        uint256 j = 0;\r\n        for (uint256 i = 0; i < count; i++) {\r\n            if (campaigns[i].fundRaiser == msg.sender) {\r\n                myCampaigns[j] = campaigns[i];\r\n                j++;\r\n            }\r\n        }\r\n        return myCampaigns;\r\n    }\r\n\r\n    // get all requests\r\n    function getMyRequests() public view returns (Request[] memory) {\r\n        return requests[msg.sender];\r\n    }\r\n\r\n    // get details about a campaign with campaignId\r\n    function getCampaignDetails(uint256 _campaignId)\r\n        public\r\n        view\r\n        returns (Campaign memory)\r\n    {\r\n        return campaigns[_campaignId];\r\n    }\r\n}\r\n",
  "sourcePath": "C:\\crowdfund\\crowdfund\\contracts\\Etherfund.sol",
  "compiler": {
    "name": "solc",
    "version": "0.8.18+commit.87f61d96.Emscripten.clang"
  },
  "schemaVersion": "3.4.13",
  "updatedAt": "2023-03-30T05:19:39.493Z",
  "networkType": "ethereum",
  "devdoc": {
    "kind": "dev",
    "methods": {},
    "version": 1
  },
  "userdoc": {
    "kind": "user",
    "methods": {},
    "version": 1
  }
}