{
  "contractName": "Etherfund",
  "abi": [
    {
      "inputs": [
        {
          "internalType": "uint256",
          "name": "",
          "type": "uint256"
        }
      ],
      "name": "campaigns",
      "outputs": [
        {
          "internalType": "uint256",
          "name": "id",
          "type": "uint256"
        },
        {
          "internalType": "uint256",
          "name": "createdAt",
          "type": "uint256"
        },
        {
          "internalType": "address payable",
          "name": "fundRaiser",
          "type": "address"
        },
        {
          "internalType": "string",
          "name": "title",
          "type": "string"
        },
        {
          "internalType": "string",
          "name": "desc",
          "type": "string"
        },
        {
          "internalType": "string",
          "name": "category",
          "type": "string"
        },
        {
          "internalType": "uint256",
          "name": "amountRequired",
          "type": "uint256"
        },
        {
          "internalType": "uint256",
          "name": "collectedAmount",
          "type": "uint256"
        },
        {
          "internalType": "uint256",
          "name": "deadline",
          "type": "uint256"
        },
        {
          "internalType": "uint256",
          "name": "noOfVoters",
          "type": "uint256"
        },
        {
          "internalType": "bool",
          "name": "isRequestedToVote",
          "type": "bool"
        },
        {
          "internalType": "bool",
          "name": "isCompleted",
          "type": "bool"
        }
      ],
      "stateMutability": "view",
      "type": "function",
      "constant": true
    },
    {
      "inputs": [
        {
          "internalType": "string",
          "name": "_title",
          "type": "string"
        },
        {
          "internalType": "string",
          "name": "_desc",
          "type": "string"
        },
        {
          "internalType": "string",
          "name": "_category",
          "type": "string"
        },
        {
          "internalType": "uint256",
          "name": "_deadline",
          "type": "uint256"
        },
        {
          "internalType": "uint256",
          "name": "_amountRequired",
          "type": "uint256"
        }
      ],
      "name": "createCampaign",
      "outputs": [],
      "stateMutability": "nonpayable",
      "type": "function"
    },
    {
      "inputs": [],
      "name": "getAllCampaigns",
      "outputs": [
        {
          "components": [
            {
              "internalType": "uint256",
              "name": "id",
              "type": "uint256"
            },
            {
              "internalType": "uint256",
              "name": "createdAt",
              "type": "uint256"
            },
            {
              "internalType": "address payable",
              "name": "fundRaiser",
              "type": "address"
            },
            {
              "internalType": "string",
              "name": "title",
              "type": "string"
            },
            {
              "internalType": "string",
              "name": "desc",
              "type": "string"
            },
            {
              "internalType": "string",
              "name": "category",
              "type": "string"
            },
            {
              "internalType": "uint256",
              "name": "amountRequired",
              "type": "uint256"
            },
            {
              "internalType": "uint256",
              "name": "collectedAmount",
              "type": "uint256"
            },
            {
              "internalType": "uint256",
              "name": "deadline",
              "type": "uint256"
            },
            {
              "internalType": "uint256",
              "name": "noOfVoters",
              "type": "uint256"
            },
            {
              "internalType": "bool",
              "name": "isRequestedToVote",
              "type": "bool"
            },
            {
              "internalType": "bool",
              "name": "isCompleted",
              "type": "bool"
            }
          ],
          "internalType": "struct Etherfund.Campaign[]",
          "name": "",
          "type": "tuple[]"
        }
      ],
      "stateMutability": "view",
      "type": "function",
      "constant": true
    },
    {
      "inputs": [
        {
          "internalType": "uint256",
          "name": "campaignId",
          "type": "uint256"
        }
      ],
      "name": "contribute",
      "outputs": [],
      "stateMutability": "payable",
      "type": "function",
      "payable": true
    },
    {
      "inputs": [],
      "name": "contractBalance",
      "outputs": [
        {
          "internalType": "uint256",
          "name": "",
          "type": "uint256"
        }
      ],
      "stateMutability": "view",
      "type": "function",
      "constant": true
    },
    {
      "inputs": [
        {
          "internalType": "uint256",
          "name": "_a",
          "type": "uint256"
        }
      ],
      "name": "setter",
      "outputs": [],
      "stateMutability": "nonpayable",
      "type": "function"
    },
    {
      "inputs": [],
      "name": "getter",
      "outputs": [
        {
          "internalType": "uint256",
          "name": "",
          "type": "uint256"
        }
      ],
      "stateMutability": "view",
      "type": "function",
      "constant": true
    }
  ],
  "bytecode": "0x6080604052600a6000556103e8600155600060025534801561002057600080fd5b50611368806100306000396000f3fe6080604052600436106100705760003560e01c8063980f2e661161004e578063980f2e6614610113578063993a04b71461013c578063c1cbbca714610167578063d423740b1461018357610070565b8063141961bc1461007557806386cdf604146100bd5780638b7afe2e146100e8575b600080fd5b34801561008157600080fd5b5061009c6004803603810190610097919061092b565b6101ac565b6040516100b49c9b9a99989796959493929190610a53565b60405180910390f35b3480156100c957600080fd5b506100d26103ee565b6040516100df9190610d6d565b60405180910390f35b3480156100f457600080fd5b506100fd6106cc565b60405161010a9190610d8f565b60405180910390f35b34801561011f57600080fd5b5061013a60048036038101906101359190610edf565b6106d4565b005b34801561014857600080fd5b506101516108a1565b60405161015e9190610d8f565b60405180910390f35b610181600480360381019061017c919061092b565b6108aa565b005b34801561018f57600080fd5b506101aa60048036038101906101a5919061092b565b6108d7565b005b600381815481106101bc57600080fd5b90600052602060002090600b02016000915090508060000154908060010154908060020160009054906101000a900473ffffffffffffffffffffffffffffffffffffffff169080600301805461021190610fdd565b80601f016020809104026020016040519081016040528092919081815260200182805461023d90610fdd565b801561028a5780601f1061025f5761010080835404028352916020019161028a565b820191906000526020600020905b81548152906001019060200180831161026d57829003601f168201915b50505050509080600401805461029f90610fdd565b80601f01602080910402602001604051908101604052809291908181526020018280546102cb90610fdd565b80156103185780601f106102ed57610100808354040283529160200191610318565b820191906000526020600020905b8154815290600101906020018083116102fb57829003601f168201915b50505050509080600501805461032d90610fdd565b80601f016020809104026020016040519081016040528092919081815260200182805461035990610fdd565b80156103a65780601f1061037b576101008083540402835291602001916103a6565b820191906000526020600020905b81548152906001019060200180831161038957829003601f168201915b50505050509080600601549080600701549080600801549080600901549080600a0160009054906101000a900460ff169080600a0160019054906101000a900460ff1690508c565b60606003805480602002602001604051908101604052809291908181526020016000905b828210156106c357838290600052602060002090600b02016040518061018001604052908160008201548152602001600182015481526020016002820160009054906101000a900473ffffffffffffffffffffffffffffffffffffffff1673ffffffffffffffffffffffffffffffffffffffff1673ffffffffffffffffffffffffffffffffffffffff1681526020016003820180546104b090610fdd565b80601f01602080910402602001604051908101604052809291908181526020018280546104dc90610fdd565b80156105295780601f106104fe57610100808354040283529160200191610529565b820191906000526020600020905b81548152906001019060200180831161050c57829003601f168201915b5050505050815260200160048201805461054290610fdd565b80601f016020809104026020016040519081016040528092919081815260200182805461056e90610fdd565b80156105bb5780601f10610590576101008083540402835291602001916105bb565b820191906000526020600020905b81548152906001019060200180831161059e57829003601f168201915b505050505081526020016005820180546105d490610fdd565b80601f016020809104026020016040519081016040528092919081815260200182805461060090610fdd565b801561064d5780601f106106225761010080835404028352916020019161064d565b820191906000526020600020905b81548152906001019060200180831161063057829003601f168201915b5050505050815260200160068201548152602001600782015481526020016008820154815260200160098201548152602001600a820160009054906101000a900460ff16151515158152602001600a820160019054906101000a900460ff16151515158152505081526020019060010190610412565b50505050905090565b600047905090565b600060405180610180016040528060025481526020014281526020013373ffffffffffffffffffffffffffffffffffffffff168152602001878152602001868152602001858152602001838152602001600081526020018481526020016000815260200160001515815260200160001515815250905060038190806001815401808255809150506001900390600052602060002090600b0201600090919091909150600082015181600001556020820151816001015560408201518160020160006101000a81548173ffffffffffffffffffffffffffffffffffffffff021916908373ffffffffffffffffffffffffffffffffffffffff16021790555060608201518160030190816107e691906111ba565b5060808201518160040190816107fc91906111ba565b5060a082015181600501908161081291906111ba565b5060c0820151816006015560e082015181600701556101008201518160080155610120820151816009015561014082015181600a0160006101000a81548160ff02191690831515021790555061016082015181600a0160016101000a81548160ff021916908315150217905550505060026000815480929190610894906112bb565b9190505550505050505050565b60008054905090565b34600382815481106108bf576108be611303565b5b90600052602060002090600b02016007018190555050565b8060008190555050565b6000604051905090565b600080fd5b600080fd5b6000819050919050565b610908816108f5565b811461091357600080fd5b50565b600081359050610925816108ff565b92915050565b600060208284031215610941576109406108eb565b5b600061094f84828501610916565b91505092915050565b610961816108f5565b82525050565b600073ffffffffffffffffffffffffffffffffffffffff82169050919050565b600061099282610967565b9050919050565b6109a281610987565b82525050565b600081519050919050565b600082825260208201905092915050565b60005b838110156109e25780820151818401526020810190506109c7565b60008484015250505050565b6000601f19601f8301169050919050565b6000610a0a826109a8565b610a1481856109b3565b9350610a248185602086016109c4565b610a2d816109ee565b840191505092915050565b60008115159050919050565b610a4d81610a38565b82525050565b600061018082019050610a69600083018f610958565b610a76602083018e610958565b610a83604083018d610999565b8181036060830152610a95818c6109ff565b90508181036080830152610aa9818b6109ff565b905081810360a0830152610abd818a6109ff565b9050610acc60c0830189610958565b610ad960e0830188610958565b610ae7610100830187610958565b610af5610120830186610958565b610b03610140830185610a44565b610b11610160830184610a44565b9d9c50505050505050505050505050565b600081519050919050565b600082825260208201905092915050565b6000819050602082019050919050565b610b57816108f5565b82525050565b610b6681610987565b82525050565b600082825260208201905092915050565b6000610b88826109a8565b610b928185610b6c565b9350610ba28185602086016109c4565b610bab816109ee565b840191505092915050565b610bbf81610a38565b82525050565b600061018083016000830151610bde6000860182610b4e565b506020830151610bf16020860182610b4e565b506040830151610c046040860182610b5d565b5060608301518482036060860152610c1c8282610b7d565b91505060808301518482036080860152610c368282610b7d565b91505060a083015184820360a0860152610c508282610b7d565b91505060c0830151610c6560c0860182610b4e565b5060e0830151610c7860e0860182610b4e565b50610100830151610c8d610100860182610b4e565b50610120830151610ca2610120860182610b4e565b50610140830151610cb7610140860182610bb6565b50610160830151610ccc610160860182610bb6565b508091505092915050565b6000610ce38383610bc5565b905092915050565b6000602082019050919050565b6000610d0382610b22565b610d0d8185610b2d565b935083602082028501610d1f85610b3e565b8060005b85811015610d5b5784840389528151610d3c8582610cd7565b9450610d4783610ceb565b925060208a01995050600181019050610d23565b50829750879550505050505092915050565b60006020820190508181036000830152610d878184610cf8565b905092915050565b6000602082019050610da46000830184610958565b92915050565b600080fd5b600080fd5b7f4e487b7100000000000000000000000000000000000000000000000000000000600052604160045260246000fd5b610dec826109ee565b810181811067ffffffffffffffff82111715610e0b57610e0a610db4565b5b80604052505050565b6000610e1e6108e1565b9050610e2a8282610de3565b919050565b600067ffffffffffffffff821115610e4a57610e49610db4565b5b610e53826109ee565b9050602081019050919050565b82818337600083830152505050565b6000610e82610e7d84610e2f565b610e14565b905082815260208101848484011115610e9e57610e9d610daf565b5b610ea9848285610e60565b509392505050565b600082601f830112610ec657610ec5610daa565b5b8135610ed6848260208601610e6f565b91505092915050565b600080600080600060a08688031215610efb57610efa6108eb565b5b600086013567ffffffffffffffff811115610f1957610f186108f0565b5b610f2588828901610eb1565b955050602086013567ffffffffffffffff811115610f4657610f456108f0565b5b610f5288828901610eb1565b945050604086013567ffffffffffffffff811115610f7357610f726108f0565b5b610f7f88828901610eb1565b9350506060610f9088828901610916565b9250506080610fa188828901610916565b9150509295509295909350565b7f4e487b7100000000000000000000000000000000000000000000000000000000600052602260045260246000fd5b60006002820490506001821680610ff557607f821691505b60208210810361100857611007610fae565b5b50919050565b60008190508160005260206000209050919050565b60006020601f8301049050919050565b600082821b905092915050565b6000600883026110707fffffffffffffffffffffffffffffffffffffffffffffffffffffffffffffffff82611033565b61107a8683611033565b95508019841693508086168417925050509392505050565b6000819050919050565b60006110b76110b26110ad846108f5565b611092565b6108f5565b9050919050565b6000819050919050565b6110d18361109c565b6110e56110dd826110be565b848454611040565b825550505050565b600090565b6110fa6110ed565b6111058184846110c8565b505050565b5b818110156111295761111e6000826110f2565b60018101905061110b565b5050565b601f82111561116e5761113f8161100e565b61114884611023565b81016020851015611157578190505b61116b61116385611023565b83018261110a565b50505b505050565b600082821c905092915050565b600061119160001984600802611173565b1980831691505092915050565b60006111aa8383611180565b9150826002028217905092915050565b6111c3826109a8565b67ffffffffffffffff8111156111dc576111db610db4565b5b6111e68254610fdd565b6111f182828561112d565b600060209050601f8311600181146112245760008415611212578287015190505b61121c858261119e565b865550611284565b601f1984166112328661100e565b60005b8281101561125a57848901518255600182019150602085019450602081019050611235565b868310156112775784890151611273601f891682611180565b8355505b6001600288020188555050505b505050505050565b7f4e487b7100000000000000000000000000000000000000000000000000000000600052601160045260246000fd5b60006112c6826108f5565b91507fffffffffffffffffffffffffffffffffffffffffffffffffffffffffffffffff82036112f8576112f761128c565b5b600182019050919050565b7f4e487b7100000000000000000000000000000000000000000000000000000000600052603260045260246000fdfea2646970667358221220bb41e265e8182a0834463b7f2633e7260c9c9aae7631e0cd4c87388ee827358364736f6c63430008120033",
  "immutableReferences": {},
  "source": "// SPDX-License-Identifier: MIT\r\n\r\npragma solidity >=0.7.0 <0.9.0;\r\n\r\ncontract Etherfund {\r\n    uint256 a = 10;\r\n\r\n    uint256 minimuContribution = 1000 wei; // minimum value for contribution (in wei)\r\n    uint256 totalCampaigns = 0; // for creating id for campaigns (increments after inserting each campaign to array)\r\n\r\n    // Campaign structure to save data of campaign\r\n    struct Campaign {\r\n        uint256 id;\r\n        uint256 createdAt; // in timestamp\r\n        address payable fundRaiser; // address of fundraiser\r\n        string title;\r\n        string desc;\r\n        string category;\r\n        uint256 amountRequired;\r\n        uint256 collectedAmount;\r\n        uint256 deadline;\r\n        uint256 noOfVoters; // total voters\r\n        bool isRequestedToVote; // is this campaign is requested for voting for withdrawl\r\n        bool isCompleted; // for checking the campaign is completed or not\r\n    }\r\n\r\n    Campaign[] public campaigns; // to save each campaign\r\n\r\n    // create a new campaign\r\n    function createCampaign(\r\n        string memory _title,\r\n        string memory _desc,\r\n        string memory _category,\r\n        uint256 _deadline,\r\n        uint256 _amountRequired\r\n    ) public {\r\n        Campaign memory newCampaign = Campaign(\r\n            totalCampaigns, \r\n            block.timestamp, // timestamp when the new block is created\r\n            payable(msg.sender), // address of fundraiser is converting to payable for withdrawl in future\r\n            _title,\r\n            _desc,\r\n            _category,\r\n            _amountRequired,\r\n            0, // collected amount initially 0\r\n            _deadline,\r\n            0, // no of voters initially 0\r\n            false, // requested to vote is initially false\r\n            false // completed is initially false\r\n        );\r\n\r\n        campaigns.push(newCampaign); // push newly created campaign to array\r\n        totalCampaigns++; // increment no of campaigns\r\n    }\r\n\r\n    // send all campaigns\r\n    function getAllCampaigns() public view returns (Campaign[] memory) {\r\n        return campaigns;\r\n    }\r\n\r\n    // contribute ether\r\n    function contribute(uint campaignId) payable public {\r\n        campaigns[campaignId].collectedAmount = msg.value;\r\n    }\r\n\r\n    // get contract balance\r\n    function contractBalance() public view returns(uint) {\r\n        return address(this).balance;\r\n    }\r\n\r\n    // sample\r\n    function setter(uint256 _a) public {\r\n        a = _a;\r\n    }\r\n\r\n    // sample\r\n    function getter() public view returns (uint256) {\r\n        return a;\r\n    }\r\n}\r\n",
  "sourcePath": "C:\\projects\\crowdfund-1\\contracts\\Etherfund.sol",
  "compiler": {
    "name": "solc",
    "version": "0.8.18+commit.87f61d96.Emscripten.clang"
  },
  "schemaVersion": "3.4.11",
  "updatedAt": "2023-03-21T17:33:45.903Z",
  "networkType": "ethereum",
  "devdoc": {
    "kind": "dev",
    "methods": {},
    "version": 1
  },
  "userdoc": {
    "kind": "user",
    "methods": {},
    "version": 1
  }
}