{
  "contractName": "Etherfund",
  "abi": [
    {
      "anonymous": false,
      "inputs": [
        {
          "indexed": false,
          "internalType": "uint256",
          "name": "campaignId",
          "type": "uint256"
        }
      ],
      "name": "CampaignCreated",
      "type": "event"
    },
    {
      "anonymous": false,
      "inputs": [
        {
          "indexed": false,
          "internalType": "uint256",
          "name": "campaignId",
          "type": "uint256"
        }
      ],
      "name": "CampaignRequested",
      "type": "event"
    },
    {
      "anonymous": false,
      "inputs": [
        {
          "indexed": false,
          "internalType": "uint256",
          "name": "campaignId",
          "type": "uint256"
        }
      ],
      "name": "ContributionAdded",
      "type": "event"
    },
    {
      "anonymous": false,
      "inputs": [
        {
          "indexed": false,
          "internalType": "uint256",
          "name": "campaignId",
          "type": "uint256"
        }
      ],
      "name": "Voted",
      "type": "event"
    },
    {
      "anonymous": false,
      "inputs": [
        {
          "indexed": false,
          "internalType": "uint256",
          "name": "campaignId",
          "type": "uint256"
        }
      ],
      "name": "WithdrawalSuccess",
      "type": "event"
    },
    {
      "inputs": [
        {
          "internalType": "uint256",
          "name": "",
          "type": "uint256"
        }
      ],
      "name": "campaignMoreDetails",
      "outputs": [
        {
          "internalType": "uint256",
          "name": "campaignId",
          "type": "uint256"
        },
        {
          "internalType": "bool",
          "name": "isRequestedToVote",
          "type": "bool"
        },
        {
          "internalType": "bool",
          "name": "isGoalAchieved",
          "type": "bool"
        }
      ],
      "stateMutability": "view",
      "type": "function",
      "constant": true
    },
    {
      "inputs": [
        {
          "internalType": "uint256",
          "name": "",
          "type": "uint256"
        }
      ],
      "name": "campaigns",
      "outputs": [
        {
          "internalType": "uint256",
          "name": "id",
          "type": "uint256"
        },
        {
          "internalType": "uint256",
          "name": "createdAt",
          "type": "uint256"
        },
        {
          "internalType": "address payable",
          "name": "fundRaiser",
          "type": "address"
        },
        {
          "internalType": "string",
          "name": "title",
          "type": "string"
        },
        {
          "internalType": "string",
          "name": "desc",
          "type": "string"
        },
        {
          "internalType": "string",
          "name": "imageURL",
          "type": "string"
        },
        {
          "internalType": "string",
          "name": "category",
          "type": "string"
        },
        {
          "internalType": "uint256",
          "name": "amountRequired",
          "type": "uint256"
        },
        {
          "internalType": "uint256",
          "name": "collectedAmount",
          "type": "uint256"
        },
        {
          "internalType": "uint256",
          "name": "deadline",
          "type": "uint256"
        },
        {
          "internalType": "uint256",
          "name": "noOfVoters",
          "type": "uint256"
        },
        {
          "internalType": "bool",
          "name": "isCompleted",
          "type": "bool"
        }
      ],
      "stateMutability": "view",
      "type": "function",
      "constant": true
    },
    {
      "inputs": [
        {
          "internalType": "uint256",
          "name": "",
          "type": "uint256"
        },
        {
          "internalType": "uint256",
          "name": "",
          "type": "uint256"
        }
      ],
      "name": "contributors",
      "outputs": [
        {
          "internalType": "address",
          "name": "contributor",
          "type": "address"
        },
        {
          "internalType": "uint256",
          "name": "amountContributed",
          "type": "uint256"
        }
      ],
      "stateMutability": "view",
      "type": "function",
      "constant": true
    },
    {
      "inputs": [
        {
          "internalType": "address",
          "name": "",
          "type": "address"
        },
        {
          "internalType": "uint256",
          "name": "",
          "type": "uint256"
        }
      ],
      "name": "requests",
      "outputs": [
        {
          "internalType": "uint256",
          "name": "campaignId",
          "type": "uint256"
        },
        {
          "internalType": "address",
          "name": "fundRaiser",
          "type": "address"
        },
        {
          "internalType": "uint256",
          "name": "amount",
          "type": "uint256"
        },
        {
          "internalType": "uint256",
          "name": "deadline",
          "type": "uint256"
        },
        {
          "internalType": "bool",
          "name": "isVoted",
          "type": "bool"
        }
      ],
      "stateMutability": "view",
      "type": "function",
      "constant": true
    },
    {
      "inputs": [
        {
          "internalType": "string",
          "name": "_title",
          "type": "string"
        },
        {
          "internalType": "string",
          "name": "_desc",
          "type": "string"
        },
        {
          "internalType": "string",
          "name": "_category",
          "type": "string"
        },
        {
          "internalType": "string",
          "name": "_imageURL",
          "type": "string"
        },
        {
          "internalType": "uint256",
          "name": "_deadline",
          "type": "uint256"
        },
        {
          "internalType": "uint256",
          "name": "_amountRequired",
          "type": "uint256"
        }
      ],
      "name": "createCampaign",
      "outputs": [],
      "stateMutability": "nonpayable",
      "type": "function"
    },
    {
      "inputs": [
        {
          "internalType": "uint256",
          "name": "campaignId",
          "type": "uint256"
        }
      ],
      "name": "contribute",
      "outputs": [],
      "stateMutability": "payable",
      "type": "function",
      "payable": true
    },
    {
      "inputs": [
        {
          "internalType": "uint256",
          "name": "_campaignId",
          "type": "uint256"
        }
      ],
      "name": "requestVote",
      "outputs": [],
      "stateMutability": "nonpayable",
      "type": "function"
    },
    {
      "inputs": [
        {
          "internalType": "uint256",
          "name": "campaignId",
          "type": "uint256"
        }
      ],
      "name": "voteForCampaign",
      "outputs": [],
      "stateMutability": "nonpayable",
      "type": "function"
    },
    {
      "inputs": [
        {
          "internalType": "uint256",
          "name": "campaignId",
          "type": "uint256"
        }
      ],
      "name": "withdrawEther",
      "outputs": [],
      "stateMutability": "nonpayable",
      "type": "function"
    },
    {
      "inputs": [],
      "name": "getIncompleteCampaigns",
      "outputs": [
        {
          "components": [
            {
              "internalType": "uint256",
              "name": "id",
              "type": "uint256"
            },
            {
              "internalType": "uint256",
              "name": "createdAt",
              "type": "uint256"
            },
            {
              "internalType": "address payable",
              "name": "fundRaiser",
              "type": "address"
            },
            {
              "internalType": "string",
              "name": "title",
              "type": "string"
            },
            {
              "internalType": "string",
              "name": "desc",
              "type": "string"
            },
            {
              "internalType": "string",
              "name": "imageURL",
              "type": "string"
            },
            {
              "internalType": "string",
              "name": "category",
              "type": "string"
            },
            {
              "internalType": "uint256",
              "name": "amountRequired",
              "type": "uint256"
            },
            {
              "internalType": "uint256",
              "name": "collectedAmount",
              "type": "uint256"
            },
            {
              "internalType": "uint256",
              "name": "deadline",
              "type": "uint256"
            },
            {
              "internalType": "uint256",
              "name": "noOfVoters",
              "type": "uint256"
            },
            {
              "internalType": "bool",
              "name": "isCompleted",
              "type": "bool"
            }
          ],
          "internalType": "struct Etherfund.Campaign[]",
          "name": "",
          "type": "tuple[]"
        }
      ],
      "stateMutability": "view",
      "type": "function",
      "constant": true
    },
    {
      "inputs": [],
      "name": "getMyCampaigns",
      "outputs": [
        {
          "components": [
            {
              "internalType": "uint256",
              "name": "id",
              "type": "uint256"
            },
            {
              "internalType": "uint256",
              "name": "createdAt",
              "type": "uint256"
            },
            {
              "internalType": "address payable",
              "name": "fundRaiser",
              "type": "address"
            },
            {
              "internalType": "string",
              "name": "title",
              "type": "string"
            },
            {
              "internalType": "string",
              "name": "desc",
              "type": "string"
            },
            {
              "internalType": "string",
              "name": "imageURL",
              "type": "string"
            },
            {
              "internalType": "string",
              "name": "category",
              "type": "string"
            },
            {
              "internalType": "uint256",
              "name": "amountRequired",
              "type": "uint256"
            },
            {
              "internalType": "uint256",
              "name": "collectedAmount",
              "type": "uint256"
            },
            {
              "internalType": "uint256",
              "name": "deadline",
              "type": "uint256"
            },
            {
              "internalType": "uint256",
              "name": "noOfVoters",
              "type": "uint256"
            },
            {
              "internalType": "bool",
              "name": "isCompleted",
              "type": "bool"
            }
          ],
          "internalType": "struct Etherfund.Campaign[]",
          "name": "",
          "type": "tuple[]"
        }
      ],
      "stateMutability": "view",
      "type": "function",
      "constant": true
    },
    {
      "inputs": [],
      "name": "getMyRequests",
      "outputs": [
        {
          "components": [
            {
              "internalType": "uint256",
              "name": "campaignId",
              "type": "uint256"
            },
            {
              "internalType": "address",
              "name": "fundRaiser",
              "type": "address"
            },
            {
              "internalType": "uint256",
              "name": "amount",
              "type": "uint256"
            },
            {
              "internalType": "uint256",
              "name": "deadline",
              "type": "uint256"
            },
            {
              "internalType": "bool",
              "name": "isVoted",
              "type": "bool"
            }
          ],
          "internalType": "struct Etherfund.Request[]",
          "name": "",
          "type": "tuple[]"
        }
      ],
      "stateMutability": "view",
      "type": "function",
      "constant": true
    },
    {
      "inputs": [
        {
          "internalType": "uint256",
          "name": "_campaignId",
          "type": "uint256"
        }
      ],
      "name": "getCampaignDetails",
      "outputs": [
        {
          "components": [
            {
              "internalType": "uint256",
              "name": "id",
              "type": "uint256"
            },
            {
              "internalType": "uint256",
              "name": "createdAt",
              "type": "uint256"
            },
            {
              "internalType": "address payable",
              "name": "fundRaiser",
              "type": "address"
            },
            {
              "internalType": "string",
              "name": "title",
              "type": "string"
            },
            {
              "internalType": "string",
              "name": "desc",
              "type": "string"
            },
            {
              "internalType": "string",
              "name": "imageURL",
              "type": "string"
            },
            {
              "internalType": "string",
              "name": "category",
              "type": "string"
            },
            {
              "internalType": "uint256",
              "name": "amountRequired",
              "type": "uint256"
            },
            {
              "internalType": "uint256",
              "name": "collectedAmount",
              "type": "uint256"
            },
            {
              "internalType": "uint256",
              "name": "deadline",
              "type": "uint256"
            },
            {
              "internalType": "uint256",
              "name": "noOfVoters",
              "type": "uint256"
            },
            {
              "internalType": "bool",
              "name": "isCompleted",
              "type": "bool"
            }
          ],
          "internalType": "struct Etherfund.Campaign",
          "name": "",
          "type": "tuple"
        }
      ],
      "stateMutability": "view",
      "type": "function",
      "constant": true
    },
    {
      "inputs": [
        {
          "internalType": "uint256",
          "name": "_campaignId",
          "type": "uint256"
        }
      ],
      "name": "getCampaignMoreDetails",
      "outputs": [
        {
          "components": [
            {
              "internalType": "uint256",
              "name": "campaignId",
              "type": "uint256"
            },
            {
              "internalType": "bool",
              "name": "isRequestedToVote",
              "type": "bool"
            },
            {
              "internalType": "bool",
              "name": "isGoalAchieved",
              "type": "bool"
            }
          ],
          "internalType": "struct Etherfund.CampaignMoreDetails",
          "name": "",
          "type": "tuple"
        }
      ],
      "stateMutability": "view",
      "type": "function",
      "constant": true
    },
    {
      "inputs": [
        {
          "internalType": "uint256",
          "name": "_campaignId",
          "type": "uint256"
        }
      ],
      "name": "getWithdrawStatus",
      "outputs": [
        {
          "internalType": "bool",
          "name": "",
          "type": "bool"
        }
      ],
      "stateMutability": "view",
      "type": "function",
      "constant": true
    }
  ],
  "bytecode": "0x60806040526706f05b59d3b20000600055600060015534801561002157600080fd5b506139b5806100316000396000f3fe6080604052600436106100e85760003560e01c806391eace8b1161008a578063bf80627111610059578063bf8062711461032c578063c1cbbca714610369578063c956ad6314610385578063d993de62146103ae576100e8565b806391eace8b1461026e5780639ecebe2a14610299578063a8aee940146102da578063bcb94fb914610303576100e8565b806342b90fc8116100c657806342b90fc81461019d57806354346b66146101c85780637eb452a51461020657806382bea0ca14610243576100e8565b8063141961bc146100ed5780633276f36f146101355780633bed33ce14610174575b600080fd5b3480156100f957600080fd5b50610114600480360381019061010f919061264d565b6103eb565b60405161012c9c9b9a99989796959493929190612775565b60405180910390f35b34801561014157600080fd5b5061015c6004803603810190610157919061264d565b6106a8565b60405161016b9392919061284b565b60405180910390f35b34801561018057600080fd5b5061019b6004803603810190610196919061264d565b6106fc565b005b3480156101a957600080fd5b506101b2610961565b6040516101bf9190612ad4565b60405180910390f35b3480156101d457600080fd5b506101ef60048036038101906101ea9190612af6565b610ddb565b6040516101fd929190612b57565b60405180910390f35b34801561021257600080fd5b5061022d6004803603810190610228919061264d565b610e3c565b60405161023a9190612bc2565b60405180910390f35b34801561024f57600080fd5b50610258610eb8565b6040516102659190612ad4565b60405180910390f35b34801561027a57600080fd5b506102836113af565b6040516102909190612d03565b60405180910390f35b3480156102a557600080fd5b506102c060048036038101906102bb9190612d51565b6114da565b6040516102d1959493929190612d91565b60405180910390f35b3480156102e657600080fd5b5061030160048036038101906102fc9190612f19565b61155a565b005b34801561030f57600080fd5b5061032a6004803603810190610325919061264d565b61184a565b005b34801561033857600080fd5b50610353600480360381019061034e919061264d565b611a39565b6040516103609190613016565b60405180910390f35b610383600480360381019061037e919061264d565b611a8c565b005b34801561039157600080fd5b506103ac60048036038101906103a7919061264d565b611e02565b005b3480156103ba57600080fd5b506103d560048036038101906103d0919061264d565b612233565b6040516103e2919061314a565b60405180910390f35b600281815481106103fb57600080fd5b90600052602060002090600c02016000915090508060000154908060010154908060020160009054906101000a900473ffffffffffffffffffffffffffffffffffffffff16908060030180546104509061319b565b80601f016020809104026020016040519081016040528092919081815260200182805461047c9061319b565b80156104c95780601f1061049e576101008083540402835291602001916104c9565b820191906000526020600020905b8154815290600101906020018083116104ac57829003601f168201915b5050505050908060040180546104de9061319b565b80601f016020809104026020016040519081016040528092919081815260200182805461050a9061319b565b80156105575780601f1061052c57610100808354040283529160200191610557565b820191906000526020600020905b81548152906001019060200180831161053a57829003601f168201915b50505050509080600501805461056c9061319b565b80601f01602080910402602001604051908101604052809291908181526020018280546105989061319b565b80156105e55780601f106105ba576101008083540402835291602001916105e5565b820191906000526020600020905b8154815290600101906020018083116105c857829003601f168201915b5050505050908060060180546105fa9061319b565b80601f01602080910402602001604051908101604052809291908181526020018280546106269061319b565b80156106735780601f1061064857610100808354040283529160200191610673565b820191906000526020600020905b81548152906001019060200180831161065657829003601f168201915b50505050509080600701549080600801549080600901549080600a01549080600b0160009054906101000a900460ff1690508c565b600381815481106106b857600080fd5b90600052602060002090600202016000915090508060000154908060010160009054906101000a900460ff16908060010160019054906101000a900460ff16905083565b600281815481106107105761070f6131cc565b5b90600052602060002090600c020160020160009054906101000a900473ffffffffffffffffffffffffffffffffffffffff1673ffffffffffffffffffffffffffffffffffffffff163373ffffffffffffffffffffffffffffffffffffffff16146107af576040517f08c379a00000000000000000000000000000000000000000000000000000000081526004016107a690613247565b60405180910390fd5b600260046000838152602001908152602001600020805490506107d291906132c5565b600282815481106107e6576107e56131cc565b5b90600052602060002090600c0201600a015411610838576040517f08c379a000000000000000000000000000000000000000000000000000000000815260040161082f90613342565b60405180910390fd5b6002818154811061084c5761084b6131cc565b5b90600052602060002090600c020160020160009054906101000a900473ffffffffffffffffffffffffffffffffffffffff1673ffffffffffffffffffffffffffffffffffffffff166108fc600283815481106108ab576108aa6131cc565b5b90600052602060002090600c0201600701549081150290604051600060405180830381858888f193505050501580156108e8573d6000803e3d6000fd5b506001600282815481106108ff576108fe6131cc565b5b90600052602060002090600c0201600b0160006101000a81548160ff0219169083151502179055507f864016ae297e4ab0e765ecc6dd041b3840e1559e96765e6a44274cee7c5209d7816040516109569190613362565b60405180910390a150565b60606000805b6002805490508110156109cd5760028181548110610988576109876131cc565b5b90600052602060002090600c0201600b0160009054906101000a900460ff166109ba5781806109b69061337d565b9250505b80806109c59061337d565b915050610967565b5060008167ffffffffffffffff8111156109ea576109e9612dee565b5b604051908082528060200260200182016040528015610a2357816020015b610a10612565565b815260200190600190039081610a085790505b5090506000805b600280549050811015610dd15760028181548110610a4b57610a4a6131cc565b5b90600052602060002090600c0201600b0160009054906101000a900460ff16610dbe5760028181548110610a8257610a816131cc565b5b90600052602060002090600c02016040518061018001604052908160008201548152602001600182015481526020016002820160009054906101000a900473ffffffffffffffffffffffffffffffffffffffff1673ffffffffffffffffffffffffffffffffffffffff1673ffffffffffffffffffffffffffffffffffffffff168152602001600382018054610b169061319b565b80601f0160208091040260200160405190810160405280929190818152602001828054610b429061319b565b8015610b8f5780601f10610b6457610100808354040283529160200191610b8f565b820191906000526020600020905b815481529060010190602001808311610b7257829003601f168201915b50505050508152602001600482018054610ba89061319b565b80601f0160208091040260200160405190810160405280929190818152602001828054610bd49061319b565b8015610c215780601f10610bf657610100808354040283529160200191610c21565b820191906000526020600020905b815481529060010190602001808311610c0457829003601f168201915b50505050508152602001600582018054610c3a9061319b565b80601f0160208091040260200160405190810160405280929190818152602001828054610c669061319b565b8015610cb35780601f10610c8857610100808354040283529160200191610cb3565b820191906000526020600020905b815481529060010190602001808311610c9657829003601f168201915b50505050508152602001600682018054610ccc9061319b565b80601f0160208091040260200160405190810160405280929190818152602001828054610cf89061319b565b8015610d455780601f10610d1a57610100808354040283529160200191610d45565b820191906000526020600020905b815481529060010190602001808311610d2857829003601f168201915b50505050508152602001600782015481526020016008820154815260200160098201548152602001600a8201548152602001600b820160009054906101000a900460ff161515151581525050838381518110610da457610da36131cc565b5b60200260200101819052508180610dba9061337d565b9250505b8080610dc99061337d565b915050610a2a565b5081935050505090565b60046020528160005260406000208181548110610df757600080fd5b9060005260206000209060020201600091509150508060000160009054906101000a900473ffffffffffffffffffffffffffffffffffffffff16908060010154905082565b610e446125de565b60038281548110610e5857610e576131cc565b5b9060005260206000209060020201604051806060016040529081600082015481526020016001820160009054906101000a900460ff161515151581526020016001820160019054906101000a900460ff1615151515815250509050919050565b60606000805b600280549050811015610f65573373ffffffffffffffffffffffffffffffffffffffff1660028281548110610ef657610ef56131cc565b5b90600052602060002090600c020160020160009054906101000a900473ffffffffffffffffffffffffffffffffffffffff1673ffffffffffffffffffffffffffffffffffffffff1603610f52578180610f4e9061337d565b9250505b8080610f5d9061337d565b915050610ebe565b5060008167ffffffffffffffff811115610f8257610f81612dee565b5b604051908082528060200260200182016040528015610fbb57816020015b610fa8612565565b815260200190600190039081610fa05790505b5090506000805b838110156113a5573373ffffffffffffffffffffffffffffffffffffffff1660028281548110610ff557610ff46131cc565b5b90600052602060002090600c020160020160009054906101000a900473ffffffffffffffffffffffffffffffffffffffff1673ffffffffffffffffffffffffffffffffffffffff16036113925760028181548110611056576110556131cc565b5b90600052602060002090600c02016040518061018001604052908160008201548152602001600182015481526020016002820160009054906101000a900473ffffffffffffffffffffffffffffffffffffffff1673ffffffffffffffffffffffffffffffffffffffff1673ffffffffffffffffffffffffffffffffffffffff1681526020016003820180546110ea9061319b565b80601f01602080910402602001604051908101604052809291908181526020018280546111169061319b565b80156111635780601f1061113857610100808354040283529160200191611163565b820191906000526020600020905b81548152906001019060200180831161114657829003601f168201915b5050505050815260200160048201805461117c9061319b565b80601f01602080910402602001604051908101604052809291908181526020018280546111a89061319b565b80156111f55780601f106111ca576101008083540402835291602001916111f5565b820191906000526020600020905b8154815290600101906020018083116111d857829003601f168201915b5050505050815260200160058201805461120e9061319b565b80601f016020809104026020016040519081016040528092919081815260200182805461123a9061319b565b80156112875780601f1061125c57610100808354040283529160200191611287565b820191906000526020600020905b81548152906001019060200180831161126a57829003601f168201915b505050505081526020016006820180546112a09061319b565b80601f01602080910402602001604051908101604052809291908181526020018280546112cc9061319b565b80156113195780601f106112ee57610100808354040283529160200191611319565b820191906000526020600020905b8154815290600101906020018083116112fc57829003601f168201915b50505050508152602001600782015481526020016008820154815260200160098201548152602001600a8201548152602001600b820160009054906101000a900460ff161515151581525050838381518110611378576113776131cc565b5b6020026020010181905250818061138e9061337d565b9250505b808061139d9061337d565b915050610fc2565b5081935050505090565b6060600560003373ffffffffffffffffffffffffffffffffffffffff1673ffffffffffffffffffffffffffffffffffffffff168152602001908152602001600020805480602002602001604051908101604052809291908181526020016000905b828210156114d157838290600052602060002090600502016040518060a0016040529081600082015481526020016001820160009054906101000a900473ffffffffffffffffffffffffffffffffffffffff1673ffffffffffffffffffffffffffffffffffffffff1673ffffffffffffffffffffffffffffffffffffffff16815260200160028201548152602001600382015481526020016004820160009054906101000a900460ff16151515158152505081526020019060010190611410565b50505050905090565b600560205281600052604060002081815481106114f657600080fd5b9060005260206000209060050201600091509150508060000154908060010160009054906101000a900473ffffffffffffffffffffffffffffffffffffffff16908060020154908060030154908060040160009054906101000a900460ff16905085565b60006202a3009050804261156e91906133c5565b83116115af576040517f08c379a00000000000000000000000000000000000000000000000000000000081526004016115a69061346b565b60405180910390fd5b600060405180610180016040528060015481526020014281526020013373ffffffffffffffffffffffffffffffffffffffff168152602001898152602001888152602001868152602001878152602001848152602001600081526020018581526020016000815260200160001515815250905060028190806001815401808255809150506001900390600052602060002090600c0201600090919091909150600082015181600001556020820151816001015560408201518160020160006101000a81548173ffffffffffffffffffffffffffffffffffffffff021916908373ffffffffffffffffffffffffffffffffffffffff16021790555060608201518160030190816116be9190613637565b5060808201518160040190816116d49190613637565b5060a08201518160050190816116ea9190613637565b5060c08201518160060190816117009190613637565b5060e082015181600701556101008201518160080155610120820151816009015561014082015181600a015561016082015181600b0160006101000a81548160ff021916908315150217905550505060006040518060600160405280600154815260200160001515815260200160001515815250905060038190806001815401808255809150506001900390600052602060002090600202016000909190919091506000820151816000015560208201518160010160006101000a81548160ff02191690831515021790555060408201518160010160016101000a81548160ff02191690831515021790555050507fbc0a5edd152fa5b886dcae82c5c109d113708653b4b9c0224549ccdf715af94e60015460405161181f9190613362565b60405180910390a16001600081548092919061183a9061337d565b9190505550505050505050505050565b6000600560003373ffffffffffffffffffffffffffffffffffffffff1673ffffffffffffffffffffffffffffffffffffffff168152602001908152602001600020905060005b81805490508110156119fd57828282815481106118b0576118af6131cc565b5b9060005260206000209060050201600001541480156119045750600015158282815481106118e1576118e06131cc565b5b906000526020600020906005020160040160009054906101000a900460ff161515145b156119ea576002838154811061191d5761191c6131cc565b5b90600052602060002090600c020160090154421115611971576040517f08c379a000000000000000000000000000000000000000000000000000000000815260040161196890613755565b60405180910390fd5b6001828281548110611986576119856131cc565b5b906000526020600020906005020160040160006101000a81548160ff021916908315150217905550600283815481106119c2576119c16131cc565b5b90600052602060002090600c0201600a0160008154809291906119e49061337d565b91905055505b80806119f59061337d565b915050611890565b507f7f511e347bf51eed3be100b3194247d5207f05f3b33de7d31e3e8ee73199a04982604051611a2d9190613362565b60405180910390a15050565b600060026004600084815260200190815260200160002080549050611a5e91906132c5565b60028381548110611a7257611a716131cc565b5b90600052602060002090600c0201600a0154119050919050565b600054341015611ad1576040517f08c379a0000000000000000000000000000000000000000000000000000000008152600401611ac8906137e7565b60405180910390fd5b6000151560038281548110611ae957611ae86131cc565b5b906000526020600020906002020160010160019054906101000a900460ff16151514611b4a576040517f08c379a0000000000000000000000000000000000000000000000000000000008152600401611b4190613853565b60405180910390fd5b3460028281548110611b5f57611b5e6131cc565b5b90600052602060002090600c02016008016000828254611b7f9190613873565b92505081905550600060019050600060046000848152602001908152602001600020905060005b8180549050811015611c80573373ffffffffffffffffffffffffffffffffffffffff16828281548110611bdc57611bdb6131cc565b5b906000526020600020906002020160000160009054906101000a900473ffffffffffffffffffffffffffffffffffffffff1673ffffffffffffffffffffffffffffffffffffffff1603611c6d5734828281548110611c3d57611c3c6131cc565b5b90600052602060002090600202016001016000828254611c5d9190613873565b9250508190555060009250611c80565b8080611c789061337d565b915050611ba6565b508115611d3657600060405180604001604052803373ffffffffffffffffffffffffffffffffffffffff1681526020013481525090508181908060018154018082558091505060019003906000526020600020906002020160009091909190915060008201518160000160006101000a81548173ffffffffffffffffffffffffffffffffffffffff021916908373ffffffffffffffffffffffffffffffffffffffff160217905550602082015181600101555050505b60028381548110611d4a57611d496131cc565b5b90600052602060002090600c02016007015460028481548110611d7057611d6f6131cc565b5b90600052602060002090600c02016008015410611dc657600160038481548110611d9d57611d9c6131cc565b5b906000526020600020906002020160010160016101000a81548160ff0219169083151502179055505b7fed0554612a955e04543ae039700084a19eacea429233cc7a7d283f5345ab4ed583604051611df59190613362565b60405180910390a1505050565b3373ffffffffffffffffffffffffffffffffffffffff1660028281548110611e2d57611e2c6131cc565b5b90600052602060002090600c020160020160009054906101000a900473ffffffffffffffffffffffffffffffffffffffff1673ffffffffffffffffffffffffffffffffffffffff1614611eb5576040517f08c379a0000000000000000000000000000000000000000000000000000000008152600401611eac90613247565b60405180910390fd5b60028181548110611ec957611ec86131cc565b5b90600052602060002090600c02016007015460028281548110611eef57611eee6131cc565b5b90600052602060002090600c0201600801541015611f42576040517f08c379a0000000000000000000000000000000000000000000000000000000008152600401611f39906138f3565b60405180910390fd5b600160038281548110611f5857611f576131cc565b5b906000526020600020906002020160010160006101000a81548160ff0219169083151502179055611fbe576040517f08c379a0000000000000000000000000000000000000000000000000000000008152600401611fb59061395f565b60405180910390fd5b600060046000838152602001908152602001600020905060005b81805490508110156121b95760006040518060a001604052808581526020013373ffffffffffffffffffffffffffffffffffffffff168152602001848481548110612026576120256131cc565b5b906000526020600020906002020160010154815260200160028681548110612051576120506131cc565b5b90600052602060002090600c020160090154815260200160001515815250905060056000848481548110612088576120876131cc565b5b906000526020600020906002020160000160009054906101000a900473ffffffffffffffffffffffffffffffffffffffff1673ffffffffffffffffffffffffffffffffffffffff1673ffffffffffffffffffffffffffffffffffffffff1681526020019081526020016000208190806001815401808255809150506001900390600052602060002090600502016000909190919091506000820151816000015560208201518160010160006101000a81548173ffffffffffffffffffffffffffffffffffffffff021916908373ffffffffffffffffffffffffffffffffffffffff160217905550604082015181600201556060820151816003015560808201518160040160006101000a81548160ff02191690831515021790555050505080806121b19061337d565b915050611fd8565b506001600383815481106121d0576121cf6131cc565b5b906000526020600020906002020160010160006101000a81548160ff0219169083151502179055507f8784e79d84ec043ab013215071f26810c0ad293de17d16c22667cfc6e1ba31e2826040516122279190613362565b60405180910390a15050565b61223b612565565b6002828154811061224f5761224e6131cc565b5b90600052602060002090600c02016040518061018001604052908160008201548152602001600182015481526020016002820160009054906101000a900473ffffffffffffffffffffffffffffffffffffffff1673ffffffffffffffffffffffffffffffffffffffff1673ffffffffffffffffffffffffffffffffffffffff1681526020016003820180546122e39061319b565b80601f016020809104026020016040519081016040528092919081815260200182805461230f9061319b565b801561235c5780601f106123315761010080835404028352916020019161235c565b820191906000526020600020905b81548152906001019060200180831161233f57829003601f168201915b505050505081526020016004820180546123759061319b565b80601f01602080910402602001604051908101604052809291908181526020018280546123a19061319b565b80156123ee5780601f106123c3576101008083540402835291602001916123ee565b820191906000526020600020905b8154815290600101906020018083116123d157829003601f168201915b505050505081526020016005820180546124079061319b565b80601f01602080910402602001604051908101604052809291908181526020018280546124339061319b565b80156124805780601f1061245557610100808354040283529160200191612480565b820191906000526020600020905b81548152906001019060200180831161246357829003601f168201915b505050505081526020016006820180546124999061319b565b80601f01602080910402602001604051908101604052809291908181526020018280546124c59061319b565b80156125125780601f106124e757610100808354040283529160200191612512565b820191906000526020600020905b8154815290600101906020018083116124f557829003601f168201915b50505050508152602001600782015481526020016008820154815260200160098201548152602001600a8201548152602001600b820160009054906101000a900460ff1615151515815250509050919050565b6040518061018001604052806000815260200160008152602001600073ffffffffffffffffffffffffffffffffffffffff16815260200160608152602001606081526020016060815260200160608152602001600081526020016000815260200160008152602001600081526020016000151581525090565b6040518060600160405280600081526020016000151581526020016000151581525090565b6000604051905090565b600080fd5b600080fd5b6000819050919050565b61262a81612617565b811461263557600080fd5b50565b60008135905061264781612621565b92915050565b6000602082840312156126635761266261260d565b5b600061267184828501612638565b91505092915050565b61268381612617565b82525050565b600073ffffffffffffffffffffffffffffffffffffffff82169050919050565b60006126b482612689565b9050919050565b6126c4816126a9565b82525050565b600081519050919050565b600082825260208201905092915050565b60005b838110156127045780820151818401526020810190506126e9565b60008484015250505050565b6000601f19601f8301169050919050565b600061272c826126ca565b61273681856126d5565b93506127468185602086016126e6565b61274f81612710565b840191505092915050565b60008115159050919050565b61276f8161275a565b82525050565b60006101808201905061278b600083018f61267a565b612798602083018e61267a565b6127a5604083018d6126bb565b81810360608301526127b7818c612721565b905081810360808301526127cb818b612721565b905081810360a08301526127df818a612721565b905081810360c08301526127f38189612721565b905061280260e083018861267a565b61281061010083018761267a565b61281e61012083018661267a565b61282c61014083018561267a565b61283a610160830184612766565b9d9c50505050505050505050505050565b6000606082019050612860600083018661267a565b61286d6020830185612766565b61287a6040830184612766565b949350505050565b600081519050919050565b600082825260208201905092915050565b6000819050602082019050919050565b6128b781612617565b82525050565b6128c6816126a9565b82525050565b600082825260208201905092915050565b60006128e8826126ca565b6128f281856128cc565b93506129028185602086016126e6565b61290b81612710565b840191505092915050565b61291f8161275a565b82525050565b60006101808301600083015161293e60008601826128ae565b50602083015161295160208601826128ae565b50604083015161296460408601826128bd565b506060830151848203606086015261297c82826128dd565b9150506080830151848203608086015261299682826128dd565b91505060a083015184820360a08601526129b082826128dd565b91505060c083015184820360c08601526129ca82826128dd565b91505060e08301516129df60e08601826128ae565b506101008301516129f46101008601826128ae565b50610120830151612a096101208601826128ae565b50610140830151612a1e6101408601826128ae565b50610160830151612a33610160860182612916565b508091505092915050565b6000612a4a8383612925565b905092915050565b6000602082019050919050565b6000612a6a82612882565b612a74818561288d565b935083602082028501612a868561289e565b8060005b85811015612ac25784840389528151612aa38582612a3e565b9450612aae83612a52565b925060208a01995050600181019050612a8a565b50829750879550505050505092915050565b60006020820190508181036000830152612aee8184612a5f565b905092915050565b60008060408385031215612b0d57612b0c61260d565b5b6000612b1b85828601612638565b9250506020612b2c85828601612638565b9150509250929050565b6000612b4182612689565b9050919050565b612b5181612b36565b82525050565b6000604082019050612b6c6000830185612b48565b612b79602083018461267a565b9392505050565b606082016000820151612b9660008501826128ae565b506020820151612ba96020850182612916565b506040820151612bbc6040850182612916565b50505050565b6000606082019050612bd76000830184612b80565b92915050565b600081519050919050565b600082825260208201905092915050565b6000819050602082019050919050565b612c1281612b36565b82525050565b60a082016000820151612c2e60008501826128ae565b506020820151612c416020850182612c09565b506040820151612c5460408501826128ae565b506060820151612c6760608501826128ae565b506080820151612c7a6080850182612916565b50505050565b6000612c8c8383612c18565b60a08301905092915050565b6000602082019050919050565b6000612cb082612bdd565b612cba8185612be8565b9350612cc583612bf9565b8060005b83811015612cf6578151612cdd8882612c80565b9750612ce883612c98565b925050600181019050612cc9565b5085935050505092915050565b60006020820190508181036000830152612d1d8184612ca5565b905092915050565b612d2e81612b36565b8114612d3957600080fd5b50565b600081359050612d4b81612d25565b92915050565b60008060408385031215612d6857612d6761260d565b5b6000612d7685828601612d3c565b9250506020612d8785828601612638565b9150509250929050565b600060a082019050612da6600083018861267a565b612db36020830187612b48565b612dc0604083018661267a565b612dcd606083018561267a565b612dda6080830184612766565b9695505050505050565b600080fd5b600080fd5b7f4e487b7100000000000000000000000000000000000000000000000000000000600052604160045260246000fd5b612e2682612710565b810181811067ffffffffffffffff82111715612e4557612e44612dee565b5b80604052505050565b6000612e58612603565b9050612e648282612e1d565b919050565b600067ffffffffffffffff821115612e8457612e83612dee565b5b612e8d82612710565b9050602081019050919050565b82818337600083830152505050565b6000612ebc612eb784612e69565b612e4e565b905082815260208101848484011115612ed857612ed7612de9565b5b612ee3848285612e9a565b509392505050565b600082601f830112612f0057612eff612de4565b5b8135612f10848260208601612ea9565b91505092915050565b60008060008060008060c08789031215612f3657612f3561260d565b5b600087013567ffffffffffffffff811115612f5457612f53612612565b5b612f6089828a01612eeb565b965050602087013567ffffffffffffffff811115612f8157612f80612612565b5b612f8d89828a01612eeb565b955050604087013567ffffffffffffffff811115612fae57612fad612612565b5b612fba89828a01612eeb565b945050606087013567ffffffffffffffff811115612fdb57612fda612612565b5b612fe789828a01612eeb565b9350506080612ff889828a01612638565b92505060a061300989828a01612638565b9150509295509295509295565b600060208201905061302b6000830184612766565b92915050565b60006101808301600083015161304a60008601826128ae565b50602083015161305d60208601826128ae565b50604083015161307060408601826128bd565b506060830151848203606086015261308882826128dd565b915050608083015184820360808601526130a282826128dd565b91505060a083015184820360a08601526130bc82826128dd565b91505060c083015184820360c08601526130d682826128dd565b91505060e08301516130eb60e08601826128ae565b506101008301516131006101008601826128ae565b506101208301516131156101208601826128ae565b5061014083015161312a6101408601826128ae565b5061016083015161313f610160860182612916565b508091505092915050565b600060208201905081810360008301526131648184613031565b905092915050565b7f4e487b7100000000000000000000000000000000000000000000000000000000600052602260045260246000fd5b600060028204905060018216806131b357607f821691505b6020821081036131c6576131c561316c565b5b50919050565b7f4e487b7100000000000000000000000000000000000000000000000000000000600052603260045260246000fd5b7f596f7520617265206e6f74207468652066756e64726169736572000000000000600082015250565b6000613231601a836126d5565b915061323c826131fb565b602082019050919050565b6000602082019050818103600083015261326081613224565b9050919050565b7f4e487b7100000000000000000000000000000000000000000000000000000000600052601260045260246000fd5b7f4e487b7100000000000000000000000000000000000000000000000000000000600052601160045260246000fd5b60006132d082612617565b91506132db83612617565b9250826132eb576132ea613267565b5b828204905092915050565b7f4e6f7420656e6f75676820766f746520746f2077697468647261770000000000600082015250565b600061332c601b836126d5565b9150613337826132f6565b602082019050919050565b6000602082019050818103600083015261335b8161331f565b9050919050565b6000602082019050613377600083018461267a565b92915050565b600061338882612617565b91507fffffffffffffffffffffffffffffffffffffffffffffffffffffffffffffffff82036133ba576133b9613296565b5b600182019050919050565b60006133d082612617565b91506133db83612617565b92508282039050818111156133f3576133f2613296565b5b92915050565b7f50726f6a656374206d75737420626520706f73746564206265666f726520747760008201527f6f20646179730000000000000000000000000000000000000000000000000000602082015250565b60006134556026836126d5565b9150613460826133f9565b604082019050919050565b6000602082019050818103600083015261348481613448565b9050919050565b60008190508160005260206000209050919050565b60006020601f8301049050919050565b600082821b905092915050565b6000600883026134ed7fffffffffffffffffffffffffffffffffffffffffffffffffffffffffffffffff826134b0565b6134f786836134b0565b95508019841693508086168417925050509392505050565b6000819050919050565b600061353461352f61352a84612617565b61350f565b612617565b9050919050565b6000819050919050565b61354e83613519565b61356261355a8261353b565b8484546134bd565b825550505050565b600090565b61357761356a565b613582818484613545565b505050565b5b818110156135a65761359b60008261356f565b600181019050613588565b5050565b601f8211156135eb576135bc8161348b565b6135c5846134a0565b810160208510156135d4578190505b6135e86135e0856134a0565b830182613587565b50505b505050565b600082821c905092915050565b600061360e600019846008026135f0565b1980831691505092915050565b600061362783836135fd565b9150826002028217905092915050565b613640826126ca565b67ffffffffffffffff81111561365957613658612dee565b5b613663825461319b565b61366e8282856135aa565b600060209050601f8311600181146136a1576000841561368f578287015190505b613699858261361b565b865550613701565b601f1984166136af8661348b565b60005b828110156136d7578489015182556001820191506020850194506020810190506136b2565b868310156136f457848901516136f0601f8916826135fd565b8355505b6001600288020188555050505b505050505050565b7f43616e277420766f74652c20646561646c696e65207061737365642e00000000600082015250565b600061373f601c836126d5565b915061374a82613709565b602082019050919050565b6000602082019050818103600083015261376e81613732565b9050919050565b7f4d696e696d756e20636f6e747269627574696f6e20697320302e35206574686560008201527f7200000000000000000000000000000000000000000000000000000000000000602082015250565b60006137d16021836126d5565b91506137dc82613775565b604082019050919050565b60006020820190508181036000830152613800816137c4565b9050919050565b7f54686520676f616c20697320616368696576656420616c726561647900000000600082015250565b600061383d601c836126d5565b915061384882613807565b602082019050919050565b6000602082019050818103600083015261386c81613830565b9050919050565b600061387e82612617565b915061388983612617565b92508282019050808211156138a1576138a0613296565b5b92915050565b7f54686520676f616c206973206e6f742061636869657665640000000000000000600082015250565b60006138dd6018836126d5565b91506138e8826138a7565b602082019050919050565b6000602082019050818103600083015261390c816138d0565b9050919050565b7f416c726561647920726571756573746564000000000000000000000000000000600082015250565b60006139496011836126d5565b915061395482613913565b602082019050919050565b600060208201905081810360008301526139788161393c565b905091905056fea2646970667358221220ed80137e4c3c4c386b6aa0938c93e65a4c2834c4ce8ce73e3d37830a5ceebeaa64736f6c63430008120033",
  "immutableReferences": {},
  "source": "// SPDX-License-Identifier: MIT\r\n\r\npragma solidity >=0.7.0 <0.9.0;\r\n\r\ncontract Etherfund {\r\n    uint256 minimuContribution = 0.5 ether; // minimum value for contribution\r\n    uint256 totalCampaigns = 0; // for creating id for campaigns (increments after inserting each campaign to array)\r\n\r\n    // events\r\n    event CampaignRequested(uint256 campaignId);\r\n    event CampaignCreated(uint campaignId);\r\n    event ContributionAdded(uint campaignId);\r\n    event Voted(uint campaignId);\r\n    event WithdrawalSuccess(uint campaignId);\r\n\r\n    // Campaign structure to save data of campaign\r\n    struct Campaign {\r\n        uint256 id;\r\n        uint256 createdAt; // in timestamp\r\n        address payable fundRaiser; // address of fundraiser\r\n        string title;\r\n        string desc;\r\n        string imageURL;\r\n        string category;\r\n        uint256 amountRequired;\r\n        uint256 collectedAmount;\r\n        uint256 deadline;\r\n        uint256 noOfVoters; // total voters\r\n        bool isCompleted;\r\n    }\r\n    Campaign[] public campaigns; // to save each campaign\r\n\r\n    struct CampaignMoreDetails {\r\n        uint256 campaignId;\r\n        bool isRequestedToVote;\r\n        bool isGoalAchieved;\r\n    }\r\n    CampaignMoreDetails[] public campaignMoreDetails;\r\n\r\n    struct Contributor {\r\n        address contributor;\r\n        uint256 amountContributed;\r\n    }\r\n    mapping(uint256 => Contributor[]) public contributors; // campaign id maps contributors\r\n\r\n    struct Request {\r\n        uint256 campaignId;\r\n        address fundRaiser;\r\n        uint256 amount;\r\n        uint256 deadline;\r\n        bool isVoted;\r\n    }\r\n    mapping(address => Request[]) public requests; // msg.sender maps requests\r\n\r\n    // create a new campaign\r\n    function createCampaign(\r\n        string memory _title,\r\n        string memory _desc,\r\n        string memory _category,\r\n        string memory _imageURL,\r\n        uint256 _deadline,\r\n        uint256 _amountRequired\r\n    ) public {\r\n        uint256 twoDaysInSeconds = 2 * 24 * 60 * 60; // 2 days in seconds\r\n        require(\r\n            _deadline > (block.timestamp - twoDaysInSeconds),\r\n            \"Project must be posted before two days\"\r\n        );\r\n\r\n        Campaign memory newCampaign = Campaign(\r\n            totalCampaigns,\r\n            block.timestamp, // timestamp when the new block is created\r\n            payable(msg.sender), // address of fundraiser is converting to payable for withdrawl in future\r\n            _title,\r\n            _desc,\r\n            _imageURL,\r\n            _category,\r\n            _amountRequired,\r\n            0, // collected amount initially 0\r\n            _deadline,\r\n            0, // no of voters initially 0,\r\n            false // campaign completed is initially false\r\n        );\r\n\r\n        campaigns.push(newCampaign); // push newly created campaign to array\r\n\r\n        CampaignMoreDetails memory newCampaignMoreDetails = CampaignMoreDetails(\r\n            totalCampaigns,\r\n            false, // is the campaign requested to vote\r\n            false // is the campaign achieved the goal\r\n        );\r\n\r\n        campaignMoreDetails.push(newCampaignMoreDetails);\r\n        emit CampaignCreated(totalCampaigns);\r\n\r\n        totalCampaigns++; // increment no of campaigns\r\n    }\r\n\r\n    // contribute ether\r\n    function contribute(uint256 campaignId) public payable {\r\n        require(\r\n            msg.value >= minimuContribution,\r\n            \"Minimun contribution is 0.5 ether\"\r\n        );\r\n        require(\r\n            campaignMoreDetails[campaignId].isGoalAchieved == false,\r\n            \"The goal is achieved already\"\r\n        );\r\n\r\n        // incrementing collected amount of campaingn\r\n        campaigns[campaignId].collectedAmount += msg.value;\r\n        bool newContributer = true;\r\n        Contributor[] storage contributorsList = contributors[campaignId];\r\n\r\n        for (uint256 i = 0; i < contributorsList.length; i++) {\r\n            if (contributorsList[i].contributor == msg.sender) {\r\n                // increment contributed amount of a person for 2nd contribution\r\n                contributorsList[i].amountContributed += msg.value;\r\n                newContributer = false;\r\n                break;\r\n            }\r\n        }\r\n        if (newContributer) {\r\n            // creating new contributor\r\n            Contributor memory contributor = Contributor({\r\n                contributor: msg.sender,\r\n                amountContributed: msg.value\r\n            });\r\n            contributorsList.push(contributor);\r\n        }\r\n\r\n        if (\r\n            campaigns[campaignId].collectedAmount >=\r\n            campaigns[campaignId].amountRequired\r\n        ) {\r\n            campaignMoreDetails[campaignId].isGoalAchieved = true;\r\n        }\r\n\r\n        emit ContributionAdded(campaignId);\r\n    }\r\n\r\n    // Request to vote\r\n    function requestVote(uint256 _campaignId) public {\r\n        require(\r\n            campaigns[_campaignId].fundRaiser == msg.sender,\r\n            \"You are not the fundraiser\"\r\n        );\r\n        require(\r\n            campaigns[_campaignId].collectedAmount >=\r\n                campaigns[_campaignId].amountRequired,\r\n            \"The goal is not achieved\"\r\n        );\r\n        require(\r\n            campaignMoreDetails[_campaignId].isRequestedToVote = true,\r\n            \"Already requested\"\r\n        );\r\n\r\n        Contributor[] storage contributorsList = contributors[_campaignId]; // get all contributors\r\n        for (uint256 i = 0; i < contributorsList.length; i++) {\r\n            Request memory newRequest = Request(\r\n                _campaignId,\r\n                msg.sender,\r\n                contributorsList[i].amountContributed,\r\n                campaigns[_campaignId].deadline,\r\n                false // initially voted is false\r\n            );\r\n            requests[contributorsList[i].contributor].push(newRequest);\r\n        }\r\n\r\n        campaignMoreDetails[_campaignId].isRequestedToVote = true;\r\n        emit CampaignRequested(_campaignId);\r\n    }\r\n\r\n    // vote for a campaign\r\n    function voteForCampaign(uint256 campaignId) public {\r\n        Request[] storage requestList = requests[msg.sender];\r\n\r\n        for (uint256 i = 0; i < requestList.length; i++) {\r\n            if (\r\n                requestList[i].campaignId == campaignId &&\r\n                requestList[i].isVoted == false\r\n            ) {\r\n                require(\r\n                    block.timestamp <= campaigns[campaignId].deadline,\r\n                    \"Can't vote, deadline passed.\"\r\n                );\r\n                requestList[i].isVoted = true;\r\n                campaigns[campaignId].noOfVoters++;\r\n            }\r\n        }\r\n\r\n        emit Voted(campaignId);\r\n    }\r\n\r\n    // withdraw after voted half of the contributors\r\n    function withdrawEther(uint256 campaignId) public {\r\n        require(\r\n            msg.sender == campaigns[campaignId].fundRaiser,\r\n            \"You are not the fundraiser\"\r\n        );\r\n        require(\r\n            campaigns[campaignId].noOfVoters >\r\n                (contributors[campaignId].length / 2),\r\n            \"Not enough vote to withdraw\"\r\n        );\r\n\r\n        campaigns[campaignId].fundRaiser.transfer(\r\n            campaigns[campaignId].amountRequired\r\n        );\r\n\r\n        campaigns[campaignId].isCompleted = true;\r\n        emit WithdrawalSuccess(campaignId);\r\n    }\r\n\r\n    // get all incompleted campaigns\r\n    function getIncompleteCampaigns() public view returns (Campaign[] memory) {\r\n        uint256 count = 0; // total count of incomplete campaigns\r\n        for (uint256 i = 0; i < campaigns.length; i++) {\r\n            if (!campaigns[i].isCompleted) {\r\n                count++;\r\n            }\r\n        }\r\n\r\n        Campaign[] memory result = new Campaign[](count); // create an instance of Campaign with size count\r\n        uint256 j = 0;\r\n        for (uint256 i = 0; i < campaigns.length; i++) {\r\n            if (!campaigns[i].isCompleted) {\r\n                result[j] = campaigns[i];\r\n                j++;\r\n            }\r\n        }\r\n        return result;\r\n    }\r\n\r\n    // get all campaigns created by a user\r\n    function getMyCampaigns() public view returns (Campaign[] memory) {\r\n        // get count of campaigns created by user(msg.sender)\r\n        uint256 count = 0;\r\n        for (uint256 i = 0; i < campaigns.length; i++)\r\n            if (campaigns[i].fundRaiser == msg.sender) count++;\r\n\r\n        Campaign[] memory myCampaigns = new Campaign[](count);\r\n        uint256 j = 0;\r\n        for (uint256 i = 0; i < count; i++) {\r\n            if (campaigns[i].fundRaiser == msg.sender) {\r\n                myCampaigns[j] = campaigns[i];\r\n                j++;\r\n            }\r\n        }\r\n        return myCampaigns;\r\n    }\r\n\r\n    // get all requests\r\n    function getMyRequests() public view returns (Request[] memory) {\r\n        return requests[msg.sender];\r\n    }\r\n\r\n    // get details about a campaign with campaignId\r\n    function getCampaignDetails(\r\n        uint256 _campaignId\r\n    ) public view returns (Campaign memory) {\r\n        return campaigns[_campaignId];\r\n    }\r\n\r\n    function getCampaignMoreDetails(\r\n        uint _campaignId\r\n    ) public view returns (CampaignMoreDetails memory) {\r\n        return campaignMoreDetails[_campaignId];\r\n    }\r\n\r\n    function getWithdrawStatus(uint _campaignId) public view returns (bool) {\r\n        return\r\n            campaigns[_campaignId].noOfVoters >\r\n            (contributors[_campaignId].length / 2);\r\n    }\r\n}\r\n",
  "sourcePath": "C:\\Users\\ABY\\Desktop\\project\\crowdfund\\contracts\\Etherfund.sol",
  "compiler": {
    "name": "solc",
    "version": "0.8.18+commit.87f61d96.Emscripten.clang"
  },
  "schemaVersion": "3.4.13",
  "updatedAt": "2023-05-21T07:37:10.395Z",
  "networkType": "ethereum",
  "devdoc": {
    "kind": "dev",
    "methods": {},
    "version": 1
  },
  "userdoc": {
    "kind": "user",
    "methods": {},
    "version": 1
  }
}